:020000040000FA
:0600000002137202084227
:03002B000210D5EB
:03003300020F7148
:0300530002077130
:100083000207D301010000000000F8FF07FFFF0093
:10009300000504000000030001FFFFFFFF00142020
:1000A3004E00000020FD000206FFFF1E1900320073
:1000B300007701DF15E515031C00000000000000B8
:1000C300000000000000000000000000000000002D
:1000D300000000000000000000000000000000001D
:1000E300000000FF0104010C0002050D81043281B0
:1000F300010400000515000000E8030000FFFF569F
:100103001588130000E8030000C800C800B801A068
:10011300BB0D00A0BB0D00020202070401071E0273
:10012300051E020A0A010108080103B80B02803EFA
:100133000102FEFFE8030A050001FFFF020A0114A2
:1001430001E00100B0423BAAB83F0000003F8C90A1
:100153006339AA0CA33A00941E3C8042633DCFFE50
:10016300753E1572313F0000803FF304353F8096A2
:10017300184B000080BF2292D43EDD9B2A3F04002F
:100183000040FFFF7F7FFFFF7FFF01008034187275
:10019300313F050301010F030003000300030003C4
:1001A30000030003000300030005000A00140028F5
:1001B300004F009E000000022E00000000D62C001D
:1001C300000000FF000000FF001213A0604612139E
:1001D300BE603DE9687008F618F618F618F6227442
:1001E3008067F7120200090909748067F722121366
:1001F300BE601D1213A07005191919801A12124D31
:10020300701F121261C37003E6673319191940078F
:100213001818182208080874FFF618F618F618F6C6
:1002230022121261601712142C702192F0121435ED
:100233007019501720F014080808090909E7F6187F
:1002430019E7F61819E7F61819E7F62212143560BC
:10025300E6E869701F0808E62480F608E436F61815
:10026300547FB47F0CE654806007F6E418F618F662
:1002730022181822E9C6CC08C6CD08C6CE08C6CFB8
:10028300C0E0E8C0E0EAC0E0EBC0E009E9F809E754
:10029300FA09E7FBE6F918E6F8C3EC98ED99EE9A4C
:1002A300EBC2E7F5F0EFC2E795F0500E600CEBCF31
:1002B300FBEACEFAE9CDF9E8CCF8EAA2E7D2E7FA0D
:1002C300EB33FB13F5F0EEA2E7D2E7FEEF33FFC506
:1002D300F013A2E730E601B313C5F0C3C0E0C0F0EA
:1002E3007F00C39BFB605E9418600F401D14601A6F
:1002F300D0E023F9D0E0F80203D28AF0E9486003A2
:10030300D2F0E4AFF0FAF9F8803BEB30E40D89F07A
:10031300EA6003D2F0E4AFF0F9CAF8EB30E30D88FA
:10032300F0EF6002D2F0AFF0E4CAC9F8EB54076013
:1003330014FBC3EA13FAE913F9E813F8EF135002B5
:10034300D2E0FFDBEDD0E0C0E030E739C3E49FFF4C
:10035300F5F0EC98FC42F0ED99FD42F0EE9AFE4286
:10036300F0D0E0F9D0E0F8E5F0607AE923F9EE2087
:10037300E742D8028067C3EF33FFEC33FCED33FD74
:10038300EE33FE80EAEC28FCED39FDEE3AFED0E0D8
:1003930023F9D0E0F84002801BC3EE13FEED13FDFA
:1003A300EC13FCEF135002D2E0FF08B800067F7F86
:1003B30074FF802EEF3350178CF020F00260100C86
:1003C300BC000C0DBD00080EBE000408E860DFE9A8
:1003D30033E813FFEE2313FE4F4D4C8008E954809E
:1003E300FFE4FEFDFCEE33EF33F47004FCFD7E808E
:1003F300D0E0FBD0E0FAD0E0F8D0E0CFC618CEC60C
:1004030018CDC618CCC6F9221213BE7004181818DA
:10041300221213A0700D74FFF61819F61819F618A6
:1004230019F622E7548066F6121435700F12142C55
:1004330070F014F608F608F608F680D112142C7042
:100443000CF608F608768008E6447F80EC12126406
:10045300700C12125060BFE65480F6E480BB121297
:1004630050700519191980A5E869700C763F187644
:100473008018F618F6E8F922E6CDC0E018ECC0E0E3
:10048300E633CD33CDD313F6E719FCE7191933CC93
:1004930033C3947F400ECD9D502408E65480F6E488
:1004A30018F6800FF4043D14501408E6447FF61840
:1004B3007680E418F618F6D0E0FCD0E0FD22CCD329
:1004C30013CCFD18E4C6CBC0E018E4C6CAC0E008EC
:1004D30008ED08C633E613F618E433C675F003C314
:1004E300CA97CA09CB97CB199C40047D08802EBDBF
:1004F30000030205B416B6FF050606081618C3CA9C
:1005030033CACB33CB33CA27CA09CB37CB193CC346
:100513007D08803E187D0820E75CC633C6CA33CA0F
:10052300CB33CB33DDF1D5F0EB30E77BCA97CA0988
:10053300CB974ACB199C406F4B7025E620E0218076
:1005430066187D08C3CA97CA09CB97CB199CD3C633
:1005530033C6CA33CACB33CB3350C9DDE7D5F0E159
:10056300D3E4C636C608C636C608C636C608C63677
:10057300C61818188031C3CA97CA09CB97CB199CE0
:10058300B34097C633C6CA33CACB33CB33DD34D576
:10059300F02EC6A2E0C640C8CA27CA09CB37194AFB
:1005A30070BECB3CB480B90808E63308E633601F5D
:1005B300181818D0E0FAD0E0FBD0E0FCD0E0FD2220
:1005C300187D08CA27CA09CB37CB193CD3808013BF
:1005D300F618E4B67F11F618B6FF0EF618C60470C7
:1005E300D20808768080CAF618F618F680C500127D
:1005F30013BE604F1213A06012E7548066F6121206
:100603004D701112142C703B090909F4F618F618F1
:10061300F618F622121261701512143508080860D4
:10062300EAE6447FF618768018E4F618F6221214E8
:1006330035601612142C7012E4F608F608F608E674
:100643005480F609090918181822EAC0E0EBC0E043
:10065300ECC0E0EDC0E0E687F0A4FBACF008E68771
:10066300F0A42CFCE435F0FA1809E687F0A42C4B2F
:1006730060027401CA35F0FCE433FB09E687F0D26B
:10068300F7A42CCB35F0FC1908E687F0A42BCC3566
:10069300F0FBE433FD0819E687F0D2E7A42C4ACB3C
:1006A30035F0CD3400FC09E687F0D2E7A42DCC3534
:1006B300F0FDE433FA0918E687F0D2F7A42CCD3520
:1006C300F0CA3400FC08E687F0D2E7D2F7A42ACCBC
:1006D30035F07A7E20E70B0ACB33CBCD33CDCC3349
:1006E300CC33CB3350147004ED30E00ED2F1E4CDB3
:1006F3003DCDCC3CCC3B5005DA05C2F1EB547FC673
:100703003308E63392F0FBE73309E733C39A502DFE
:100713002B70190C0D4C4D70151806E608C3337079
:100723000D20F10AA2F013F6E418800B4024E4F63E
:1007330030F002768018F618F618F68024D33B14AE
:10074300501074FFA2F013F6187680E418F618F62A
:10075300800FA2F013F618E63303F618ECF618ED43
:10076300F6D0E0FDD0E0FCD0E0FBD0E0FA22C0E020
:1007730074F1120BD3A2AFE433F509D2AF85A70806
:10078300AFA1EF5508FE74105E60061216A575A1A1
:10079300EF74085E60081216AB75A1F78024EFA210
:1007A300E092F0E508A2E082F05017906198E0F83B
:1007B300900586E0C398A2D265D0335002E8F07565
:1007C300A1FE752300E509A2E092AF7F02020C327D
:1007D300C0E074F2120BD3A2AFE433FED2AF906148
:1007E300A4E0F8759B00E59158540860087591F7EB
:1007F3001216F98023E59158541060087591EF1291
:1008030016FF8014E591A2E092F0E8A2E082F05096
:1008130007E0C2E0F01218559061A3E0F8E5E9584B
:100823005404600E12182B75E9FB906193E0A2E665
:1008330040F2752300EEA2E092AF7F01020C32C0BA
:10084300E074F2120BD3A2AFE433FED2AF9061A5F2
:10085300E0F8E5BF585404600675BFFB12186D80BD
:10086300D11208AF30F0391208F480341208AF20E7
:10087300F01430E72B74FFFCFBFA747F8022E4FC56
:10088300FBFA7480801AB48008BC00F2BB00EF80CE
:100893000F50EBF9E4C39AFAE49BFBE49CFCE49964
:1008A300C6CC18C6CB18C6CA18C6F922E4C9C608EE
:1008B300CAC608CBC6D3330308CCC63392F0C3945D
:1008C3007F402E94184019C9B90704CACBCC2250D3
:1008D30025C309CA33CACB33CBCC33CC33D9F422A7
:1008E300F4600DC9CCC313CB13CBCA13CAD9F6CC4E
:1008F30022E4FCFBFA2214FCFBFA22C3E498F8E49A
:1009030099F912093F8026C3E49AFAE49BFBE92094
:10091300E7E912093FE498F8E499F922C3E498F867
:10092300E499F912093FE498F8E499F9C3E49AFACF
:10093300E49BFB22EB20E7CFE920E7E0B90010BB03
:100943000008E88AF084F8AAF022E4FBC8FA22EB54
:1009530070227B10C833C8C933C9335007C39AC345
:10096300DBF280069A50012ADBEAC833F4C8C933A4
:10097300F4C9FA2275F008E4C833C8C933C933C9C6
:100983009AC99B5004C92AC93BD5F0ECFBC833F480
:10099300C8E4C9FA22080808EAC0E0EBC0E086F020
:1009A300E7A4FA180986F0E7A42AFA180986F0E7FB
:1009B300A42AFA180986F0E7A42AFA1986F0E7A40C
:1009C300FBE5F02AFA190886F0E7A42BFBE5F03AD9
:1009D300FA190886F0E7A42BFBE5F03AFA18180990
:1009E30086F0E7A4C5F02BFBE43AFA1908E7C5F053
:1009F300C6A426F6E5F03BFBE43AFA1886F0E7A432
:100A0300F6E5F00826F6E43B08F6E43A08F6D0E00B
:100A1300FBD0E0FA22080808E630E711121225128B
:100A23000A30080808C64480C6181818221818186F
:100A3300E9799EC608CAC608CBC608CCC6C37020CF
:100A43007996CACBCC7019798ECBCC70137986CCBE
:100A5300700EF9802ACA33CACB33CBCC33CC3319CB
:100A630030E7F2CCCBCA3350147004EA30E00DE423
:100A7300CA3ACACB3BCBCC3CCC500209C3E913C620
:100A8300CC182313C6CB18C6CA18C6F922E4CFC0A4
:100A9300E0E4CEC0E0E4CDC0E0E4CCC0E075F020FB
:100AA300E626F608E633F608E633F608E633F618E4
:100AB3001818EC33FCED33FDEE33FEEF33FFC3ECDC
:100AC3009709ED9709EE9709EF97191919400FFF49
:100AD300EC97FC09ED97FD09EE97FE191906D5F081
:100AE300BFECF709EDF709EEF709EFF7191919D07C
:100AF300E0FCD0E0FDD0E0FED0E0FF222521C5825E
:100B0300C0E0E52234FFC583C0E0E521C39582241C
:100B1300F810AF088583228582218008858322858A
:100B23008221D2AFCEF0A3E520F0A37808E608F047
:100B3300A3DEFAEFF0A3E58124FAF8E608F0A3E6D2
:100B430008F0A3E608F0A30808E608F0A3E608F017
:100B5300A315811581D0E0FED0E0F815811581152C
:100B630081E8C0E0EEC0E022121417B90003020BC3
:100B7300BDE490050178F479138002F0A3D8FCD981
:100B8300FA78239000867A01BA00028007E493A3DF
:100B9300F608DAF97AF47B179000877846790280B1
:100BA30015E493A3AD82AE838A828B83F0A3AA82DA
:100BB300AB838D828E83D8E9D9E775828F7583C520
:100BC30074041210B775824375832A74001210B728
:100BD300C0D02521C582C0E0E52234FFC583C0E033
:100BE300E521C3958224F310AF08858322858221F2
:100BF3008008858322858221D2AFC8F0A3E9F0A3C0
:100C0300EAF0A3EBF0A37908E709F0A3D8FAECF034
:100C1300A3EDF0A3EEF0A3EFF0A3D0E0F0A3D0E0B8
:100C2300F0A3D0E0F0A3E520F0A3E5F0F0A3228544
:100C33002283852182E0C0E0A3E0F9A3E0FAA3E0E8
:100C4300FBA37808E0F608A3DFFAE0FCA3E0FDA32A
:100C5300E0FEA3E0FFA3E0C0E0A3E0C0E0A3E0F573
:100C6300D0A3E0F520A3E0A3F5F010AF088583221D
:100C73008582218008858322858221D2AFD082D0CC
:100C830083D0E0F8D0E032121228181818120A9014
:100C930012132119191922121321191919080808F5
:100CA300E618181820E7E0120A90121228181818EC
:100CB30022090909E719191920E7DC080808E618C9
:100CC300181820E703020A90121228181818120A9B
:100CD3009012122818181812132119191922E473E3
:100CE300FF75F0108E248F25858229858328852121
:100CF30082852283E0CEA3E0CF852982852883EBFA
:100D0300C9EAC8EDCBECCAC3E833C8E933C9EA334F
:100D1300CAEB33CBC3EA9EF527EB9FF526B350040A
:100D2300AB26AA27EC33CCED33CDD5F0DAAE24AF26
:100D330025221213BE601C1213A060171214357003
:100D43000712142C7001D322C0D012142C7006D0B9
:100D5300D0B322C32233D0D0501430E0F6C3E79689
:100D63000809E7960809E7960809E796B32220E001
:100D7300D5E6970809E6970809E6970809E697B3C1
:100D830022D083D082ECC0E0EDC0E0E493A3FCE486
:100D930093A3FDED4C600D120EA8EC24FFFCED3483
:100DA300FFFD80EFE493A3FCE493A3FDED4C600D02
:100DB300120F9CEC24FFFCED34FFFD80EFD0E0FD2F
:100DC300D0E0FCE493A3C0E0E493C0E0221213BE9E
:100DD300601B1213A06016121435700712142C60D6
:100DE3000CB322C0D012142C7005D0D022C32233EE
:100DF300D0D0501330E0EBC3E7960809E796080913
:100E0300E7960809E7962220E0E4E6970809E697C3
:100E13000809E6970809E69722D083D082E9C0E063
:100E2300E493A3C386F0C5F095F0F908E493A38691
:100E3300F0C5F095F0700BE493A3C3994005E90462
:100E43008002A3E475F002A42582F582E5F03583E0
:100E5300F583D0E0F9E493A3C0E0E493C0E02285F6
:100E63002283852182E0A3FEE0A3F5207808E0A396
:100E7300F608DFFAE0A3FFE0A3C0E0E0A3C0E0E0F0
:100E8300A3C0E0E0A3C0E0E0A3C0E010AF08858208
:100E9300218583228008858221858322D2AFD08356
:100EA300D0820210BDC0E0C3E49396087401939608
:100EB30018400FE493667008087401936618700075
:100EC3007019A3A3C3E49396087401939618A3A37C
:100ED300400DD0E0D0E0D0E0020DC0A3A3A3A3A3B4
:100EE300A3D0E0227404800474028000CCC0E0ED3F
:100EF300C0E0E521C39CCCAD2250011D10AF068C90
:100F0300218D2280068C218D22D2AF121039D0E0A0
:100F1300FDD0E0FC2274028000CCC0E0EDC0E0E52F
:100F230021C39CCCAD2250011D10AF068C218D2214
:100F330080068C218D22D2AF121017D0E0FDD0E0B5
:100F4300FC221213BE60251213A060201214357008
:100F53000302142C080808E76670101819E7667076
:100F63000A1819E76670041819E76622F422C0E02C
:100F730074F2120BD3A2AFE433FED2AFE58BA2E03F
:100F8300500579041215FD758B00C2E8752300EE38
:100F9300A2E092AF7F01020C32C0E0C0F088F0E41F
:100FA300936670080874019366187000A8F0A3A3F1
:100FB300700BD0F0D0E0D0E0D0E0020DC0A3A3D0FE
:100FC300F0D0E022D083D082CCC0E0E493A36006CB
:100FD3001210981470FAE493A360061211A6147009
:100FE300FAD0E0FCE493A3C0E0E493C0E022C0089D
:100FF300C3E096F50808A3E096420808A3E09642EA
:101003000808A3E0964208A2D265D033E508700130
:10101300D3D00822CAC0E0E493A3C582CCC582C55D
:1010230083CDC583F0A3C582CCC582C583CDC583DB
:10103300DAE5D0E0CA22CAC0E0E0A3C582CCC5820B
:10104300C583CDC583F0A3C582CCC582C583CDC579
:1010530083DAE6D0E0CA22C008C3E096F50808A305
:10106300E096420808A3E096420808A3E0964508E4
:101073007001D3D0082270090808082260161818D6
:1010830018C6C333C608C633C608C633C608C63334
:10109300C6D5E0EA22C0E0E493A3D39C5010E493C6
:1010A300A3C39C400AD0E0D0E0D0E0020FE4A3A3A6
:1010B300A3D0E022C09FF59FE473D09F22D083D0BA
:1010C30082C09FE493C0E0740193C0E0740293F57F
:1010D3009F22C0E0C0D0E8C0E0A8A8D2AFC2C775C5
:1010E3002300E8A2E792AFD0E0F8D0D0D0E03225D9
:1010F30021F58210AF08F521400C15228008F52157
:1011030040021522D2AF8522832200C0D0252110B0
:10111300AF08F521500C05228008F5215002052265
:10112300D2AFD0D0227404800A7403800674028084
:10113300027401C0E0F4041210F2D0E01213DA22B8
:10114300BB0102E722C082C08389828A83BB00037A
:10115300E08002E493D083D082226016080808C698
:10116300C313C618C613C618C613C618C613C6D5E6
:10117300E0EA222521F8E43522F9222521FAE43593
:1011830022FB222521FCE43522FD22C3E0C696F68C
:1011930008A3E0C696F608A3E0C696F608A3E0C641
:1011A30096F622C0E0E493A36C7009D0E0D0E0D0BF
:1011B300E0020FE4A3A3D0E022252110AF08F5211C
:1011C300400C15228008F52140021522D2AF22E0FF
:1011D30066701008A3E066700A08A3E0667004084E
:1011E300A3E06622C3E09608A3E09608A3E096086E
:1011F300A3E096A2D265D03322E76670100809E710
:1012030066700A0809E76670040809E76622C3E006
:1012130096F008A3E096F008A3E096F008A3E09602
:10122300F022181818E4C396F608E496F608E49634
:10123300F608E496F622C3E697F60809E697F60859
:1012430009E697F60809E697F622181818E60846FD
:10125300087009E626087005E633F42208221919F6
:1012630019E70947097009E727097005E733F422ED
:101273000922C3E493960874019396087402939623
:10128300087403939622E627F60809E637F6080959
:10129300E637F60809E637F622700422600D18C611
:1012A300C333C608C633C6D5E0F41822E657F6089A
:1012B30009E657F60809E657F60809E657F622E065
:1012C30056F608A3E056F608A3E056F608A3E05640
:1012D300F622E026F608A3E036F608A3E036F60881
:1012E300A3E036F622E026F008A3E036F008A3E0F8
:1012F30036F008A3E036F022E056F008A3E056F0FB
:1013030008A3E056F008A3E056F022E647F60809E2
:10131300E647F60809E647F60809E647F622E4C376
:1013230097F709E497F709E497F709E497F7226039
:101333000D08C6A2E713C618C613C6D5E0F322C626
:10134300F4C608C6F4C608C6F4C608C6F4C622C363
:10135300E09608A3E09608A3E09608A3E09622C3CC
:10136300E7960809E7960809E7960809E7962275BC
:10137300D00075813F75210175220500020B6B605A
:101383000C08C6C313C618C613C6D5E0F422E6F08C
:1013930008A3E6F008A3E6F008A3E6F022E709476E
:1013A30009C3134709336002E733F422E0F608A3C5
:1013B300E0F608A3E0F608A3E0F622E6084608C331
:1013C300134608336002E633F422800100E9F8741F
:1013D300FF28F90470F622CAC0E0E6F0A308DAFA9F
:1013E300D0E0FA22E0F8A3E0F9A3E0FAA3E0FB22BD
:1013F300E8F0A3E9F0A3EAF0A3EBF022EAF0A3EB11
:10140300F0A3ECF0A3EDF022E0FAA3E0FBA3E0FCF1
:10141300A3E0FD22E5C754F84401F5C7790122256D
:1014230021F582E43522F58322E727194719471965
:101433004722E62618461846184622C2AF75D69F9D
:10144300020000221210C0C3D5031210C01FD6031E
:101453001210C07DD6031210C0F0D6031210C03490
:10146300D7031210C08CD7031210C0AED7031210CB
:10147300C03ED8031210C0CFD8031210C01BD9032B
:101483001210C047D9031210C088D9031210C02705
:10149300DB031210C009DC031210C0DEDC031210E0
:1014A300C063EC011210C0F7EC011210C05FED0134
:1014B3001210C084EE011210C00EEF011210C09979
:1014C300EF011210C0D5EF011210C06EF00112101F
:1014D300C003F1011210C0D6F1011210C0B8F3011C
:1014E3001210C06CF4011210C062F5011210C00199
:1014F300F6011210C056F6011210C0C4F601121004
:10150300C0D0F9011210C0FAFB011210C0FBFC019C
:101513001210C039FE011210C044FE011210C03671
:10152300B6041210C05FB6041210C07AB6041210CB
:10153300C09FB6041210C040B7041210C05BB704BA
:101543001210C019B8041210C043B8041210C050CE
:10155300BF041210C00CC0041210C0F1C00412105A
:10156300C054CF041210C065CF041210C003D004BE
:101573001210C00ED0041210C028D0041210C0F5EF
:10158300FF011210C0A9D5041210C037D0041210E5
:10159300C047D0041210C059D0041210C00BD1049C
:1015A3001210C061CD041210C0E5CD041210C04D5D
:1015B300CE041210C0C3B3041210C0E1B30412105E
:1015C300C016B4041210C03BB4041210C05EB404BD
:1015D3001210C099B4041210C0C6B4041210C00D86
:1015E300B5041210C0ACB5041210C066CE041210BC
:1015F300C0B3CE041210C0BCCE041210C0E3CE049C
:101603001210C02BCF041210C042CF041210C0EF2F
:10161300FF011210C0F2FF011210C0F87F00121078
:10162300C082C3041210C0BAC3041210C008C50498
:101633001210C08CC5041210C05A8D041210C0863B
:101643008D041210C0F08F041210C03090041210D9
:10165300C06C90041210C08090041210C0999004C2
:101663001210C08B91041210C03E92041210C0528B
:1016730092041210C083FE011210C0A7FE011210C3
:10168300C0C0FE011210C0FEFE011210C02EFF01E9
:101693001210C05BFF011210C065FF011210C0CB16
:1016A300FF011210C0CEFF011210C0D8FF011210AB
:1016B300C0E5FF011210C01CB1041210C03CB104FC
:1016C3001210C07BB1041210C099B1041210C0B43F
:1016D300B1041210C01AB2041210C026B2041210C0
:1016E300C083B2041210C092B2041210C0B6B20486
:1016F3001210C077B3041210C084B3041210C09543
:10170300B3041210C006D3041210C04ED304121037
:10171300C07AD3041210C0A892041210C002940419
:101723001210C01094041210C02394041210C03875
:1017330094041210C04D94041210C060940412104B
:10174300C0DC94041210C04195041210C0C9950462
:101753001210C04196041210C01A97041210C02A26
:1017630097041210C03997041210C06DD2041210DE
:10177300C091D2041210C0B9D2041210C0E1D20435
:101783001210C093B8041210C0BAB8041210C0D813
:10179300B8041210C047B9041210C036FD0312106A
:1017A300C04FFD031210C05BFD031210C06FFD0399
:1017B3001210C08DFD031210C097FD031210C0A1BB
:1017C300FD031210C0B4FD031210C03AFE03121041
:1017D300C0AFFE031210C0DEFE031210C02CFF03C5
:1017E3001210C07BFF031210C096FF031210C0A09B
:1017F300FF031210C0B1FF031210C0F4FF03121055
:10180300C05BD4041210C0A6D4041210C0B9F303F1
:101813001210C0E5F3031210C002F4031210C01536
:10182300F4031210C030F4031210C08AF403121030
:10183300C0B8F4031210C0C8F8031210C026FA038C
:101843001210C058FA031210C0BBFA031210C027BB
:10185300FC031210C04FFC031210C064FC031210EF
:10186300C074FC031210C0B4FC031210C0F6FC03D6
:101873001210C006FD031210C00DCA041210C027B7
:10188300CA041210C04FCA041210C068CA0412104E
:10189300C08CCA041210C0AACA041210C0C1CA0460
:1018A3001210C0EFCA041210C00ACB041210C011E8
:1018B300D1041210C055D1041210C02CA40412106C
:1018C300C03CA4041210C041A5041210C073A504A7
:1018D3001210C0A3A5041210C0C6A5041210C0DDC7
:1018E300A5041210C017A6041210C07CA60412107F
:1018F300C0BEA6041210C005A7041210C032A7046C
:101903001210C05DA7041210C077C7041210C0895B
:10191300C7041210C09DC8041210C0A0C80412103E
:10192300C05BCC041210C091CC041210C0A9CC042B
:101933001210C0EBCC041210C0FBCC041210C03F39
:10194300CD041210C049CD041210C000800412103F
:10195300C04380041210C0A880041210C0C78004C2
:101963001210C06981041210C07281041210C0C326
:1019730081041210C0EC81041210C0F9810412100A
:10198300C06B82041210C0F982041210C03E83049B
:101993001210C07783041210C0DC83041210C00538
:1019A30084041210C07C84041210C0CB840412106F
:1019B300C00885041210C03D85041210C04F850471
:1019C3001210C06185041210C08085041210C089F2
:1019D30085041210C04A86041210C08D86041210AA
:1019E300C0CB86041210C00AD5041210C0CDC8049F
:1019F3001210C0E8BA041210C01EBB041210C06655
:101A0300BB041210C0BFBC041210C060AB031210A1
:101A1300C086AC031210C0C2AC031210C080AE0368
:101A23001210C0AEAE031210C018B1031210C0588A
:101A3300B1031210C0FAB2031210C090B303121014
:101A4300C0EAB3031210C07AB4031210C0BEB403C9
:101A53001210C000B5031210C065B6031210C0E522
:101A6300B7031210C026BA031210C054BA031210DF
:101A7300C080BA031210C089BA031210C0E6BA03B9
:101A83001210C07FBB031210C096BE031210C01CFD
:101A9300BF031210C0C3D1041210C0DBD104121053
:101AA300C0E5D1041210C03BD2041210C0E49B0461
:101AB3001210C0FA9B041210C09B9C041210C0DACF
:101AC3009C041210C0F79C041210C0289D0412102D
:101AD300C0759D041210C0A99D041210C0E49D049A
:101AE3001210C0E19F041210C047A0041210C000DE
:101AF300FF021210C05FFF021210C09DFF021210FE
:101B0300C0DEFF021210C0B2D4041210C0B9A50285
:101B13001210C0C5A5021210C027A6021210C031B0
:101B2300A6021210C0BEA6021210C0FAA60212101C
:101B3300C0AFA7021210C00EA8021210C0B3A802B1
:101B43001210C031A9021210C0FDAA021210C0580F
:101B5300AD021210C0C0AE021210C06CAF02121060
:101B6300C042B4021210C037B5021210C0CFB50282
:101B73001210C0F4B5021210C0A2B6021210C0C0F7
:101B8300B6021210C02EB7021210C04DB7021210C7
:101B9300C07AB7021210C018B9021210C039B902C4
:101BA3001210C0DFB9021210C027BA021210C09B74
:101BB300BA021210C029BB021210C086BB02121057
:101BC300C0FFBB021210C07BBD021210C0DFBF02F8
:101BD3001210C068C0021210C096C0021210C0F7E3
:101BE30086041210C08887041210C0EB88041210F8
:101BF300C00F89041210C01489041210C0258B046D
:101C03001210C0478B041210C0698B041210C0AFAE
:101C13008C041210C0B5A7041210C074A8041210CB
:101C2300C0DAA8041210C089A9041210C02F9603A9
:101C33001210C05E96031210C0D696031210C0E5B0
:101C430097031210C04198031210C0AE99031210EB
:101C5300C0CA99031210C01C9A031210C05F9A03E2
:101C63001210C0729A031210C0CA9A031210C08CC9
:101C73009B031210C0089C031210C03F9C03121058
:101C8300C0779C031210C0099E031210C0E89E0384
:101C93001210C036A0031210C019A1031210C0A560
:101CA300A1031210C0E5A1031210C004A203121075
:101CB300C04FA2031210C06FA2031210C008A303E7
:101CC3001210C08EA3031210C0E9A3031210C0297F
:101CD300A4031210C0BFA6031210C0D8A70312108A
:101CE300C01EA8031210C013A9031210C03BA903FE
:101CF3001210C03EA9031210C048A9031210C064F9
:101D0300A9031210C0DEA9031210C017AA031210F0
:101D1300C043AA031210C06AAA031210C08EAA03FA
:101D23001210C0FFAA031210C012AB031210C0415D
:101D3300AB031210C07DD3041210C089D304121058
:101D4300C0BDD3041210C0F57F001210C000800381
:101D53001210C02380031210C07081031210C0B987
:101D630081031210C02582031210C0838203121054
:101D7300C08682031210C0D782031210C04C8303A3
:101D83001210C0D183031210C0D483031210C055A4
:101D930084031210C09684031210C08288031210A9
:101DA300C02C8A031210C07C8A031210C0038E0356
:101DB3001210C0368F031210C0B090031210C04D22
:101DC30091031210C03892031210C08D94031210A5
:101DD300C07BBF031210C025C0031210C090C00304
:101DE3001210C0ABC0031210C030C1031210C08A5E
:101DF300C1031210C0D1C1031210C038C2031210A4
:101E0300C0B7C3031210C0E6C4031210C06EC503EB
:101E13001210C077C7031210C024C8031210C0C821
:101E2300C8031210C099C9031210C054CB03121077
:101E3300C0ECCC031210C07FCD031210C0A5CE039B
:101E43001210C0C6C2021210C029C3021210C07100
:101E5300C3021210C086FE021210C010C402121078
:101E6300C06DC4021210C0A8C4021210C02AC50259
:101E73001210C084C5021210C002C7021210C08221
:101E8300C7021210C0DDC7021210C0F7C70212103A
:101E9300C018C8021210C072C8021210C0EECA02E3
:101EA3001210C00DCB021210C0FDCB021210C030B5
:101EB300CD021210C0AFCD021210C0EBCD02121032
:101EC300C05ACE021210C00FCF021210C0E7D002C8
:101ED3001210C0EED1021210C066D3021210C05C01
:101EE300D5021210C0D2D7021210C0ACD902121000
:101EF300C06DDA021210C0E5DA021210C0EAD40390
:101F03001210C0F3DB021210C042D3031210C056EA
:101F1300DD021210C020AE041210C077AF041210FD
:101F2300C036B0041210C09EB0041210C0FBAA0445
:101F33001210C016AB041210C05AAB041210C080AA
:101F4300AB041210C0A7AB041210C0BFAB04121035
:101F5300C061AC041210C076AC041210C099AD0479
:101F63001210C0A2AD041210C0ABAD041210C0B465
:101F7300AD041210C0BEAD041210C06A9704121053
:101F8300C0769B041210C07B9B041210C07D9B047F
:101F93001210C004C6041210C08BD5041210C01F47
:101FA3007D001210C03DCB041210C0F2D3041210F6
:101FB300C073C1041210C05FD5041210C054A00432
:101FC3001210C00080021210C03380021210C09F92
:101FD30080021210C03A81021210C0D7810212107F
:101FE300C01C82021210C03E82021210C05782022D
:101FF3001210C07D82021210C09F82021210C0DD37
:1020030082021210C02183021210C04383021210F5
:10201300C0A583021210C06C84021210C023850273
:102023001210C09585021210C06086021210C0B350
:1020330086021210C01987021210C05387021210B1
:10204300C0A587021210C01388021210C07E880236
:102053001210C08188021210C00289021210C099A6
:1020630089021210C0198A021210C0388A02121093
:10207300C09C8B021210C0A98B021210C0B58C0237
:102083001210C0C28C021210C0CB8C021210C0A35B
:102093008E021210C0BD8F021210C03690021210B1
:1020A300C0A890021210C0CA90021210C05E910222
:1020B3001210C03293021210C00997021210C01DF1
:1020C30097021210C02D97021210C03797021210F8
:1020D300C04097021210C04997021210C0539702D2
:1020E3001210C08097021210C0A997021210C0B438
:1020F30097021210C0D897021210C0FC9702121058
:10210300C06698021210C0AC98021210C0C998029F
:102113001210C04699021210C07D99021210C0BC61
:1021230099021210C0099A021210C08F9A0212105B
:10213300C05D9C021210C0E09C021210C0C49D023C
:102143001210C02BA0021210C084A0021210C0CE25
:10215300A0021210C029A2021210C05EA202121025
:10216300C0B0A2021210C065A3021210C014A402D0
:102173001210C051A4021210C0E6A4021210C052E1
:10218300A5021210C06230001210C0943000121069
:10219300C0C230001210C09832001210C078330051
:1021A3001210C0D033001210C00B35001210C057EC
:1021B30035001210C08038001210C0733B0012109B
:1021C300C0C33C001210C0593D001210C0653D0051
:1021D3001210C0973D001210C01A3F001210C0CB5E
:1021E30040001210C05F41001210C0A24100121043
:1021F300C02042001210C03D42001210C06D4200C8
:102203001210C0A242001210C07243001210C01B71
:1022130044001210C0A146001210C0C147001210A2
:10222300C0AC48001210C02E49001210C0624D000D
:102233001210C09F4D001210C0F74D001210C02A9B
:102243004E001210C0944E001210C0CA4E0012105D
:10225300C0554F001210C0AD4F001210C084500083
:102263001210C03D51001210C0D851001210C0E02E
:1022730054001210C0FC55001210C09F59001210D8
:10228300C0935A001210C0965A001210C0C55A00CB
:102293001210C0CB5C001210C0A45D001210C0E786
:1022A3005D001210C03D5F001210C07C5F00121071
:1022B300C00560001210C03960001210C0FE60003B
:1022C3001210C01663001210C08763001210C0C73B
:1022D30063001210C05564001210C077650012101D
:1022E300C03966001210C04068001210C058680060
:1022F3001210C06C68001210C0A468001210C0D283
:1023030068001210C0516A001210C0766B001210E0
:10231300C0D36B001210C0856C001210C0AC6C00EF
:102323001210C0736D001210C00B6E001210C0317A
:1023330070001210C06670001210C0C97000121035
:10234300C0F871001210C0A072001210C0D1720048
:102353001210C0E972001210C07873001210C02C62
:1023630076001210C00478001210C02078001210FA
:10237300C03C78001210C00A79001210C0FD7C0026
:102383001210C08182011210C0B382011210C0A2C8
:1023930086011210C0EE86011210C034870112109C
:1023A300C0D687011210C03288011210C07788018D
:1023B3001210C0BE89011210C0D28A011210C0C10E
:1023C3008E011210C0458F011210C05290011210DD
:1023D300C0AE90011210C09E92011210C01393015F
:1023E3001210C01D93011210C02A93011210C05580
:1023F30093011210C03C94011210C0E69401121014
:10240300C06495011210C08495011210C0AD9501EE
:102413001210C0CF95011210C02F98011210C0F5F1
:1024230098011210C03A99011210C0B79901121005
:10243300C0689A011210C09A9A011210C0E09A0162
:102443001210C01C9B011210C06C9B011210C0C063
:102453009B011210C0169C011210C0629C01121045
:10246300C0CF9C011210C04A9D011210C0159F01DC
:102473001210C015A0011210C03AA1011210C079A8
:10248300A4011210C08CA7011210C049A801121098
:10249300C08DA8011210C03DAA011210C051AA019B
:1024A3001210C05BAA011210C065AA011210C071FC
:1024B300AA011210C08DAA011210C038AB0112106C
:1024C300C077AB011210C081AB011210C08BAB01FE
:1024D3001210C0FBAB011210C046AC011210C05B5E
:1024E300AD011210C0B7AD011210C038AE01121009
:1024F300C0F7AE011210C000B0011210C034B10118
:102503001210C022B2011210C03AB2011210C095CB
:10251300B2011210C0B3B2011210C0FBB20112100B
:10252300C022B3011210C0BDB3011210C083B401A5
:102533001210C015B5011210C08FB5011210C0A939
:10254300B6011210C056B7011210C07EB8011210A6
:10255300C0CEB8011210C032B9011210C094B90133
:102563001210C0C2B9011210C0E6B9011210C01B8B
:10257300BA011210C04CBA011210C07FBA01121076
:10258300C09FBA011210C007BB011210C0FBBB01F0
:102593001210C056BC011210C07FBC011210C0073C
:1025A300BD011210C08ABD011210C0B5BD011210C9
:1025B300C09ABE011210C0B8DD031210C0F0DD03D3
:1025C3001210C011DE031210C053DE031210C0B587
:1025D300DE031210C0BFDE031210C0CFDE031210E1
:1025E300C00ADF031210C0EAE2031210C0D7E403EB
:1025F3001210C0BDE6031210C054E7031210C0F658
:10260300E7031210C09CC0011210C01AC1011210BE
:10261300C076C1011210C0C1C1011210C0DCC101DA
:102623001210C007C2011210C024C2011210C03020
:10263300C2011210C0C7C3011210C0E0C3011210BF
:10264300C065C4011210C078C4011210C097C40140
:102653001210C03BC5011210C0BCC6011210C06FDE
:10266300C8011210C005C9011210C008C901121017
:10267300C078C9011210C096C9011210C02DCA0139
:102683001210C075CA011210C078CA011210C03EE0
:10269300CB011210C0ABCB011210C0D1CB01121071
:1026A300C05CCC011210C07ACC011210C0C0CC01A6
:1026B3001210C074CD011210C0BECD011210C0EDB6
:1026C300CD011210C04ACE011210C07FCE011210EC
:1026D300C0ABCE011210C0B9CE011210C006CF019B
:1026E3001210C076CF011210C0BFCF011210C00B61
:1026F300D0011210C037D0011210C042D001121005
:10270300C060D0011210C04BD1011210C055D101CD
:102713001210C090D1011210C0A0D1011210C0A993
:10272300D1011210C0FDD1011210C011D20112103B
:10273300C040D3011210C057D3011210C06CD30193
:102743001210C0FAD3011210C03FD4011210C0CB33
:10275300D4011210C0D6D4011210C018D601121021
:10276300C033D6011210C07FD6011210C0EED601BD
:102773001210C027D7011210C041D7011210C08315
:10278300D7011210C053DA011210C000DB0112107E
:10279300C06DDB011210C0ADDD011210C0C5DD013B
:1027A3001210C0C8DD011210C0D4DD011210C0E840
:1027B300DD011210C0F0DD011210C023DE01121082
:1027C300C025DF011210C0ACDF011210C01CE001F4
:1027D3001210C09EE0011210C05FE1011210C07E12
:1027E300E1011210C01FE2011210C07CE2011210BD
:1027F300C07FE2011210C0ACE2011210C0C1E201BD
:102803001210C035E3011210C084E4011210C08A13
:10281300E5011210C015E6011210C030E7011210D5
:10282300C0F8E7011210C029E8011210C04CE801FA
:102833001210C055E8011210C084E8011210C01430
:10284300E9011210C0CAE9011210C03FEA011210D7
:10285300C0E6EA011210C05BEB011210C092EB015B
:102863001210C0D0EB011210C006EC011210C02FE1
:10287300FE021210C09DFC021210C0EFFB021210E8
:10288300C0E5FB021210C07EFB021210C06AFB02FD
:102893001210C0C7FA021210C0C7F9021210C0E02A
:1028A300F8021210C0D0F6021210C0DEF5021210A8
:1028B300C058D4031210C00CD4031210C07CF5020C
:1028C3001210C062F5021210C026D3031210C0FF0B
:1028D300D0031210C0F7F4021210C02BF30212102F
:1028E300C0E9F2021210C0EDF1021210C0C1F102F0
:1028F3001210C078F1021210C0B9F0021210C0BB5E
:10290300ED021210C08DEB021210C05AEB0212102E
:10291300C001EB021210C094EA021210C053EA0283
:102923001210C08CE9021210C026E9021210C0C5B1
:10293300E8021210C065E8021210C03CE702121050
:10294300C0D0E6021210C028E6021210C023E6022D
:102953001210C017E6021210C04AE2021210C0247D
:10296300E2021210C0C1D0031210C093D0031210A0
:10297300C060D0031210C0E4CF031210C04FBE04D6
:102983001210C0ADBD041210C05ABD041210C0C253
:10299300E1021210C063E1021210C024E10212101E
:1029A300C011E1021210C026BD041210C006E102DC
:1029B3001210C0D5E0021210C0F1DE021210C06482
:1029C300DE021210C0FCDA021210C020DE02121066
:1029D300C087D3031210C0F9DD021210C053F303F2
:1029E3001210C026F3031210C0F3F2031210C0CB6F
:1029F300F2031210C06CF2031210C04CF203121057
:102A0300C017F2031210C0C3EE031210C0ABEC03E5
:102A13001210C095EA031210C015EA031210C0C1C8
:102A2300E9031210C075E9031210C0E7DC021210AB
:102A3300C0BAFE021210C0CDE8031210C0B5C30223
:102A430000000080FB8F000100AE1887000100AC7E
:102A530018350004007518250002007918260002B5
:102A6300007B18270002007D182800010087182921
:102A7300000100881884000400E2158600010002AA
:102A8300182A00010089182B0001008A182C000164
:102A9300008E182D000800EE152E0001008F182F50
:102AA30000010090183000010091183100010092DC
:102AB3001832000100F61533000100F71534000148
:102AC30000931836000100F81538000100941839F6
:102AD3000001008D1883000200AA1863000100049E
:102AE30016640001008B18650001008C186D00014D
:102AF30000051671000800E61566000100A91843D9
:102B03000001009A18440002009B18450001009D33
:102B130018460002009E1847000800FC15480001F3
:102B230000A0184B000100A11804000100AD18A17A
:102B3300000100B11837000100B01888000100AF90
:102B4300183C000100F9153D0001009518490002E9
:102B530000A2186700010006164D000200A4184EDB
:102B6300000100A6184F000200A7183E00010099BB
:102B73001851000100FA1552000100971853000183
:102B830000981854000100FB15000000000000002D
:102B930001363601010001020100010301000104B5
:102BA30001060605020000070100340801000F09B1
:102BB3000401010D0100FF0E0800001702000019B7
:102BC3000100FF1A0100011B0100FE1C0100081D8A
:102BD3000200001F01000120010001210200002367
:102BE30001000F240200002601000127010008282C
:102BF3000200FF2A0100072B0102402C0100002DD7
:102C03000100012E0100012F0100FF30010B1D31D6
:102C13000800003A0100083B01000F3C0100013DA0
:102C23000100FF3E04000042040000460400004A85
:102C33000400004E04000052040000560400005A31
:102C43000400000000000020017B8200000100203E
:102C5300017D820000020020017F8200000300202A
:102C6300017C82000004004201178100000500423C
:102C730001E680000006004201F4800000070030F6
:102C8300018082000000404201F4800000FDFF212A
:102C93000179820100200020050A1801002100208B
:102CA300050B180100000221050C1802040000297D
:102CB30005CF14030400002905D1140304100029CF
:102CC30005D314030414002801531805040000213C
:102CD30005D514010371030103010301030103017A
:102CE3000322030203010310030003000300030094
:102CF300030003000300034203000324030603004D
:102D030003000304031203250323032503230304FE
:102D1300030403000300030003440300030003232D
:102D2300030003650321003503810300030503004A
:102D3300030003000300032503230303027102308E
:102D430001600211027002010202020202800210FB
:102D53000261023A0041006302730272026202439B
:102D630002000213023800000200020402120200F1
:102D73000200020002000204020402370037003C92
:102D8300024402000239000002000265020002351B
:102D93000281020002050282028302000201017124
:102DA3000101010101110101013101010101018051
:102DB30001100161013B00140063017301720162A0
:102DC3000143010001130106013D01350004011215
:102DD300010001000100010001040104013301337A
:102DE300013C01440132013600000100016501008C
:102DF3000135008101000105018201830100010306
:102E03000071003001600011007000310220035096
:102E1300048000100061000000140063007300725E
:102E230000620043000000130006000000000004DD
:102E3300001200000000000000000004000400373E
:102E43000037003C02440000000000000000006561
:102E53000000003500810000000500000083000031
:102E63000036000100060000000F00000000000013
:102E73000000000000000003FFFF00000403FFFF49
:102E83000000FFFF0FF4010005C40403200001004C
:102E9300000B000000000000000003010F00000011
:102EA300000000000000000000000000000000001F
:102EB300000000000000000000000000000000BB54
:102EC3001BD91BC11B2B1B000000000000000000CE
:102ED30000000000000000C71B2B1B00000000CDFA
:102EE3001B2B1B0000000000000000D31B2B1B004A
:102EF30000000000000000000000000000000000CF
:102F030000000000000000000000000000000000BE
:102F130000000000000000000000000000FB1D0195
:102F230000FB1D0200711D02806B1D0300771D0451
:102F3300007D1D0480831D0500891D0600951D313C
:102F430000A71D3300AD1D3400B31DFFFF000003B8
:102F53000003000400080010001F003E007B00F681
:102F630000EC01D703AF075D0FB91E713D000007E9
:102F7300ECFDFDFDECDCDCCCBCACAC9C9C8C7C7C2B
:102F83006C6C5C5C5C4C4C3C3C2C2C1C1C03EAF5D0
:102F9300E5D5D5C5B5A595958585757565655555EE
:102FA3004545353525251515050AFB2302C523059A
:102FB300D12307CB230CAD230DB923FF000000164B
:102FC3000F00000B150B020002220F3300000E0F3F
:102FD3005A6967426565416C6C69616E6365303936
:102FE300D0D1D2D3D4D5D6D7D8D9DADBDCDDDEDF66
:102FF300303016181920231A1C1E3000034D4C467E
:1030030051181A250502000119161816161823035C
:1030130000303017181921301B1D1F30003C40426F
:103023003A3F3F392F47300C0E020B040B0A0708B7
:10303300000F020402010101010902E8030000007C
:10304300BE040A01001A000300E803040912030581
:103053000A030A0C041E0828020C0508151E14C0D6
:1030630082C083122977901631749DF0A37421F0E6
:1030730090163374A3F0A37421F090163574A9F05D
:10308300A37421F090163774AFF0A37421F0025D9E
:103093009D74F7120AFF901625E4F0E9901624F0C8
:1030A3007CFC7D157A267B16121B019018A0E090FC
:1030B300162EF090162F74E6F0A3741502402A74AE
:1030C300F0120AFFEAFEEBFF5480700302323390E2
:1030D30016241240BF700302322CEA241B12592A11
:1030E300707CEA241F12592A64137002A3E0706EE5
:1030F3008A828B8312328190163F124EBC750A006E
:10310300750B00800D123F00126F9C121A05AA0E58
:10311300AB0FEA4B60488A828B83E0650C7004A393
:10312300E0650D702C8A828B83A3A3A3A3E0F50E25
:10313300A3E0F50FE50A450B8A828B83A3A3A3A320
:1031430060C3124202850A82850B83A3A3A3A380D3
:10315300B78A0A8B0B8A828B83124EB880B4E50838
:10316300242A12592AFCE5082402F8E43509F9E86F
:10317300FAE9FB90163F123368A3A3E06402703CA4
:103183008A828B83124EBC800B88828983A3A3A37C
:10319300A3124202E849601F88828983E06A7003B0
:1031A300A3E06B70E488828983A3A3E06C70DA9058
:1031B30018A6125C5A806BECF91221D98508828516
:1031C3000983E06401704FE508241812326A121172
:1031D30034126544120EE7E508241212326A121102
:1031E30034E5081240B3121130E508240B12654888
:1031F300120EEBE5082417124050E5082402FCE404
:103203003509FDE5082419FAE43509FB122A13747C
:103213000A12110D800CE064027007AA08AB0912B0
:1032230022B7AA08AB0912196FEEFAEF6480802D5A
:10323300EA5402600C9019057401F0EA6402FA8002
:1032430023EA5408601A1221D3EA4B700B901641FB
:1032530012641F7A08123277EE6408FAEFFB8004D7
:103263007A007B00026BCEF582E43509F583E0F545
:103273000A780A22FB901624E0F9121AD122A3A39A
:10328300E0F50CA3E0F50D227B00901624E0F91283
:103293001AC574042274F4120AFF8A088B098A82FD
:1032A3008B83A3A3A3124CB412405B38F583E024B1
:1032B30009FA126B66700302335B8A828B83740292
:1032C300124D29850882850983123368E8F0A3E942
:1032D3001267E08A828B83A3A3A3A3A3A3A3A3F070
:1032E300E5082403F8E4350912335D12405B3AF52F
:1032F30083E08E828B83A3A3A3A3F0EE2409FAE4D5
:103303003FFB8E828F83A3A3125F0CF5838882E039
:10331300A2E58E828F83A3A3A3A3A3500474018089
:1033230001E4F0E5082403F5828983124EBCEA1216
:10333300543D3BF583126B2D12112C12405A3B1254
:103343005FFE8E828F83A3A3127CDC12110DEEFA33
:10335300EFFB901624126BB38016F98882F583E095
:10336300FAA3E0CA22125059A3A322740212110D28
:103373007F04020E6274F2120AFF8A088B09ECFAC8
:10338300EDFB740E121422E0FC1228B18A0C8B0D93
:10339300AE0CAF0DEA4F6030AC08AD09121F09E95E
:1033A3006026AC08AD09EEFAEFFB1229D1E97014DF
:1033B3008E828F831241EFFAEFFB1228C9AA08AB62
:1033C300091214537900800279B4024FA874F012E1
:1033D3000AFF74F61211BCEAFEEBFF8C088D097527
:1033E3000FB3852182852283E4F0750E00800205E8
:1033F3000E903061E493F8E50EC39840030234F76E
:10340300AA0E7B001214778A0A8B0BEA4B60E08AC0
:10341300828B83A3A31234FE28F0F8C3EE98EF94B3
:103423000050CC7C157D007900AA08AB091219570E
:10343300850A82850B83A3A3A3A3126FD9E0F8EEB9
:10344300C3982925E0F8E433F9E50A28F582E50B6A
:1034530039F583A3A3A3A3A3A3124065A3125A819F
:103463008A0C8B0DAC0CAD0DAA08AB09121B0185A0
:103473000A82850B83A3E06401700A126544740118
:1034830012407780447401121186850A82850B836A
:10349300124EBA12145FE9603D7409121422E0C09F
:1034A300E0126544D0E0F07409121422E064037062
:1034B300137401121186E508240BFAE43509FB1293
:1034C3001B0180127401121422124202E508125ADF
:1034D300673509126F9A850A82850B83126550122C
:1034E3004077A3A3E0C0E0E5082414126548D0E0C8
:1034F300F0750F00A90F740A026BCBA3A3A3E0F826
:10350300852182852283E02274F7120AFFE9FE8A6D
:10351300828B83A3A3A3A3A3A3E0540860338A826B
:103523008B83A3A3A3A3A3A3E0540260218A828B6A
:1035330083A3A3A3A3A3A3A3A3A3E06406600F741D
:10354300E96E600A74CD6E600574F06E700312212B
:10355300BB0248A774F0120AFF74EF1211BC740F78
:103563001214221263037408121422E9F0ECFEED24
:10357300FF740512142212466F124893A3E0F91246
:1035830014477406121422126303740612142212CF
:1035930054CE700302381212409FE0FA74061214DC
:1035A30022E0F91220FB123872F8A3E0F9E849701F
:1035B30003023812EE2403F50AE43FF50BEE24066A
:1035C300F508E43FF5097C00850882F583124EBCBB
:1035D300850A82850B83E0F912144D7403121422B9
:1035E300126303850A82850B83E0C0E0852182850F
:1035F300228312386BD0E01255E3F98521828522AC
:1036030083123F07125135123501FAA3E0CA24078A
:10361300F582E43AF583E8F0A3E412630E2406F599
:1036230082E438F583E4126FA6124CA812112CEE33
:1036330012405B3F125FFE7403121422124CB42437
:1036430009127CD612110D7429121422126FD3128F
:1036530033621255F63A126F9A742B121422E0C099
:10366300E0852182852283125495D0E0F074021202
:103673001422E4F0742512142278081213AF0237CF
:10368300697403121422125FC68882F58312385AB2
:10369300A3A3A3125A8CFB121465850E82850F8394
:1036A300A3EAF0A3EBF0740312142212386BA312F3
:1036B300385A125C9BA2E6500F850E82850F83A3B6
:1036C300A3A3A3A3E0D2E1F07405121422E0706B6C
:1036D300850E82850F83A312420290167FE06870E5
:1036E30003A3E0697055850E82850F83A3A3A312FC
:1036F300403A750C00780C121134780812112874B2
:1037030029121422E0F50C780C12113474271214C8
:1037130022120EEB90168C120EEB79007419121410
:1037230022124E8C1222FF740A12110D850E82850D
:103733000F83A3A3A3A3A3E04405F07402121422EE
:10374300E004FC8E828F83124EB68E828F83A3A3F6
:10375300A3E0F912144D74031214221263037402CA
:10376300121422E004F074031214221254CE606780
:103773007402121422E0FA7406121422124202C3D3
:10378300EA98E49950517402121422123B448521A1
:1037930082852283E028F8A3E039F9E8240FF50EA7
:1037A300E439F50F850E82F583E4F07403121422D5
:1037B300123865640160030236847405121422749E
:1037C30001126BB9F07403121422125D8D123B6760
:1037D300E8F0A3E90236A8852182852283124EBC34
:1037E300122101852182852283120EEB7426121485
:1037F30022E0FD7425121422E0FC740A121422E064
:10380300F9EEFAEFFB1221B5740212110D80438E0B
:10381300828F83A3A3A3E0C0E0740C121422D0E030
:10382300F0126A22E0C0E0740D121422D0E0F074AA
:10383300061214221254CE7009740E12142274B993
:103843008007740E1214227410F0740912117E1280
:1038530022F97411026BCBE0850E82850F83A3A33B
:10386300A322E01255BBE022E01255BBA3A322859D
:103873002182852283EAF0A3EB1254D72274F0123B
:103883000AFF74E11211BC7404121422E9F07403E8
:10389300121422ECF07402121422EDF08A0E8B0F34
:1038A300742F121422123283AA0CFB1220EF74011C
:1038B300121422E9F0AA0CAB0D1220F574011214B4
:1038C30022E07003023B3F852182852283E4801539
:1038D3008E828F83A3A3A3A3A3E0D2E3F0852182E7
:1038E300852283E004126B11F8852182852283E00F
:1038F300C3984003023B367401121422E0700302A2
:103903003B36852182852283123B44E50C28F8E56A
:103913000D39F9E8240FFEE439FF8E82F583A3A362
:10392300A3A3A3E0A2E040B5750800750A08750BD0
:10393300007402121422E060037508207C087D00E5
:103943007900740512117E1219578E828F83E060FD
:103953003E9016CFE06401701AE508D2E3F50875CE
:103963000B10123B54121422E8F0A3E912597F748E
:10397300FF807643080C750A0C8E828F83A3123B5B
:103983005F126F9C740512142274FFF0A3805A74A3
:1039930004121422E06009E508D2E6F508750A0A64
:1039A3008E828F83A3E064FE7003A3E0F47030740F
:1039B30012121422740412656EF8741D121422E894
:1039C300124D29741212117E12201D7D007C007984
:1039D300007415121422AA82AB83121DE3800B120A
:1039E3003B54121422E8F0A3E9F07407121422E501
:1039F30008F0124096C0E07409121422D0E0F0746B
:103A03000A1214227401F0740512117E1222BD747D
:103A130011121422E06003023B14740D12142212DB
:103A230055DE8E828F83A3A3A3A3F0740D121422F9
:103A3300124CF7E50AF0A3E50BF07403121422E02D
:103A4300C0E0124C88D0E0125C9B60119016CFE06E
:103A5300C0E0740D121422124CD2D0E0F0740D1297
:103A63001422124202850C82850D83A3A3A3A3A370
:103A7300123B4D241C1262FD126FB6123B4F125CB7
:103A83004D39126A41C0E0124C6FD0E0126B06C090
:103A9300E0740D1214221247B5D0E0126807C0E09B
:103AA300740D1214221247ABD0E0F0740D121422DD
:103AB300123B5F123B4D242A1262FD850E82850F55
:103AC30083A3A3A3A3A3A3A3A3E01262F612408537
:103AD300C0E0124797D0E0F0740D121422124EBCCE
:103AE300850E82850F83126B1C2428F582E43B121A
:103AF3006F9A12408E126B2D12112C125FF7EA127D
:103B0300628F3B127CDA12110D740512117E1222A0
:103B1300C38E828F83A3A3A3A3A3E0D2E0F0741187
:103B2300121422E060030238D37401121422E01449
:103B33000238DF7900AA0CAB0D1221C1741F026B8E
:103B4300CBE075F007A4F8A9F022A3A3124EC0E8B6
:103B5300228E828F83A3124206740522E0123B67F2
:103B6300A3A3A322F8A3E0F9850E82850F83A322E2
:103B730074F0120AFF74E81211BCE98521828522D0
:103B830083F08A0E8B0F8A828B83A3A3A3A3A3A3A1
:103B9300A3A3E0F91221198A088B09EA4B700302E7
:103BA3003C50E50E1254511240AE1240458521821D
:103BB300852283E06003023C537C04850E82850FDB
:103BC30083A3A3A3A3A3A3A3A3E0F912211FEE4FEF
:103BD300607B8E828F83A3A3A3A312420274071276
:103BE30014221264341242027409121422124D591F
:103BF300C0E07411121422D0E01267E5A3A3A3A3BB
:103C0300A3A3A3124202740F121422126F9C741204
:103C1300121422E4126BC1C8241FF582E438F58321
:103C2300125FC2C413135403FC70027C048E828F90
:103C330083E0F97808121130742059FD744059F962
:103C4300740312117E1221B5740212110D026BC995
:103C53007C08850E82850F83A3A3A3A3A3A3A3A399
:103C6300E0F912211F8B0BEA4B7003023BD1EE4F9D
:103C730060DB852182852283E0F50C780C121134F8
:103C8300850882850983A3A3A3A3A3A3A3E0F50CBB
:103C9300780C1211348A828B83A3A3A3E0FB8A825C
:103CA300850B831277F98A82850B83E0FA8E828FE4
:103CB30083A3A3E0F9122A19740212110D023BD552
:103CC30074F7120AFF74FA1211BCE9FE7801790144
:103CD3007F00800379000F125038E0FCEFC39C5043
:103CE30026EF75F007A4FC85F008AD08EA2CFCEB81
:103CF3003DFD124627E0A2E050DA540C60D6E0A264
:103D0300E250D3780080CF8A828B83A3A3A3A3A39B
:103D1300A3E0703DE9A2E0400574016E70338A822E
:103D23008B83A3A3A3A3A3A37401124017E0C0E052
:103D33007403121422D0E0124686E0C0E074041229
:103D43001422D0E0F07405121422E8125F611222EB
:103D5300F974060248A4C082C08379011221C1020A
:103D63005D9D74F4120AFFEA4B9019056019E4F0A3
:103D73008A088B09F50AF50B78081211287A0212C2
:103D8300328B12110D800A7401F07A027B00123219
:103D93007802337374F0120AFF74F31211BC7403C4
:103DA300121422E4F0A3F090163F1240457401125E
:103DB3001422E4F0A3124D2E04F0901679E0A2E34E
:103DC3005003023E8A12400B74091214221213F399
:103DD300740912142278081213AF9016417808124E
:103DE300118E74051214227808121391123F0E7467
:103DF30005121422780812135250077A017B00022D
:103E03003EFB7405121422780C1213AF9018A5E030
:103E1300F509780C7908120A90A80CA90D9018A638
:103E2300E0C398E4995003E08001E885218285226C
:103E330083F0740912142278081213AFC008C00962
:103E4300C00AC00B7405121422780C1213AF123F70
:103E53000E780C7908120A90E4F50AF50BD00FD00E
:103E63000ED00DD00C780C790812123990164178C7
:103E73000C1213918011123F00126F9CEEFAEFFBAC
:103E8300121A05AE08AF09EE4F60658E828F83125A
:103E930034FEC398502DEE2403F8E43FF9E0FA888A
:103EA300828983E0C39AF0602374031214221243BD
:103EB300687401121422EEF0A3EF12644FFEA3E024
:103EC300FF80C48E828F83A3A3A3E4F08E828F83AB
:103ED300127C9374011214221254CE8E828F83A308
:103EE300A3A3A36091126428121422123F078089AE
:103EF3007403121422124EBC740D026BCB124206D1
:103F030090163F22125FEDA3A3A3229018A4127C64
:103F13009BE4F50AF50B2274F0120AFF8A088B0959
:103F2300890A7800790090163F124045FBEE4B60FA
:103F33001E088E828F83A3A3A3A3124E866010084C
:103F4300E87001098E828F83124041EA4F70E3903B
:103F530018A7124EBCC3E89AE99B4003023FFE7ABE
:103F630006124001A80CA90DEA497003023FFE8A1C
:103F7300828B83E508F0A3E509124020E50AF0905F
:103F830018A6125040124017A3E4F0A3F090163F76
:103F9300124E86600D8E828F83A3A3A3A3126F9C00
:103FA300801790163F126F9C901679E0A2E34009A8
:103FB30012400B9016411213F3901679E0A2E350CE
:103FC3003A7A087B00901624E0F9121AD7EA4B4C90
:103FD3004D70289018A4E0F508A3E085080CF50DB2
:103FE300E4F50EF50F780C1211287A087B00901671
:103FF30024E0F9121ACB740412110D026BCE7B006C
:104003001219FF8A0C8B0D22121AE9EAF8EBF9EC6C
:10401300FAEDFB2212401B22124020A322F08A82D7
:104023008B83A3A322E508F00248A7F08E828F8337
:10403300A3A3A3A3A3A322125938A3A3F022A3A348
:10404300A3A3E0FEA3E0FF227F05020E62F582E454
:104053003509F583E0F922EA12405F222410F58244
:10406300E42212406DA3A3A3A32212420A8508826D
:104073008509832212407B22F0850A82850B83A364
:10408300A322E50E24111240ABE022E50E240E120A
:1040930040AB22E50E24101240ABE0221240A322D3
:1040A300EE12405F3FF58322F582E4350FF583225C
:1040B300240FF50AE43509F50B780A22E0F9121901
:1040C300818A088B09EA4B2274F2120AFF890B8A50
:1040D300088B098A828B83124EBC1221E5EA4B605E
:1040E3000479B8806A1221F1E9F8903052E493F927
:1040F300E8C399400479B280567A15124001AE0C98
:10410300AF0DEA4F7004791080458A828B83E4F007
:10411300A3124020E50BF0750A00780812112C7CDD
:10412300127D00EA2403126AD812110D901645126B
:1041330054CE7008901645800C12420288828983FF
:1041430012415570F4EEF0A3EFF01222037900024E
:104153004FA8124EC0EA4B8882898322C082C08353
:1041630090164580048C828D831277FAEC4D60287B
:104173008C828D83A3A3E069600574FF6970E68C6C
:10418300828D83A3A3A3E06A7003A3E06B70D6ECD4
:104193002403FAE43DFB80047A007B00025D9D74F6
:1041A300F7120AFFE9FD74FE6D70047C0180027C46
:1041B3000090164580096D70027C01888289831204
:1041C30054CE601F88828983A3A3A3E06A7003A3EC
:1041D300E06B70E7ECA2E088828983A3A3E050D66A
:1041E300F9800279FE0248A7EEF9800CA3A3127CA2
:1041F3009BEE22740212110D7F02020E62F58312EE
:1042030042062212420A22E0F8A3E0F92212420AED
:104213008E828F832212110D7F03020E62C082C031
:10422300837900901645800109E0FAA3E08A82F5BC
:1042330083E582458370F1025D9D74F6120AFFE403
:10424300F508F5097808121130903052E49375F0AF
:1042530013A4A9F012435D126FFA12110DE9FE7453
:10426300096E70031221FD0241EB74F6120AFF740A
:10427300FE1211BC852182852283E4F0A3F0A821DC
:10428300A92288088909780812113075080275096E
:10429300007808121130126C6B12110D0241F67482
:1042A300F5120AFF74EB1211BC852182852283E487
:1042B300F0A3F090164580748E828F83A3A3E0C091
:1042C300E07402121422D0E012597FA982AA8389D2
:1042D300088A09750A00780812112C7C127D007473
:1042E30006121422126FBF12110D74021211768876
:1042F30008890978081211307508137509007808C0
:10430300121130740412142212547175F013A4F8AC
:10431300AAF075F013E9124359126C7312110D854B
:1043230021828522831243688E828F83124045EE59
:104333004F7085A821A922880889097808121130AD
:104343007508027509007808121130126C6B12118E
:104353000D7415024218A42AF9E82402FCE439FD7D
:104363007A427B0022E02401F0A3E03400F02274BF
:10437300F4120AFF74EB1211BC7E007F00A821A97E
:10438300228808890978081211307508028E097885
:10439300081211307C007D007A4212700612110D52
:1043A300E9706C8E0880567402121176880A890BA4
:1043B300780A121130750A13750B00780A1211303E
:1043C300E50875F013A4F8AAF075F013E509124394
:1043D3005912700812110DE9701B7403121422AAEA
:1043E30082AB837402121422E0F91221DFE9700513
:1043F3000EEE70010F0508E508700205098521829C
:10440300852283124202C3E50898E509994098EE94
:10441300FAEFFB741502337074F6120AFF8C828D67
:1044230083A3A3124674F0EA1262953BF583E0C0BE
:10443300E0124631D0E0F0EA241DF582E43B12425B
:104443000012461512466FF0A3F0EA241FF582E42A
:104453003BF583124045EC1246083DF583EEF0A38D
:10446300EFF012460E3BF58312463FA3A3A3A3A38B
:10447300A3EEF0A3EF125EF0FE8C828D8312467ED4
:1044830074035EFEC3940340030245FBEE600874AD
:10449300026E60030245208C828D83E0540CFE740F
:1044A3000C6E700302455FE0A2E4400D88828983AD
:1044B300E08C828D83A312469474086E60030245D8
:1044C3005F12461F7401F08A828B83A3A3A3A3A365
:1044D30012594570148C828D83E0440C124686A3D6
:1044E300A312463FEEF0A3EFF08C828D83E0A2E4AB
:1044F300402B888212464D124662500109F5821202
:10450300464DA3A3A3A3A3A3F0A3EF12468E8C82CD
:104513008D83A3A3A3F0E82403F8500109888289BB
:1045230083E0C0E0EC2411F582E43DF583D0E01292
:10453300467E8C828D83E0A2E7507588828983E072
:10454300FE8C828D8312469474FC5E700C8C828D7B
:1045530083A3E054036403701E0245FB12461FE469
:10456300F0740C6E60030244CA88821246531246EA
:10457300625001090244EC8C828D83A3E0540360F2
:104583003288828983E0C0E0EC1246393DF583D05E
:10459300E01246958C828D83E05403640270148884
:1045A300828983E0C0E0124627D0E012469580035B
:1045B300A3E4F0EC12543D3D126F9AEC2410FEE498
:1045C3003DFFEA241DF582E43BF583E0F5088E8286
:1045D3008F83E0C3982508F508F0EA2417F8E43B35
:1045E300F98882F583E0C39508C0E0124615D0E050
:1045F300125EF0C39508500A124615E4F0124631D4
:10460300E4F00241FB2415F582E422EA240DF5824D
:10461300E422EC240DF582E43DF58322EC1255F6F9
:104623003DF58322EC2414F582E43DF58322EC125C
:10463300405F3DF583222413F582E422E0FEA3E0EC
:10464300FF8C828D83A3A3A3A322124653A3A32289
:104653008983E0F508A3E0FFE5088C828D8322A31C
:10466300A3A3A3F0A3EFF0E82402F822124674A355
:1046730022E4F08C828D83A3A3A32212469CA882FA
:10468300A9832212401BA3A3A3A32212469CA3E047
:1046930022A312469C08A98322125EF9A32274F472
:1046A300120AFF74F31211BC8A0A8B0BECFEEDFFA6
:1046B3008C82F583E0540CF508E0A2E75006E50888
:1046C300D2E7F508E508D2E1F5081259457006E589
:1046D30008D2E4F508E0A2E55006E508D2E5F508BE
:1046E3007C087D007900AA21AB22121957740212AB
:1046F3001422E508126FA0C0E07403121422D0E064
:10470300124D2EE50AF0A3E50BF0740512142212E4
:10471300680C121422E070777408121422124CB43D
:10472300125EE238126827C0E0740812142212479E
:10473300B5D0E0126807C0E074081214221247AB28
:10474300D0E0F074081214221247A1E0124CDC12DC
:104753004D5D1262F6EE2411125911C0E012479713
:10476300D0E0F0EE2414125911C0E07408121422A0
:10477300124CB42435F582E438F583D0E0124D01B0
:10478300C0E07408121422124CB8D0E012656074B1
:104793000D023370E82432F582E439F583221242A4
:1047A30010A3A3A3A3A3A322124CC8126A0638F52D
:1047B3008322124CC82426F582E438F5832274F749
:1047C300120AFF7E008A828B83A3A3A3A3A3A3A3BE
:1047D300A3A3E0640460030248831255EEE0600380
:1047E3000248831254503B1254CC7003024883880E
:1047F300828983E054036003024883E81255F63943
:10480300F583E0FA8C828D83A3A3E0FBA3E0CB24A2
:1048130011F582E43BF583E06A706588828983A39E
:10482300A3A3A3A3A3A3A3A3124887E06A7003A32C
:10483300E06B704C88828983A3A3124893E0FFA3A3
:10484300E0CF24061259116A7003A3E06B7031881C
:10485300828983A3A3E0F88C828D83A3A3E0F9A3C9
:10486300E0F5838982A3A3E06860138C828D83A320
:10487300A3A3E0F5838982E0540C640470027E01F3
:10488300EEF9802012488B22124EC48C828D832233
:10489300A3A312488BA3A322740C121422E0F9746D
:1048A3000D12110D7F01020E6274F6120AFF74FCE1
:1048B3001211BCEAFEEBFFECFAEDFB8C82F583A34D
:1048C300E05403601690163B1254CE60597900EE03
:1048D300FCEFFD1260ED120CE1804B8521828522F5
:1048E30083EEF0A3EFF07402121422124D23AC21D5
:1048F300AD227A1B7B221224438A088B09A808A9BC
:1049030009EA4960218A828B83A3A3A3A3A3A3A358
:10491300A3A37406F07A0088828B83124CB41262CC
:10492300B6E0F91223A174040241F874F2120AFFEB
:1049330074F31211BCEAFEEBFF8A82F583A3A3A3EF
:10494300A3A3A3A3A3A3A3E0F50A901905E070050D
:1049530079BA024C6C750801750900750C00750D68
:10496300007C087D007900AA21AB22121957740537
:104973001214227401124D3654046012740212147C
:1049830022E0D2E6124D3654087003750803E05452
:1049930010600674404508F508E05408602274026C
:1049A300121422E044C0124D365420600A740312DC
:1049B3001422E0D2E080087403121422E0D2E1F062
:1049C300EE2415125911124C9C7003740169700680
:1049D30074084508F5088E828F83A3A3A3A3A3A31A
:1049E300A3A3E0701612249D85218285228312637E
:1049F300037402121422E0D2E28030640F70107448
:104A030002121422124D3E74044508F508807F8E6D
:104A1300828F83A3A3A3A3A3A3A3A3E064028E8291
:104A23008F83700A126FD3E8F0A3E9F08060A3A329
:104A3300A3A3A3A3A3A3E06403700DAC21AD22EE53
:104A4300FAEFFB12225180468E828F83A3A3A3A386
:104A5300A3A3A3A3E0640170359016CFE0601074A4
:104A630002121422124D3E750910750AFF80187444
:104A730002121422E0440C124D2E74FDF0A374FFB5
:104A8300F074044508F5088E828F83123283EE2476
:104A930015125911A2E0503F7402121422E0540C73
:104AA300701B8E828F83124EBC121EAFE970057984
:104AB300BB024C6C7402121422E0D2E5F0EE241512
:104AC300125911A2E050107402121422E0540C6423
:104AD300047004E0D2E5F0EE2411125911C0E07421
:104AE30004121422D0E012680E121422E0600302B2
:104AF3004C657408121422124CF7E508F0A3E5097B
:104B0300F0124C92E0C0E0124C88D0E0F0124C79E5
:104B1300E0C0E07408121422124CB412463938F57E
:104B230083D0E0124D5D640170119016CFE0C0E0B8
:104B33007408121422124CD2D0E0F074081214221A
:104B4300124CF2124C83FAE8241CF582E439F58303
:104B5300EA124D29EE2415FAE43FFB8A82F583120B
:104B630077FAE8125C4D39F583124D23EE241C12BB
:104B73005911C0E0124C6FD0E0125D93124C9C703F
:104B830003740169701374081214221255DEFAEECD
:104B9300241D125911F91221258E828F83A3A3A3F9
:104BA300A3A3A3A3A3A3E0C0E07408121422124793
:104BB300B5D0E0F074081214221247ABE50AF07482
:104BC300081214221254712428F582E439F583E57E
:104BD3000CF0A3E50D124D09124CDC12598A126236
:104BE300F6EE124C83C0E0E82433F582E439F58312
:104BF300D0E0F0EE241B125911C0E0740812142205
:104C0300124CB8D0E0F0EE241A125911C0E0740827
:104C1300121422124CB42432F582E438F583D0E026
:104C2300124D01124CA812112C126A0C1277FA744D
:104C33000B121422124CB4242F127CD612110DEE37
:104C430024151259115440601290165B1254CE6011
:104C53000AAA21AB221260ED120CE1AA21AB2212A7
:104C630022C3740C121422E0F9024FA3E82420F5A6
:104C730082E439F58322EE2419F582E43FF5832299
:104C8300126A1BE022E82412F582E439F58322EE4E
:104C93002418F582E43FF583225480F8A3E05401FD
:104CA300F974806822F508A3E0F509750A0078080D
:104CB30022124CC822124CC82434F582E438F583FE
:104CC30022A3A3A3A3124CCC22E0F8A3E0C8221290
:104CD3004CC812460838F58322FAA3E0FBE8242ADD
:104CE300F582E439F583EAF0A3EB22A3A3A3A3128D
:104CF3004206EE2212547512545539F58322F0EE12
:104D0300241312599222F0EE240D12599222E0FC40
:104D13008A828B83E02CFCA3E03400FD8A828B83A0
:104D2300ECF0A3EDF022F0A3E4F022F085218285DC
:104D3300228322F0EE241512599222E0D2E3F012DC
:104D43004D46228E828F8312420A852182852283D9
:104D5300E8F0A3E9F022E8F0A3E9126449E0227441
:104D6300F7120AFF8A828B83A3E0640170047E63D7
:104D730080027E648A828B83E060087905124D96F7
:104D830024F3FE901677E06007F9124D9624F2FEA5
:104D930002488312236BE9F8EEC3982274F6120AD1
:104DA300FF74FE1211BC852182852283126303E9FD
:104DB300FEECFAEDFB90053C1254CE6032A821A91B
:104DC300228808890978081211307D01740E1214A3
:104DD30022E0FCEEF990053C1262D7120CE174025A
:104DE30012110DEA4B60047900800679B2800279D2
:104DF300B60241F674F7120AFFE9FE901631125417
:104E0300CE601F7409121422E0F5087808121134D9
:104E1300EEF99016311262D7120CE1740112110DE2
:104E2300800279B60248A774F7120AFF8908ECFEDC
:104E3300EDFF79B5E508245E602014600624F86070
:104E430034803D90053E124E866035127017120C69
:104E5300E18E828F8312630380249016331277FAD4
:104E6300EC4D601CEEFCEFFD9016331262D7120C72
:104E7300E1E9F9800B90162F124E8C121B01790079
:104E83000248A7124EC0EA4B221277FEEEFAEFFB5E
:104E93002274F7120AFFE9FE79B574AB6E700B90BA
:104EA300162F124EBC121B0179000248A78E828F67
:104EB30083A3A3A3A3A3A3A3A3124EC022124EC4EE
:104EC30022E0FAA3E0FB2274F1120AFFEAFEEBFFF1
:104ED3008C0A8D0B75080190167FE06E7003A3E0BA
:104EE3006F700C124F97AA0AAB0B121B01805E1254
:104EF30024A3EE6A7002EF6B7009AA0AAB0B1224AB
:104F0300A9804AAC0AAD0BEEFAEFFB121FF9E9F5E3
:104F1300089018ACE0703612294DE97030E508703E
:104F23002C90164FE06E7003A3E06F7020EE4F607D
:104F33001C750C47750D16750E00780C12112C7C20
:104F4300087D00AA0AAB0B126FC312110DA9080248
:104F530078F674F2120AFFEAFEEBFF8C088D0975EE
:104F63000A01124F97EEFAEFFB121AFBE964017084
:104F73001190167F124202850882850983126F9C65
:104F8300800EAC08AD09EEFAEFFB121FFFE9F50A3C
:104F9300A90A80111224978A0C8B0DAC0CAD0D223B
:104FA300740D12110D7F06020E6274F6120AFFEAE7
:104FB300FEEBFF7A0D7B001219FFEA4B6062EE24D1
:104FC30024126CA0F0EE2425126CA0A312506512DB
:104FD3006CA6A3A3126A39125040F0EE12502612A7
:104FE3005055E8F0A3E912507C12504D126F9CEE1D
:104FF30012502F126AFCA3A3A3A3F0EE2433125979
:1050030011C0E0125038D0E012682B12504DA3A308
:10501300A3E8F0A3E9125074C0E01255EED0E0F01B
:105023000241FB242AF582E43FF58322242EF582F4
:10503300E43FF58322EA125A673BF5832212504478
:1050430022E08A828B83A3A3A322126B5BA3A3A375
:10505300A3221250592212420A8A828B83A3A3A34A
:10506300A322F012506A22EE2426F582E43FF58350
:1050730022F0EE243212599222F0EE242C1259928D
:105083002274F4120AFF74FE1211BCECFEEDFFEC65
:10509300241612591164057010EC2406FCE43FFD3C
:1050A30012224BE97003025130AC21AD22126D552F
:1050B300121EB58521828522831254CE606B8E82A7
:1050C3008F83E064017058E875F009A4F8AAF075BD
:1050D300F009E9A42AF974A628F8740339F9E8FA5F
:1050E300E9FB8882F58378081213AFEE1251D212CE
:1050F30013524027852182852283124CF212591FB5
:1051030012513578081213AF90820178081212D524
:105113008A828B837808121391800A79A28010EE19
:10512300240F126F967900800679A1800279C80254
:10513300336E124D53EE126A272274F2120AFF8A5B
:105143000C8B0DECFEEDFFEC12591FE4F0A3F09075
:1051530081FD78081213AFEC1251D21211D260679D
:10516300EC240E125918703478B3901676E0702838
:105173009016A8E064017020EC2411125911F91261
:1051830023538B09A909EE1254513F126301EA49D3
:1051930060047800800278A18808802EE0600464AF
:1051A30002700A12225DE9F5087007801DE06403AE
:1051B3007010EEFCEFFDAA0CAB0D121ED9E9F50839
:1051C30080087508A180037508A3A908024FA812D7
:1051D3006A2778082274F0120AFF74F51211BCEAE8
:1051E300FEEBFFEA240AFCE43F8C82F583127C97F2
:1051F30012545B74031211868A828B831260F7E95F
:1052030070030252C17401121186740312117E12CB
:105213001EB574011214221254CE70030252C1E857
:1052230075F009A4F8AAF075F009E9A42AF974A2A3
:1052330028FC740339FDE508240E126548E4F004E4
:10524300121422124202E5081254513509126F9AC0
:105253008C828D831213E7E508241212654812131A
:10526300F390820178081213AF8C828D8378081231
:1052730012E88C828D83780C1213AF90826D7808BC
:105283001213AF780C7908120A90E5084509450A0C
:10529300450B702A740112142212547175F009A47B
:1052A300F8AAF075F009E9A42AF974AA28F582741A
:1052B3000339F5837401F07A007B0812547E8E82E1
:1052C3008F83A3A3A3A3A3A3A3A3A3A3E02406FC65
:1052D300A3E03400FD8E828F831260F71268196099
:1052E3003EEE240A125443124CF77468124D29E817
:1052F30012543D39F5837402F09016611213E78C52
:10530300828D831262F0125EE23CF5831213F390F6
:10531300820178081213AF90166178081212E8120E
:1053230054B9705D90162F125469A3A3A3A3A3A32A
:10533300A3A3A3A3125F18121AFBE97010125ED67F
:1053430090162F125EE8700512681960348E828FF2
:1053530083A3A3A3A3A3A3A3A3A3A3125469124E3A
:10536300BC121EDFE960118E828F83A3A3A3A3A3C4
:10537300A31254A5E4F0A3F08E828F8312548BE41E
:10538300F01254B960030254388E828F83A3A3A30F
:10539300A3A3A3127C93901676E0600302542D908E
:1053A30016A8E06401600302542D750A3A750B00D8
:1053B300780A1211307402121176880A890B780A5E
:1053C30012113012729212110DE9705BE508240E6E
:1053D30012654874011254D3C0E0E5082411126524
:1053E30048D0E0F0E508240F126548743A124D29BD
:1053F30090165D1213E7E50824121265481213F3A1
:1054030090820178081213AF90165D78081212E8A3
:1054130090820178081213AF90165D78081211D2AA
:10542300700812547A800312545B1254B970061236
:105433005DD974A1F0740B026BCB240EF582E422C8
:10544300F8E43FF9E8FCE9FD8882F58322EA125487
:105453005522240FF582E422E5081254553509F547
:1054630083E4F0A3F0221277FE8E828F83221254FC
:10547300752212420AE8227A007B02901505E0F9B0
:105483001219AB228A828B83A3A3A3A3A3A3A3A3EF
:10549300A3A312549922124CCC240EF582E438F5BE
:1054A3008322A3A3A3A31254AD22124CCC240FF541
:1054B30082E438F583228E828F83A3A3A3A3A3A3BD
:1054C300124CC4240FF582E438F583125475492233
:1054D3001254D722F0852182852283E02274F612AA
:1054E3000AFFEAFEEBFF7A237B001219FFEE240A80
:1054F300F508E43FF5098508821263017C237D00EA
:1055030079001219578508828509831254CE7003D6
:105513000255A1EEFAEFFB1222691254B960748EA0
:10552300828F831255D464018E828F83A3A3A3A396
:10553300A3A370071255CA740E80211254CE7010A3
:10554300126819700B8E828F83A3A3E0A2E0500729
:105553001255C0740D80051255C0740512682B5482
:1055630003640170071255A87405800B901677E049
:10557300C0E01255A8D0E01255E3F5838882125992
:105583003E850882850983124CB412629538F583EF
:10559300E9800E85088285098312637A800312628B
:1055A300BDF00241FB8E828F83A3A3A3A3A3A3A376
:1055B300A3A3A31255BA22E01262DCA3228E828F28
:1055C30083A3A3A3A3A3A3124CC412629B38F583A2
:1055D30022A3A3A3A3A3A3A3A3A3A3125499E02247
:1055E3001255E722126D6AF8A3E022EA1255F63B40
:1055F300F58322240CF582E42274F1120AFF74E489
:105603001211BC8A0C8B0D8C088D097A237B001236
:1056130019FF8A0A8B0BAE0AAF0BEA4F70030258CD
:10562300F91262A1E508241512592A687003A3E050
:10563300698E828F837004740280027401F0E5081E
:10564300240DF8E43509F98882F583E0FAC3E49A76
:10565300FA95E0FB1259262AFAA3E03BFB8E828FD0
:1056630083A3A3A3A3125EFF8E828F83A3A3F0EE73
:105673002420F582E43FF583E4F0EE2421F582E46F
:105683003FF583E4F0EEFAEFFB12231D85088285D4
:10569300098312594570098E828F83A3740580068E
:1056A300901677125933F0EE2417F50AE43FF50B01
:1056B3008E828F8312593EE9850A82850B83F0EE31
:1056C3002416F8E43FF9E508240EFAE43509FB88CB
:1056D300828983124D11E5082410FAE43509FB850C
:1056E3000A82850B83E0FC88828983E0F88A828BB7
:1056F30083E0C398C39CF812597FF0EEFCEFFDAA38
:105703000CAB0D122263E9F50B8E828F83E06402EA
:105713007006125ED6125903E50B60030258F0754A
:105723000C00750D009018ACE064016005E06402A4
:10573300703F1259156008EE242112591870328EE9
:10574300828F83A3A3A31262C312594BEE241612B2
:105753005911125974FAE439FB124003EA4B6011F0
:10576300126B2512112C125959AA0C126FC3121164
:105773000DEEFAEFFB122329E9F50B9018ACE06468
:10578300016008E0640260030258E3E97003025811
:10579300E3E50C450D70030258F08003850E0B12F0
:1057A3005915600BEE242112591860030258E9853C
:1057B3000B0E850C08850D09750A00780812112C4B
:1057C3001259598E828F83A3A3A3A3127CDC1211D7
:1057D3000DEE2420125911600D12591E7468124DDA
:1057E30029EE24208015EE24211259116015125937
:1057F3001E7403F0A37401F0EE2421F582E43FF557
:1058030083E4F0EEFAEFFB122329E9F50B70907CA9
:10581300137D007900740912117E121957741A123C
:105823001422740112598A64687002A3E0704F8EC7
:10583300828F831254A5E06405600302579F7C089E
:1058430079FF8E828F83A3A3A3A3E0242A125F1B75
:105853001219E1E9700302579F7C087D0079FF74F8
:105863000112117E12195774011211867A007B00FE
:1058730079AB122245741912142274FC8015125943
:105883001EE064037004A3E0640170087419121429
:105893002274FFF0E4F508F5097808121130740258
:1058A3001211867413121422AA82AB83126400129B
:1058B300110D852182852283E0602B7409121176F4
:1058C300880889097808121130750813750900785A
:1058D300081211307C007D00126C7312110D8006CA
:1058E300E50C450D6007AA0CAB0D121A05EEFAEF95
:1058F300FB121A058003750B10A90B741C0278F3B5
:10590300EE2406FAE43FFB121B0122EE240C12598B
:105913009222EE2420125992640122EE1254553F32
:10592300F58322E508240EF582E43509F583E022A8
:10593300125938A322E08E828F8322A3E0F9122327
:105943006B22E0540364012212594F22E0FAE82A41
:10595300F8E43400F9228E828F83A3A3A31262C7D3
:1059630012594FEE2416125992125974FCE439FD60
:1059730022FAE82AF8E439F9E824042212598322A6
:1059830012683AA3A3A322F012598F22EE240FF533
:1059930082E43FF583E02279010210BD74F4120A18
:1059A300FFEAFEEBFF8A82F583A3A3A3A3A3A3A32A
:1059B300A3124CB42424F582E438F58312594570BC
:1059C3002E8A828B831255D47025125A6DE064059A
:1059D300701D125A6DA3E0F87401686005740668BF
:1059E3007007125487740280051254877403F0EA17
:1059F300240A12636E1262D7E4F0EA2408F8E43F43
:105A030012335D2431F582E43AF583E0C0E012708D
:105A13000EA3A3D0E0125A8CCA242EF582E43AF5E1
:105A230083E0C0E012700EA3A3A3D0E0125FB2C85C
:105A3300125A673812420012700E125A818A0A8B68
:105A43000BAC0AAD0B850882850983125F18121B04
:105A530001850882850983124EBC122329126369CA
:105A6300F0023373240BF582E4228A828B83A3A38F
:105A7300A3A3A3A3A3A3126800F583888222A3A3ED
:105A8300A3A3124D5312249722125EF4FAA3E02229
:105A930002599AC082C083901651746FF0A3742286
:105AA300F0901653747BF0A37422F0901655748112
:105AB300F0A37422F09016577475F0A37422F002C9
:105AC3005D9D74F4120AFFEA2408FEE43BFF8E8214
:105AD300F5831254711262ADE0F50874035508F5AD
:105AE30009125F13F8A3E08882F583E508F0A3A801
:105AF30082A983E5096009740265096003025BB248
:105B0300740C5508FC600A74086C600574046C70AE
:105B130026740265097006E508A2E4401A8A828B9E
:105B230083A3A3A3A3A3A3A3A3125CB8126A063DF2
:105B3300125C53A308A983740C6C701C125CB4240C
