:020000040000FA
:0600000002137202084227
:03002B000210D5EB
:03003300020F7148
:0300530002077130
:100083000207D301010000000000F8FF07FFFF0093
:10009300000504000000030001FFFFFFFF00142020
:1000A3004E00000020FD000206FFFF1E1900320073
:1000B300007701DF15E5150F1C00000000000000AC
:1000C300000000000000000000000000000000002D
:1000D300000000000000000000000000000000001D
:1000E300000000FF0104010C0002051081043581AA
:1000F300010400000715000000E8030000FFFF589B
:100103001588130000E8030000C800C800B801A068
:10011300BB0D00A0BB0D00020202070401071E0273
:10012300051E020A0A010108080103B80B02803EFA
:100133000102FEFFE8030A050001FFFF020A0114A2
:1001430001E00100B0423BAAB83F0000003F8C90A1
:100153006339AA0CA33A00941E3C8042633DCFFE50
:10016300753E1572313F0000803FF304353F8096A2
:10017300184B000080BF2292D43EDD9B2A3F04002F
:100183000040FFFF7F7FFFFF7FFF01008034187275
:10019300313F050301010F030003000300030003C4
:1001A30000030003000300030005000A00140028F5
:1001B300004F009E0000004A2D00000000E22C00CA
:1001C300000000FF000000FF001213A0604612139E
:1001D300BE603DE9687008F618F618F618F6227442
:1001E3008067F7120200090909748067F722121366
:1001F300BE601D1213A07005191919801A12124D31
:10020300701F121261C37003E6673319191940078F
:100213001818182208080874FFF618F618F618F6C6
:1002230022121261601712142C702192F0121435ED
:100233007019501720F014080808090909E7F6187F
:1002430019E7F61819E7F61819E7F62212143560BC
:10025300E6E869701F0808E62480F608E436F61815
:10026300547FB47F0CE654806007F6E418F618F662
:1002730022181822E9C6CC08C6CD08C6CE08C6CFB8
:10028300C0E0E8C0E0EAC0E0EBC0E009E9F809E754
:10029300FA09E7FBE6F918E6F8C3EC98ED99EE9A4C
:1002A300EBC2E7F5F0EFC2E795F0500E600CEBCF31
:1002B300FBEACEFAE9CDF9E8CCF8EAA2E7D2E7FA0D
:1002C300EB33FB13F5F0EEA2E7D2E7FEEF33FFC506
:1002D300F013A2E730E601B313C5F0C3C0E0C0F0EA
:1002E3007F00C39BFB605E9418600F401D14601A6F
:1002F300D0E023F9D0E0F80203D28AF0E9486003A2
:10030300D2F0E4AFF0FAF9F8803BEB30E40D89F07A
:10031300EA6003D2F0E4AFF0F9CAF8EB30E30D88FA
:10032300F0EF6002D2F0AFF0E4CAC9F8EB54076013
:1003330014FBC3EA13FAE913F9E813F8EF135002B5
:10034300D2E0FFDBEDD0E0C0E030E739C3E49FFF4C
:10035300F5F0EC98FC42F0ED99FD42F0EE9AFE4286
:10036300F0D0E0F9D0E0F8E5F0607AE923F9EE2087
:10037300E742D8028067C3EF33FFEC33FCED33FD74
:10038300EE33FE80EAEC28FCED39FDEE3AFED0E0D8
:1003930023F9D0E0F84002801BC3EE13FEED13FDFA
:1003A300EC13FCEF135002D2E0FF08B800067F7F86
:1003B30074FF802EEF3350178CF020F00260100C86
:1003C300BC000C0DBD00080EBE000408E860DFE9A8
:1003D30033E813FFEE2313FE4F4D4C8008E954809E
:1003E300FFE4FEFDFCEE33EF33F47004FCFD7E808E
:1003F300D0E0FBD0E0FAD0E0F8D0E0CFC618CEC60C
:1004030018CDC618CCC6F9221213BE7004181818DA
:10041300221213A0700D74FFF61819F61819F618A6
:1004230019F622E7548066F6121435700F12142C55
:1004330070F014F608F608F608F680D112142C7042
:100443000CF608F608768008E6447F80EC12126406
:10045300700C12125060BFE65480F6E480BB121297
:1004630050700519191980A5E869700C763F187644
:100473008018F618F6E8F922E6CDC0E018ECC0E0E3
:10048300E633CD33CDD313F6E719FCE7191933CC93
:1004930033C3947F400ECD9D502408E65480F6E488
:1004A30018F6800FF4043D14501408E6447FF61840
:1004B3007680E418F618F6D0E0FCD0E0FD22CCD329
:1004C30013CCFD18E4C6CBC0E018E4C6CAC0E008EC
:1004D30008ED08C633E613F618E433C675F003C314
:1004E300CA97CA09CB97CB199C40047D08802EBDBF
:1004F30000030205B416B6FF050606081618C3CA9C
:1005030033CACB33CB33CA27CA09CB37CB193CC346
:100513007D08803E187D0820E75CC633C6CA33CA0F
:10052300CB33CB33DDF1D5F0EB30E77BCA97CA0988
:10053300CB974ACB199C406F4B7025E620E0218076
:1005430066187D08C3CA97CA09CB97CB199CD3C633
:1005530033C6CA33CACB33CB3350C9DDE7D5F0E159
:10056300D3E4C636C608C636C608C636C608C63677
:10057300C61818188031C3CA97CA09CB97CB199CE0
:10058300B34097C633C6CA33CACB33CB33DD34D576
:10059300F02EC6A2E0C640C8CA27CA09CB37194AFB
:1005A30070BECB3CB480B90808E63308E633601F5D
:1005B300181818D0E0FAD0E0FBD0E0FCD0E0FD2220
:1005C300187D08CA27CA09CB37CB193CD3808013BF
:1005D300F618E4B67F11F618B6FF0EF618C60470C7
:1005E300D20808768080CAF618F618F680C500127D
:1005F30013BE604F1213A06012E7548066F6121206
:100603004D701112142C703B090909F4F618F618F1
:10061300F618F622121261701512143508080860D4
:10062300EAE6447FF618768018E4F618F6221214E8
:1006330035601612142C7012E4F608F608F608E674
:100643005480F609090918181822EAC0E0EBC0E043
:10065300ECC0E0EDC0E0E687F0A4FBACF008E68771
:10066300F0A42CFCE435F0FA1809E687F0A42C4B2F
:1006730060027401CA35F0FCE433FB09E687F0D26B
:10068300F7A42CCB35F0FC1908E687F0A42BCC3566
:10069300F0FBE433FD0819E687F0D2E7A42C4ACB3C
:1006A30035F0CD3400FC09E687F0D2E7A42DCC3534
:1006B300F0FDE433FA0918E687F0D2F7A42CCD3520
:1006C300F0CA3400FC08E687F0D2E7D2F7A42ACCBC
:1006D30035F07A7E20E70B0ACB33CBCD33CDCC3349
:1006E300CC33CB3350147004ED30E00ED2F1E4CDB3
:1006F3003DCDCC3CCC3B5005DA05C2F1EB547FC673
:100703003308E63392F0FBE73309E733C39A502DFE
:100713002B70190C0D4C4D70151806E608C3337079
:100723000D20F10AA2F013F6E418800B4024E4F63E
:1007330030F002768018F618F618F68024D33B14AE
:10074300501074FFA2F013F6187680E418F618F62A
:10075300800FA2F013F618E63303F618ECF618ED43
:10076300F6D0E0FDD0E0FCD0E0FBD0E0FA22C0E020
:1007730074F1120BD3A2AFE433F509D2AF85A70806
:10078300AFA1EF5508FE74105E60061216A575A1A1
:10079300EF74085E60081216AB75A1F78024EFA210
:1007A300E092F0E508A2E082F05017906198E0F83B
:1007B300900586E0C398A2D265D0335002E8F07565
:1007C300A1FE752300E509A2E092AF7F02020C327D
:1007D300C0E074F2120BD3A2AFE433FED2AF906148
:1007E300A4E0F8759B00E59158540860087591F7EB
:1007F3001216F98023E59158541060087591EF1291
:1008030016FF8014E591A2E092F0E8A2E082F05096
:1008130007E0C2E0F01218619061A3E0F8E5E9583F
:100823005404600E12183775E9FB906193E0A2E659
:1008330040F2752300EEA2E092AF7F01020C32C0BA
:10084300E074F2120BD3A2AFE433FED2AF9061A5F2
:10085300E0F8E5BF585404600675BFFB12187980B1
:10086300D11208AF30F0391208F480341208AF20E7
:10087300F01430E72B74FFFCFBFA747F8022E4FC56
:10088300FBFA7480801AB48008BC00F2BB00EF80CE
:100893000F50EBF9E4C39AFAE49BFBE49CFCE49964
:1008A300C6CC18C6CB18C6CA18C6F922E4C9C608EE
:1008B300CAC608CBC6D3330308CCC63392F0C3945D
:1008C3007F402E94184019C9B90704CACBCC2250D3
:1008D30025C309CA33CACB33CBCC33CC33D9F422A7
:1008E300F4600DC9CCC313CB13CBCA13CAD9F6CC4E
:1008F30022E4FCFBFA2214FCFBFA22C3E498F8E49A
:1009030099F912093F8026C3E49AFAE49BFBE92094
:10091300E7E912093FE498F8E499F922C3E498F867
:10092300E499F912093FE498F8E499F9C3E49AFACF
:10093300E49BFB22EB20E7CFE920E7E0B90010BB03
:100943000008E88AF084F8AAF022E4FBC8FA22EB54
:1009530070227B10C833C8C933C9335007C39AC345
:10096300DBF280069A50012ADBEAC833F4C8C933A4
:10097300F4C9FA2275F008E4C833C8C933C933C9C6
:100983009AC99B5004C92AC93BD5F0ECFBC833F480
:10099300C8E4C9FA22080808EAC0E0EBC0E086F020
:1009A300E7A4FA180986F0E7A42AFA180986F0E7FB
:1009B300A42AFA180986F0E7A42AFA1986F0E7A40C
:1009C300FBE5F02AFA190886F0E7A42BFBE5F03AD9
:1009D300FA190886F0E7A42BFBE5F03AFA18180990
:1009E30086F0E7A4C5F02BFBE43AFA1908E7C5F053
:1009F300C6A426F6E5F03BFBE43AFA1886F0E7A432
:100A0300F6E5F00826F6E43B08F6E43A08F6D0E00B
:100A1300FBD0E0FA22080808E630E711121225128B
:100A23000A30080808C64480C6181818221818186F
:100A3300E9799EC608CAC608CBC608CCC6C37020CF
:100A43007996CACBCC7019798ECBCC70137986CCBE
:100A5300700EF9802ACA33CACB33CBCC33CC3319CB
:100A630030E7F2CCCBCA3350147004EA30E00DE423
:100A7300CA3ACACB3BCBCC3CCC500209C3E913C620
:100A8300CC182313C6CB18C6CA18C6F922E4CFC0A4
:100A9300E0E4CEC0E0E4CDC0E0E4CCC0E075F020FB
:100AA300E626F608E633F608E633F608E633F618E4
:100AB3001818EC33FCED33FDEE33FEEF33FFC3ECDC
:100AC3009709ED9709EE9709EF97191919400FFF49
:100AD300EC97FC09ED97FD09EE97FE191906D5F081
:100AE300BFECF709EDF709EEF709EFF7191919D07C
:100AF300E0FCD0E0FDD0E0FED0E0FF222521C5825E
:100B0300C0E0E52234FFC583C0E0E521C39582241C
:100B1300F810AF088583228582218008858322858A
:100B23008221D2AFCEF0A3E520F0A37808E608F047
:100B3300A3DEFAEFF0A3E58124FAF8E608F0A3E6D2
:100B430008F0A3E608F0A30808E608F0A3E608F017
:100B5300A315811581D0E0FED0E0F815811581152C
:100B630081E8C0E0EEC0E022121417B90003020BC3
:100B7300BDE490050178F679138002F0A3D8FCD97F
:100B8300FA78239000867A01BA00028007E493A3DF
:100B9300F608DAF97AF67B179000877846790280AF
:100BA30015E493A3AD82AE838A828B83F0A3AA82DA
:100BB300AB838D828E83D8E9D9E77582427583C66C
:100BC30074041210B775824F75832A74001210B71C
:100BD300C0D02521C582C0E0E52234FFC583C0E033
:100BE300E521C3958224F310AF08858322858221F2
:100BF3008008858322858221D2AFC8F0A3E9F0A3C0
:100C0300EAF0A3EBF0A37908E709F0A3D8FAECF034
:100C1300A3EDF0A3EEF0A3EFF0A3D0E0F0A3D0E0B8
:100C2300F0A3D0E0F0A3E520F0A3E5F0F0A3228544
:100C33002283852182E0C0E0A3E0F9A3E0FAA3E0E8
:100C4300FBA37808E0F608A3DFFAE0FCA3E0FDA32A
:100C5300E0FEA3E0FFA3E0C0E0A3E0C0E0A3E0F573
:100C6300D0A3E0F520A3E0A3F5F010AF088583221D
:100C73008582218008858322858221D2AFD082D0CC
:100C830083D0E0F8D0E032121228181818120A9014
:100C930012132119191922121321191919080808F5
:100CA300E618181820E7E0120A90121228181818EC
:100CB30022090909E719191920E7DC080808E618C9
:100CC300181820E703020A90121228181818120A9B
:100CD3009012122818181812132119191922E473E3
:100CE3000575F0108E248F2585822985832885211B
:100CF30082852283E0CEA3E0CF852982852883EBFA
:100D0300C9EAC8EDCBECCAC3E833C8E933C9EA334F
:100D1300CAEB33CBC3EA9EF527EB9FF526B350040A
:100D2300AB26AA27EC33CCED33CDD5F0DAAE24AF26
:100D330025221213BE601C1213A060171214357003
:100D43000712142C7001D322C0D012142C7006D0B9
:100D5300D0B322C32233D0D0501430E0F6C3E79689
:100D63000809E7960809E7960809E796B32220E001
:100D7300D5E6970809E6970809E6970809E697B3C1
:100D830022D083D082ECC0E0EDC0E0E493A3FCE486
:100D930093A3FDED4C600D120EA8EC24FFFCED3483
:100DA300FFFD80EFE493A3FCE493A3FDED4C600D02
:100DB300120F9CEC24FFFCED34FFFD80EFD0E0FD2F
:100DC300D0E0FCE493A3C0E0E493C0E0221213BE9E
:100DD300601B1213A06016121435700712142C60D6
:100DE3000CB322C0D012142C7005D0D022C32233EE
:100DF300D0D0501330E0EBC3E7960809E796080913
:100E0300E7960809E7962220E0E4E6970809E697C3
:100E13000809E6970809E69722D083D082E9C0E063
:100E2300E493A3C386F0C5F095F0F908E493A38691
:100E3300F0C5F095F0700BE493A3C3994005E90462
:100E43008002A3E475F002A42582F582E5F03583E0
:100E5300F583D0E0F9E493A3C0E0E493C0E02285F6
:100E63002283852182E0A3FEE0A3F5207808E0A396
:100E7300F608DFFAE0A3FFE0A3C0E0E0A3C0E0E0F0
:100E8300A3C0E0E0A3C0E0E0A3C0E010AF08858208
:100E9300218583228008858221858322D2AFD08356
:100EA300D0820210BDC0E0C3E49396087401939608
:100EB30018400FE493667008087401936618700075
:100EC3007019A3A3C3E49396087401939618A3A37C
:100ED300400DD0E0D0E0D0E0020DC0A3A3A3A3A3B4
:100EE300A3D0E0227404800474028000CCC0E0ED3F
:100EF300C0E0E521C39CCCAD2250011D10AF068C90
:100F0300218D2280068C218D22D2AF121039D0E0A0
:100F1300FDD0E0FC2274028000CCC0E0EDC0E0E52F
:100F230021C39CCCAD2250011D10AF068C218D2214
:100F330080068C218D22D2AF121017D0E0FDD0E0B5
:100F4300FC221213BE60251213A060201214357008
:100F53000302142C080808E76670101819E7667076
:100F63000A1819E76670041819E76622F422C0E02C
:100F730074F2120BD3A2AFE433FED2AFE58BA2E03F
:100F8300500579041215FD758B00C2E8752300EE38
:100F9300A2E092AF7F01020C32C0E0C0F088F0E41F
:100FA300936670080874019366187000A8F0A3A3F1
:100FB300700BD0F0D0E0D0E0D0E0020DC0A3A3D0FE
:100FC300F0D0E022D083D082CCC0E0E493A36006CB
:100FD3001210981470FAE493A360061211A6147009
:100FE300FAD0E0FCE493A3C0E0E493C0E022C0089D
:100FF300C3E096F50808A3E096420808A3E09642EA
:101003000808A3E0964208A2D265D033E508700130
:10101300D3D00822CAC0E0E493A3C582CCC582C55D
:1010230083CDC583F0A3C582CCC582C583CDC583DB
:10103300DAE5D0E0CA22CAC0E0E0A3C582CCC5820B
:10104300C583CDC583F0A3C582CCC582C583CDC579
:1010530083DAE6D0E0CA22C008C3E096F50808A305
:10106300E096420808A3E096420808A3E0964508E4
:101073007001D3D0082270090808082260161818D6
:1010830018C6C333C608C633C608C633C608C63334
:10109300C6D5E0EA22C0E0E493A3D39C5010E493C6
:1010A300A3C39C400AD0E0D0E0D0E0020FE4A3A3A6
:1010B300A3D0E022C09FF59FE473D09F22D083D0BA
:1010C30082C09FE493C0E0740193C0E0740293F57F
:1010D3009F22C0E0C0D0E8C0E0A8A8D2AFC2C775C5
:1010E3002300E8A2E792AFD0E0F8D0D0D0E03225D9
:1010F30021F58210AF08F521400C15228008F52157
:1011030040021522D2AF8522832200C0D0252110B0
:10111300AF08F521500C05228008F5215002052265
:10112300D2AFD0D0227404800A7403800674028084
:10113300027401C0E0F4041210F2D0E01213DA22B8
:10114300BB0102E722C082C08389828A83BB00037A
:10115300E08002E493D083D082226016080808C698
:10116300C313C618C613C618C613C618C613C6D5E6
:10117300E0EA222521F8E43522F9222521FAE43593
:1011830022FB222521FCE43522FD22C3E0C696F68C
:1011930008A3E0C696F608A3E0C696F608A3E0C641
:1011A30096F622C0E0E493A36C7009D0E0D0E0D0BF
:1011B300E0020FE4A3A3D0E022252110AF08F5211C
:1011C300400C15228008F52140021522D2AF22E0FF
:1011D30066701008A3E066700A08A3E0667004084E
:1011E300A3E06622C3E09608A3E09608A3E096086E
:1011F300A3E096A2D265D03322E76670100809E710
:1012030066700A0809E76670040809E76622C3E006
:1012130096F008A3E096F008A3E096F008A3E09602
:10122300F022181818E4C396F608E496F608E49634
:10123300F608E496F622C3E697F60809E697F60859
:1012430009E697F60809E697F622181818E60846FD
:10125300087009E626087005E633F42208221919F6
:1012630019E70947097009E727097005E733F422ED
:101273000922C3E493960874019396087402939623
:10128300087403939622E627F60809E637F6080959
:10129300E637F60809E637F622700422600D18C611
:1012A300C333C608C633C6D5E0F41822E657F6089A
:1012B30009E657F60809E657F60809E657F622E065
:1012C30056F608A3E056F608A3E056F608A3E05640
:1012D300F622E026F608A3E036F608A3E036F60881
:1012E300A3E036F622E026F008A3E036F008A3E0F8
:1012F30036F008A3E036F022E056F008A3E056F0FB
:1013030008A3E056F008A3E056F022E647F60809E2
:10131300E647F60809E647F60809E647F622E4C376
:1013230097F709E497F709E497F709E497F7226039
:101333000D08C6A2E713C618C613C6D5E0F322C626
:10134300F4C608C6F4C608C6F4C608C6F4C622C363
:10135300E09608A3E09608A3E09608A3E09622C3CC
:10136300E7960809E7960809E7960809E7962275BC
:10137300D00075813F75210175220500020B6B605A
:101383000C08C6C313C618C613C6D5E0F422E6F08C
:1013930008A3E6F008A3E6F008A3E6F022E709476E
:1013A30009C3134709336002E733F422E0F608A3C5
:1013B300E0F608A3E0F608A3E0F622E6084608C331
:1013C300134608336002E633F422800100E9F8741F
:1013D300FF28F90470F622CAC0E0E6F0A308DAFA9F
:1013E300D0E0FA22E0F8A3E0F9A3E0FAA3E0FB22BD
:1013F300E8F0A3E9F0A3EAF0A3EBF022EAF0A3EB11
:10140300F0A3ECF0A3EDF022E0FAA3E0FBA3E0FCF1
:10141300A3E0FD22E5C754F84401F5C7790122256D
:1014230021F582E43522F58322E727194719471965
:101433004722E62618461846184622C2AF75D69F9D
:10144300020000221210C0C3D5031210C01FD6031E
:101453001210C07DD6031210C0F0D6031210C03490
:10146300D7031210C08CD7031210C0AED7031210CB
:10147300C03ED8031210C0CFD8031210C01BD9032B
:101483001210C047D9031210C088D9031210C02705
:10149300DB031210C009DC031210C0DEDC031210E0
:1014A300C066EC011210C0FAEC011210C062ED012B
:1014B3001210C087EE011210C011EF011210C09C70
:1014C300EF011210C0D8EF011210C071F001121019
:1014D300C006F1011210C0D9F1011210C0BBF30113
:1014E3001210C06FF4011210C065F5011210C00490
:1014F300F6011210C059F6011210C0C7F6011210FE
:10150300C0D3F9011210C0FDFB011210C0FEFC0193
:101513001210C03CFE011210C047FE011210C0E9B8
:10152300B6041210C012B7041210C02DB704121063
:10153300C052B7041210C0F3B7041210C00EB8049F
:101543001210C0CCB8041210C0F6B8041210C003B5
:10155300C0041210C0BFC0041210C0A4C1041210F2
:10156300C01FD0041210C030D0041210C0CED0045B
:101573001210C0D9D0041210C0F3D0041210C0F856
:10158300FF011210C0ADD6041210C0E4D104121032
:10159300C0F4D1041210C006D2041210C0B8D20491
:1015A3001210C01ACE041210C09ECE041210C00630
:1015B300CF041210C047FD031210C065FD031210C3
:1015C300C09AFD031210C0BFFD031210C0E2FD0359
:1015D3001210C01DFE031210C04AFE031210C09168
:1015E300FE031210C030FF031210C00CFF021210D2
:1015F300C059FF021210C062FF021210C089FF021D
:101603001210C0D1FF021210C0E8FF021210C0F284
:10161300FF011210C0F5FF011210C0F87F00121075
:10162300C035C4041210C06DC4041210C0BBC5047D
:101633001210C03FC6041210C05A8D041210C08687
:101643008D041210C0F08F041210C03090041210D9
:10165300C06C90041210C08090041210C0999004C2
:101663001210C08B91041210C03E92041210C0528B
:1016730092041210C086FE011210C0AAFE011210BD
:10168300C0C3FE011210C001FF011210C031FF01DF
:101693001210C05EFF011210C068FF011210C0CE0D
:1016A300FF011210C0D1FF011210C0DBFF011210A5
:1016B300C0E8FF011210C02F7D001210C04F7D0043
:1016C3001210C08E7D001210C0AC7D001210C0C776
:1016D3007D001210C02D7E001210C0397E00121042
:1016E300C0967E001210C0A57E001210C0C97E00F5
:1016F3001210C08A7F001210C0977F001210C0A87A
:101703007F001210C0B3D4041210C0FBD404121013
:10171300C027D5041210C0A892041210C0FC930471
:101723001210C00A94041210C01D94041210C03287
:1017330094041210C04794041210C05A9404121057
:10174300C0D694041210C03B95041210C0C3950474
:101753001210C03B96041210C01497041210C02438
:1017630097041210C03397041210C01AD404121035
:10177300C03ED4041210C066D4041210C08ED40428
:101783001210C046B9041210C06DB9041210C08BF8
:10179300B9041210C0FAB9041210C01AAE04121020
:1017A300C033AE041210C03FAE041210C053AE04D7
:1017B3001210C071AE041210C07BAE041210C085AB
:1017C300AE041210C098AE041210C022AF0412105F
:1017D300C097AF041210C0CBAF041210C019B004ED
:1017E3001210C066B0041210C081B0041210C08B76
:1017F300B0041210C0B1B0041210C016B10412101C
:10180300C002D1041210C024D1041210C0BAD104F2
:101813001210C0E6FF031210C072F5021210C09E30
:10182300F5021210C0BBF5021210C0CEF502121061
:10183300C0E9F5021210C043F6021210C071F6029D
:101843001210C085FA021210C0E3FB021210C01579
:10185300FC021210C078FC021210C0FDFD0212102F
:10186300C025FE021210C03AFE021210C04AFE0248
:101873001210C08AFE021210C0CCFE021210C0DC8D
:10188300FE021210C0C6CA041210C0E0CA0412102D
:10189300C008CB041210C021CB041210C045CB04E6
:1018A3001210C063CB041210C07ACB041210C0A86C
:1018B300CB041210C0C3CB041210C0BED20412104A
:1018C300C002D3041210C026A4041210C036A4040C
:1018D3001210C03BA5041210C06DA5041210C09DC8
:1018E300A5041210C0C0A5041210C0D7A50412107D
:1018F300C011A6041210C076A6041210C0B8A60424
:101903001210C0FFA6041210C02CA7041210C05757
:10191300A7041210C030C8041210C042C804121029
:10192300C056C9041210C059C9041210C014CD0402
:101933001210C04ACD041210C062CD041210C0A40C
:10194300CD041210C0B4CD041210C0F8CD0412108F
:10195300C002CE041210C00080041210C0438004E1
:101963001210C0A880041210C0C780041210C069EE
:1019730081041210C07281041210C0C381041210BA
:10198300C0EC81041210C0F981041210C06B8204F0
:101993001210C0F982041210C03E83041210C077E3
:1019A30083041210C0DC83041210C00584041210D7
:1019B300C07C84041210C0CB84041210C0088504B8
:1019C3001210C03D85041210C04F85041210C0616F
:1019D30085041210C08085041210C089850412107A
:1019E300C04A86041210C08D86041210C0CB860430
:1019F3001210C058D6041210C086C9041210C09B1E
:101A0300BB041210C0D1BB041210C019BC041210C5
:101A1300C072BD041210C060AB031210C086AC03C9
:101A23001210C0C2AC031210C080AE031210C0AEBD
:101A3300AE031210C018B1031210C058B103121034
:101A4300C0FAB2031210C090B3031210C0EAB3037A
:101A53001210C07AB4031210C0BEB4031210C00037
:101A6300B5031210C065B6031210C0E5B703121018
:101A7300C026BA031210C054BA031210C080BA03AE
:101A83001210C089BA031210C0E6BA031210C07F45
:101A9300BB031210C096BE031210C01CBF0312106A
:101AA300C070D3041210C088D3041210C092D304A0
:101AB3001210C0E8D3041210C0DE9B041210C0F44D
:101AC3009B041210C0959C041210C0D49C041210E5
:101AD300C0F19C041210C0229D041210C06F9D041B
:101AE3001210C0A39D041210C0DE9D041210C0DBAF
:101AF3009F041210C041A0041210C01FCF04121083
:101B0300C07ECF041210C0BCCF041210C0FDCF049E
:101B13001210C000D6041210C0B9A5021210C0C51D
:101B2300A5021210C027A6021210C031A60212107D
:101B3300C0BEA6021210C0FAA6021210C0AFA702BE
:101B43001210C00EA8021210C0B3A8021210C031A6
:101B5300A9021210C0FDAA021210C058AD02121041
:101B6300C0C0AE021210C06CAF021210C042B40269
:101B73001210C037B5021210C0CFB5021210C0F454
:101B8300B5021210C0A2B6021210C0C0B6021210E3
:101B9300C02EB7021210C04DB7021210C07AB7029E
:101BA3001210C018B9021210C039B9021210C0DFE6
:101BB300B9021210C027BA021210C09BBA02121047
:101BC300C029BB021210C086BB021210C0FFBB02A9
:101BD3001210C07BBD021210C0DFBF021210C0681A
:101BE300C0021210C096C0021210C0F78604121071
:101BF300C08887041210C0EB88041210C00F890438
:101C03001210C01489041210C0258B041210C0478F
:101C13008B041210C0698B041210C0AF8C04121015
:101C2300C0AFA7041210C06EA8041210C0D4A80439
:101C33001210C083A9041210C02F96031210C05EA5
:101C430096031210C0D696031210C0E59703121024
:101C5300C04198031210C0AE99031210C0CA990371
:101C63001210C01C9A031210C05F9A031210C072A4
:101C73009A031210C0CA9A031210C08C9B0312104D
:101C8300C0089C031210C03F9C031210C0779C0332
:101C93001210C0099E031210C0E89E031210C03632
:101CA300A0031210C019A1031210C0A5A1031210A2
:101CB300C0E5A1031210C004A2031210C04FA20377
:101CC3001210C06FA2031210C008A3031210C08E1B
:101CD300A3031210C0E9A3031210C029A403121016
:101CE300C0BFA6031210C0D8A7031210C01EA803BA
:101CF3001210C013A9031210C03BA9031210C03E57
:101D0300A9031210C048A9031210C064A90312103A
:101D1300C0DEA9031210C017AA031210C043AA03FE
:101D23001210C06AAA031210C08EAA031210C0FFB9
:101D3300AA031210C012AB031210C041AB0312105E
:101D4300C02AD5041210C036D5041210C06AD504B7
:101D53001210C0F47F001210C00080031210C023C1
:101D630080031210C07081031210C0B981031210D6
:101D7300C02582031210C08382031210C08682031F
:101D83001210C0D782031210C04C83031210C0D1AB
:101D930083031210C0D483031210C055840312109E
:101DA300C09684031210C08288031210C02C8A03C9
:101DB3001210C07C8A031210C0038E031210C036A7
:101DC3008F031210C0B090031210C04D9103121074
:101DD300C03892031210C08D94031210C07BBF034E
:101DE3001210C025C0031210C090C0031210C0AB64
:101DF300C0031210C030C1031210C08AC1031210F5
:101E0300C0D1C1031210C038C2031210C0B7C3033C
:101E13001210C0E6C4031210C06EC5031210C077BF
:101E2300C7031210C024C8031210C0C8C80312107D
:101E3300C099C9031210C054CB031210C0ECCC03D9
:101E43001210C07FCD031210C0A5CE031210C0C65E
:101E5300C2021210C029C3021210C0CDFC0312101B
:101E6300C0B5C3021210C010C4021210C06DC40268
:101E73001210C0A8C4021210C02AC5021210C084D6
:101E8300C5021210C002C7021210C082C70212108C
:101E9300C0DDC7021210C0F7C7021210C018C80273
:101EA3001210C072C8021210C0EECA021210C00D86
:101EB300CB021210C0FDCB021210C030CD021210A3
:101EC300C0AFCD021210C0EBCD021210C05ACE0229
:101ED3001210C00FCF021210C0E7D0021210C0EED2
:101EE300D1021210C066D3021210C05CD5021210C8
:101EF300C0D2D7021210C0ACD9021210C06DDA02E0
:101F03001210C0EAD4031210C0FCDA021210C0424D
:101F1300D3031210C0E7DC021210C056DD02121008
:101F2300C021B1041210C078B2041210C037B30438
:101F33001210C09FB3041210C0F5AA041210C010EF
:101F4300AB041210C054AB041210C07AAB041210CD
:101F5300C0A1AB041210C0B9AB041210C05BAC0437
:101F63001210C070AC041210C093AD041210C09CC8
:101F7300AD041210C0A5AD041210C0AEAD04121012
:101F8300C0B8AD041210C06497041210C0709B0453
:101F93001210C0759B041210C0779B041210C0BDB1
:101FA300C6041210C0D67F001210C013B40412105E
:101FB300C0F6CB041210C09FD5041210C026C20471
:101FC3001210C0BAFF031210C04EA0041210C000BA
:101FD30080021210C03380021210C09F80021210C0
:101FE300C03A81021210C0D781021210C01C8202B3
:101FF3001210C03E82021210C05782021210C07D1E
:1020030082021210C09F82021210C0DD82021210DF
:10201300C02183021210C04383021210C0A58302A1
:102023001210C06C84021210C02385021210C095D6
:1020330085021210C06086021210C0B3860212100D
:10204300C01987021210C05387021210C0A587025D
:102053001210C01388021210C07E88021210C081B1
:1020630088021210C00289021210C099890212104C
:10207300C0198A021210C0388A021210C09C8B0247
:102083001210C0A98B021210C0B58C021210C0C26C
:102093008C021210C0CB8C021210C0A38E0212103D
:1020A300C0BD8F021210C03690021210C0A8900259
:1020B3001210C0CA90021210C05E91021210C032F8
:1020C30093021210C00997021210C01D970212103A
:1020D300C02D97021210C03797021210C04097020A
:1020E3001210C04997021210C05397021210C080F9
:1020F30097021210C0A997021210C0B497021210CF
:10210300C0D897021210C0FC97021210C066980242
:102113001210C0AC98021210C0C998021210C04627
:1021230099021210C07D99021210C0BC99021210BC
:10213300C0099A021210C08F9A021210C05D9C024D
:102143001210C0E09C021210C0C49D021210C02BDA
:10215300A0021210C084A0021210C0CEA00212105E
:10216300C029A2021210C05EA2021210C0B0A202C5
:102173001210C065A3021210C014A4021210C051A1
:10218300A4021210C0E6A4021210C052A50212103B
:10219300C06830001210C09A30001210C0C830005E
:1021A3001210C09E32001210C07E33001210C0D62F
:1021B30033001210C01135001210C05D350012102B
:1021C300C08638001210C0793B001210C0C93C0011
:1021D3001210C05F3D001210C06B3D001210C09D75
:1021E3003D001210C0203F001210C0D14000121059
:1021F300C06541001210C0A841001210C026420061
:102203001210C04342001210C07342001210C0A843
:1022130042001210C07843001210C0214400121073
:10222300C0A746001210C0C747001210C0B2480032
:102233001210C03449001210C0684D001210C0A51E
:102243004D001210C0FD4D001210C0304E00121090
:10225300C09A4E001210C0D04E001210C05B4F0047
:102263001210C0B34F001210C08A50001210C043A6
:1022730051001210C0DE51001210C0E654001210BB
:10228300C00256001210C0A559001210C0995A007E
:102293001210C09C5A001210C0CB5A001210C0D1A9
:1022A3005C001210C0AA5D001210C0ED5D00121098
:1022B300C0435F001210C0825F001210C00B6000A9
:1022C3001210C03F60001210C00461001210C01C45
:1022D30063001210C08D63001210C0CD6300121092
:1022E300C05B64001210C07D65001210C03F660021
:1022F3001210C04668001210C05E68001210C0724F
:1023030068001210C0AA68001210C0D8680012102A
:10231300C0576A001210C07C6B001210C0D96B004A
:102323001210C08B6C001210C0B26C001210C07976
:102333006D001210C0116E001210C0377000121021
:10234300C06C70001210C0CF70001210C0FE71007C
:102353001210C0A672001210C0D772001210C0EF84
:1023630072001210C07E73001210C0327600121079
:10237300C00A78001210C02678001210C0427800FC
:102383001210C01079001210C0037D001210C08417
:1023930082011210C0B682011210C0A5860112106C
:1023A300C0F186011210C03787011210C0D987010E
:1023B3001210C03588011210C07A88011210C0C1F2
:1023C30089011210C0D58A011210C0C48E011210E7
:1023D300C0488F011210C05590011210C0B1900176
:1023E3001210C0A192011210C01693011210C02046
:1023F30093011210C02D93011210C05893011210B3
:10240300C03F94011210C0E994011210C0679501F6
:102413001210C08795011210C0B095011210C0D2DE
:1024230095011210C03298011210C0F898011210D1
:10243300C03D99011210C0BA99011210C06B9A01E4
:102443001210C09D9A011210C0E39A011210C01F0E
:102453009B011210C06F9B011210C0C39B0112108D
:10246300C0199C011210C0659C011210C0D29C01BE
:102473001210C04D9D011210C0189F011210C018F8
:10248300A0011210C03DA1011210C07CA4011210C2
:10249300C08FA7011210C04CA8011210C090A80150
:1024A3001210C040AA011210C054AA011210C05E3B
:1024B300AA011210C068AA011210C074AA01121056
:1024C300C090AA011210C03BAB011210C07AAB013D
:1024D3001210C084AB011210C08EAB011210C0FEEB
:1024E300AB011210C049AC011210C05EAD01121055
:1024F300C0BAAD011210C03BAE011210C0FAAE015A
:102503001210C003B0011210C037B1011210C02560
:10251300B2011210C03DB2011210C098B2011210E4
:10252300C0B6B2011210C0FEB2011210C025B30131
:102533001210C0C0B3011210C086B4011210C0182B
:10254300B5011210C092B5011210C0ACB601121041
:10255300C059B7011210C081B8011210C0D1B8011F
:102563001210C035B9011210C097B9011210C0C5BD
:10257300B9011210C0E9B9011210C01EBA0112103C
:10258300C04FBA011210C082BA011210C0A2BA0120
:102593001210C00ABB011210C0FEBB011210C059B9
:1025A300BC011210C082BC011210C00ABD0112107E
:1025B300C08DBD011210C0B8BD011210C09DBE0177
:1025C3001210C0B8DD031210C0F0DD031210C011E9
:1025D300DE031210C053DE031210C0B5DE03121067
:1025E300C0BFDE031210C0CFDE031210C00ADF0328
:1025F3001210C0EAE2031210C0D7E4031210C0BDE8
:10260300E6031210C054E7031210C0F6E7031210DA
:10261300C09FC0011210C01DC1011210C079C101B9
:102623001210C0C4C1011210C0DFC1011210C00AD0
:10263300C2011210C027C2011210C033C20112100E
:10264300C0CAC3011210C0E3C3011210C068C401A1
:102653001210C07BC4011210C09AC4011210C03EF4
:10266300C5011210C0BFC6011210C072C8011210FA
:10267300C008C9011210C00BC9011210C07BC901E7
:102683001210C099C9011210C030CA011210C078CB
:10269300CA011210C07BCA011210C041CB01121033
:1026A300C0AECB011210C0D4CB011210C05FCC015D
:1026B3001210C07DCC011210C0C3CC011210C07720
:1026C300CD011210C0C1CD011210C0F0CD01121006
:1026D300C04DCE011210C082CE011210C0AECE0189
:1026E3001210C0BCCE011210C009CF011210C07964
:1026F300CF011210C0C2CF011210C00ED0011210B0
:10270300C03AD0011210C045D0011210C063D001ED
:102713001210C04ED1011210C058D1011210C09333
:10272300D1011210C0A3D1011210C0ACD1011210FB
:10273300C000D2011210C014D2011210C043D30141
:102743001210C05AD3011210C06FD3011210C0FD72
:10275300D3011210C042D4011210C0CED401121002
:10276300C0D9D4011210C01BD6011210C036D60135
:102773001210C082D6011210C0F1D6011210C02A65
:10278300D7011210C044D7011210C086D70112100E
:10279300C056DA011210C003DB011210C070DB0156
:1027A3001210C0B0DD011210C0C8DD011210C0CB81
:1027B300DD011210C0D7DD011210C0EBDD011210D4
:1027C300C0F3DD011210C026DE011210C028DF01A4
:1027D3001210C0AFDF011210C01FE0011210C0A120
:1027E300E0011210C062E1011210C081E101121078
:1027F300C022E2011210C07FE2011210C082E20186
:102803001210C0AFE2011210C0C4E2011210C038AE
:10281300E3011210C087E4011210C08DE50112100C
:10282300C018E6011210C033E7011210C0FBE70124
:102833001210C02CE8011210C04FE8011210C0584A
:10284300E8011210C087E8011210C017E901121045
:10285300C0CDE9011210C042EA011210C0E9EA0139
:102863001210C05EEB011210C095EB011210C0D321
:10287300EB011210C009EC011210C076FC03121018
:10288300C0E4FA031210C036FA031210C02CFA0384
:102893001210C0C5F9031210C0B1F9031210C00E13
:1028A300F9031210C00EF8031210C027F703121019
:1028B300C017F5031210C025F4031210C058D40337
:1028C3001210C00CD4031210C0C3F3031210C06261
:1028D300F5021210C026D3031210C0FFD00312104A
:1028E300C0F7F4021210C02BF3021210C0E9F20277
:1028F3001210C0EDF1021210C0C1F1021210C07823
:10290300F1021210C0B9F0021210C0BBED02121096
:10291300C08DEB021210C05AEB021210C001EB0281
:102923001210C094EA021210C053EA021210C08CB3
:10293300E9021210C026E9021210C0C5E802121003
:10294300C065E8021210C03CE7021210C0D0E602D4
:102953001210C028E6021210C023E6021210C0179C
:10296300E6021210C04AE2021210C024E202121060
:10297300C0C1D0031210C093D0031210C060D003A3
:102983001210C0E4CF031210C002BF041210C060C3
:10299300BE041210C00DBE041210C0C2E102121018
:1029A300C063E1021210C024E1021210C011E1025F
:1029B3001210C0D9BD041210C006E1021210C0D516
:1029C300E0021210C0F1DE021210C064DE02121027
:1029D300C0E5DA021210C020DE021210C087D30352
:1029E3001210C0F9DD021210C053F3031210C026F7
:1029F300F3031210C0F3F2031210C0CBF203121050
:102A0300C06CF2031210C04CF2031210C017F20391
:102A13001210C0C3EE031210C0ABEC031210C0952A
:102A2300EA031210C015EA031210C0C1E903121021
:102A3300C075E9031210C0F3DB021210C001FD03DD
:102A43001210C0CDE8031210C071C3020000008051
:102A5300FB8F000100B01887000100AE1835000499
:102A6300007718250002007B18260002007D182736
:102A73000002007F18280001008918290001008A3C
:102A83001884000400E4158600010004182A0001DC
:102A9300008B182B0001008C182C00010090182DBE
:102AA300000800F0152E00010091182F000100927C
:102AB300183000010093183100010094183200010E
:102AC30000F81533000100F915340001009518369C
:102AD300000100FA15380001009618390001008F33
:102AE3001883000200AC186300010006166400019D
:102AF300008D18650001008E186D00010007167126
:102B0300000800E81566000100AB18430001009CB3
:102B130018440002009D18450001009F184600025A
:102B230000A01847000800FE1548000100A2184B3A
:102B3300000100A31804000100AF18A1000100B3B5
:102B43001837000100B21888000100B1183C0001D9
:102B530000FB153D000100971849000200A4186707
:102B630000010008164D000200A6184E000100A83F
:102B7300184F000200A9183E0001009B18510001E4
:102B830000FC15520001009918530001009A1854D3
:102B9300000100FD150000000000000001363601B1
:102BA3000100010201000103010001040106060501
:102BB300020000070100340801000F090401010DA0
:102BC3000100FF0E08000017020000190100FF1AA0
:102BD3000100011B0100FE1C0100081D0200001F73
:102BE30001000120010001210200002301000F2444
:102BF3000200002601000127010008280200FF2A25
:102C03000100072B0102402C0100002D0100012EC1
:102C13000100012F0100FF30010B1D310800003AB4
:102C23000100083B01000F3C0100013D0100FF3E94
:102C330004000042040000460400004A0400004E61
:102C430004000052040000560400005A040000006F
:102C530000000020017E820000010020018082002C
:102C6300000200200182820000030020017F820015
:102C730000040042011A81000005004201E68000C1
:102C83000006004201F78000000700300183820044
:102C93000000404201F7800000FDFF21017C82011A
:102CA30000200020050C180100210020050D18014B
:102CB30000000221050E18020400002905D11403A7
:102CC3000400002905D314030410002905D51403B7
:102CD30004140028015518050400002105D7140128
:102CE300037103010301030103010301032203022F
:102CF30003010310030003000300030003000300A8
:102D03000300034203000324030603000300030438
:102D130003120325032303250323030403040300EE
:102D230003000300034403000300032303000365BC
:102D3300032100350381030003050300030003009F
:102D43000300032503230303007100300160001116
:102D53000070003102200350048000100061000065
:102D6300001400630073007200620043000000134C
:102D73000006000000000004001200000000000034
:102D830000000004000400370037003C0244000048
:102D93000000000000000065000000350081000015
:102DA3000005000000830000000101710101010121
:102DB30001110101013101010101018001100161D2
:102DC300013B0014006301730172016201430100BE
:102DD30001130106013D0135000401120100010048
:102DE300010001000104010401330133013C0144EA
:102DF3000132013600000100016501000135008147
:102E03000100010501820183010001030271023007
:102E1300016002110270020102020202028002102A
:102E23000261023A004100630273027202620243CA
:102E33000200021302380000020002040212020020
:102E43000200020002000204020402370037003CC1
:102E5300024402000239000002000265020002354A
:102E6300028102000205028202830200023600018F
:102E730000060000000F000000000000000000003A
:102E830000000003FFFF00000403FFFF0000FFFF3B
:102E93000FF4010005C4040320000100000B00002F
:102EA30000000000000003010F000000000000000C
:102EB300000000000000000000000000000000000F
:102EC3000000000000000000000000C71BE51BCD50
:102ED3001B371B0000000000000000000000000082
:102EE300000000D31B371B00000000D91B371B0059
:102EF30000000000000000DF1B371B000000000083
:102F030000000000000000000000000000000000BE
:102F130000000000000000000000000000000000AE
:102F2300000000000000000000071E0100071E0251
:102F3300007D1D0280771D0300831D0400891D048D
:102F4300808F1D0500951D0600A11D3100B31D33A3
:102F530000B91D3400BF1DFFFF0000030003000480
:102F630000080010001F003E007B00F600EC01D7B4
:102F730003AF075D0FB91E713D000007ECFDFDFDBA
:102F8300ECDCDCCCBCACAC9C9C8C7C7C6C6C5C5C6E
:102F93005C4C4C3C3C2C2C1C1C0A072402D1230502
:102FA300DD2307D7230CB9230DC523FF000000162B
:102FB3000F00000B150B020002220F3300000E0F4F
:102FC3005A6967426565416C6C69616E6365303946
:102FD300D0D1D2D3D4D5D6D7D8D9DADBDCDDDEDF76
:102FE300150AF4D4C0A59582726361555049000354
:102FF3004D4C4651181A25050200011916181616CC
:1030030018230300303016181920231A1C1E3030E1
:103013003017181921301B1D1F30003C40423A3F26
:103023003F392F47300C0E020B040B0A0708000F21
:1030330002040201010101090200BE040AE80300BF
:1030430000E8030100F6FBE32F03007E2F1A0003C1
:103053000A0C040A08140328020C051E0815FF00B5
:10306300FF0412091EC082C0831229839016337491
:10307300A9F0A37421F090163574AFF0A37421F076
:1030830090163774B5F0A37421F090163974BBF021
:10309300A37421F0025DA374F7120AFF901627E4CC
:1030A300F0E9901626F07CFE7D157A287B16121B1C
:1030B3000D9018A2E0901630F090163174E8F0A34A
:1030C300741502403074F0120AFFEAFEEBFF5480DD
:1030D30070030232399016261240C5700302323251
:1030E300EA241B125930707CEA241F1259306413EE
:1030F3007002A3E0706E8A828B831232879016412E
:10310300124EC2750A00750B00800D123F06126F36
:10311300A2121A11AA0EAB0FEA4B60488A828B8364
:10312300E0650C7004A3E0650D702C8A828B83A389
:10313300A3A3A3E0F50EA3E0F50FE50A450B8A82EE
:103143008B83A3A3A3A360C3124208850A82850BC2
:1031530083A3A3A3A380B78A0A8B0B8A828B8312D0
:103163004EBE80B4E508242A125930FCE508240237
:10317300F8E43509F9E8FAE9FB90164112336EA336
:10318300A3E06402703C8A828B83124EC2800B8858
:10319300828983A3A3A3A3124208E849601F8882FC
:1031A3008983E06A7003A3E06B70E488828983A358
:1031B300A3E06C70DA9018A8125C60806BECF912D3
:1031C30021E5850882850983E06401704FE50824C1
:1031D3001812327012113412654A120EE7E50824F0
:1031E30012123270121134E5081240B9121130E58F
:1031F30008240B12654E120EEBE5082417124056F5
:10320300E5082402FCE43509FDE5082419FAE43550
:1032130009FB122A1F740A12110D800CE06402705C
:1032230007AA08AB091222C3AA08AB0912197BEE3D
:10323300FAEF6480802DEA5402600C901907740140
:10324300F0EA6402FA8023EA5408601A1221DFEAE2
:103253004B700B9016431264257A0812327DEE648C
:1032630008FAEFFB80047A007B00026BD4F582E45A
:103273003509F583E0F50A780A22FB901626E0F972
:10328300121ADD22A3A3E0F50CA3E0F50D227B00C7
:10329300901626E0F9121AD174042274F4120AFF6C
:1032A3008A088B098A828B83A3A3A3124CBA124088
:1032B3006138F583E02409FA126B6C700302336101
:1032C3008A828B837402124D2F85088285098312AB
:1032D300336EE8F0A3E91267E68A828B83A3A3A384
:1032E300A3A3A3A3A3F0E5082403F8E43509123349
:1032F300631240613AF583E08E828B83A3A3A3A379
:10330300F0EE2409FAE43FFB8E828F83A3A3125FBE
:1033130012F5838882E0A2E58E828F83A3A3A3A301
:10332300A3500474018001E4F0E5082403F58289C5
:1033330083124EC2EA1254433BF583126B331211CC
:103343002C1240603B1260048E828F83A3A3127CF5
:10335300E212110DEEFAEFFB901626126BB98016EE
:10336300F98882F583E0FAA3E0CA2212505FA3A38F
:1033730022740212110D7F04020E6274F2120AFF0C
:103383008A088B09ECFAEDFB740E121422E0FC128E
:1033930028BD8A0C8B0DAE0CAF0DEA4F6030AC0824
:1033A300AD09121F0FE96026AC08AD09EEFAEFFB79
:1033B3001229DDE970148E828F831241F5FAEFFB37
:1033C3001228D5AA08AB091214537900800279B4E4
:1033D300024FAE74F0120AFF74F61211BCEAFEEB50
:1033E300FF8C088D09750FB3852182852283E4F054
:1033F300750E008002050E903058E493F8E50EC375
:103403009840030234FDAA0E7B001214778A0A8BBC
:103413000BEA4B60E08A828B83A3A312350428F066
:10342300F8C3EE98EF940050CC7C157D007900AA88
:1034330008AB09121963850A82850B83A3A3A3A38F
:10344300126FDFE0F8EEC3982925E0F8E433F9E5DD
:103453000A28F582E50B39F583A3A3A3A3A3A3123B
:10346300406BA3125A878A0C8B0DAC0CAD0DAA08C6
:10347300AB09121B0D850A82850B83A3E0640170DF
:103483000A12654A740112407D8044740112118648
:10349300850A82850B83124EC012145FE9603D7466
:1034A30009121422E0C0E012654AD0E0F074091258
:1034B3001422E0640370137401121186E508240BCF
:1034C300FAE43509FB121B0D801274011214221247
:1034D3004208E508125A6D3509126FA0850A8285E4
:1034E3000B8312655612407DA3A3E0C0E0E50824D8
:1034F3001412654ED0E0F0750F00A90F740A026B29
:10350300D1A3A3A3E0F8852182852283E02274F767
:10351300120AFFE9FE8A828B83A3A3A3A3A3A3E0DA
:10352300540860338A828B83A3A3A3A3A3A3E05489
:103533000260218A828B83A3A3A3A3A3A3A3A3A330
:10354300E06406600F74E96E600A74CD6E60057402
:10355300F06E70031221C70248AD74F0120AFF74B3
:10356300EF1211BC740F121422126309740812149F
:1035730022E9F0ECFEEDFF740512142212467512D7
:103583004899A3E0F912144774061214221263092E
:1035930074061214221254D470030238181240A570
:1035A300E0FA7406121422E0F9122107123878F8AF
:1035B300A3E0F9E8497003023818EE2403F50AE49E
:1035C3003FF50BEE2406F508E43FF5097C0085087A
:1035D30082F583124EC2850A82850B83E0F91214A9
:1035E3004D7403121422126309850A82850B83E04A
:1035F300C0E0852182852283123871D0E01255E91B
:10360300F9852182852283123F0D12513B12350722
:10361300FAA3E0CA2407F582E43AF583E8F0A3E4C9
:103623001263142406F582E438F583E4126FAC12B6
:103633004CAE12112CEE1240613F1260047403125F
:103643001422124CBA2409127CDC12110D742912B3
:103653001422126FD91233681255FC3A126FA074F8
:103663002B121422E0C0E085218285228312549B11
:10367300D0E0F07402121422E4F0742512142278BC
:10368300081213AF02376F7403121422125FCC882F
:1036930082F583123860A3A3A3125A92FB12146516
:1036A300850E82850F83A3EAF0A3EBF07403121453
:1036B30022123871A3123860125CA1A2E6500F8562
:1036C3000E82850F83A3A3A3A3A3E0D2E1F0740525
:1036D300121422E0706B850E82850F83A3124208B9
:1036E300901681E0687003A3E0697055850E8285AA
:1036F3000F83A3A3A3124040750C00780C1211345E
:1037030078081211287429121422E0F50C780C128F
:1037130011347427121422120EEB90168E120EEB34
:1037230079007419121422124E9212230B740A1286
:10373300110D850E82850F83A3A3A3A3A3E04405E4
:10374300F07402121422E004FC8E828F83124EBCAA
:103753008E828F83A3A3A3E0F912144D7403121472
:10376300221263097402121422E004F07403121487
:10377300221254D460677402121422E0FA740612FF
:103783001422124208C3EA98E499505174021214A5
:1037930022123B4A852182852283E028F8A3E0395F
:1037A300F9E8240FF50EE439F50F850E82F583E46D
:1037B300F0740312142212386B6401600302368A18
:1037C30074051214227401126BBFF07403121422D5
:1037D300125D93123B6DE8F0A3E90236AE852182B8
:1037E300852283124EC212210D85218285228312E6
:1037F3000EEB7426121422E0FD7425121422E0FC51
:10380300740A121422E0F9EEFAEFFB1221C17402DA
:1038130012110D80438E828F83A3A3A3E0C0E074B3
:103823000C121422D0E0F0126A28E0C0E0740D12EA
:103833001422D0E0F074061214221254D4700974C6
:103843000E12142274B98007740E1214227410F02D
:10385300740912117E1223057411026BD1E0850ED7
:1038630082850F83A3A3A322E01255C1E022E012B5
:1038730055C1A3A322852182852283EAF0A3EB12FB
:1038830054DD2274F0120AFF74E11211BC740412A5
:103893001422E9F07403121422ECF07402121422BD
:1038A300EDF08A0E8B0F742F121422123289AA0C98
:1038B300FB1220FB7401121422E9F0AA0CAB0D12C7
:1038C30021017401121422E07003023B4585218219
:1038D300852283E480158E828F83A3A3A3A3A3E011
:1038E300D2E3F0852182852283E004126B17F885E9
:1038F3002182852283E0C3984003023B3C7401127A
:103903001422E07003023B3C852182852283123B13
:103913004AE50C28F8E50D39F9E8240FFEE439FFF0
:103923008E82F583A3A3A3A3A3E0A2E040B5750809
:1039330000750A08750B007402121422E060037507
:1039430008207C087D007900740512117E1219632A
:103953008E828F83E0603E9016D1E06401701AE599
:1039630008D2E3F508750B10123B5A121422E8F043
:10397300A3E912598574FF807643080C750A0C8EEF
:10398300828F83A3123B65126FA2740512142274F3
:10399300FFF0A3805A7404121422E06009E508D2F0
:1039A300E6F508750A0A8E828F83A3E064FE70032E
:1039B300A3E0F4703074121214227404126574F8C4
:1039C300741D121422E8124D2F741212117E12204C
:1039D300297D007C0079007415121422AA82AB831E
:1039E300121DEF800B123B5A121422E8F0A3E9F0E8
:1039F3007407121422E508F012409CC0E074091207
:103A03001422D0E0F0740A1214227401F074051227
:103A1300117E1222C97411121422E06003023B1AB0
:103A2300740D1214221255E48E828F83A3A3A3A3D1
:103A3300F0740D121422124CFDE50AF0A3E50BF00D
:103A43007403121422E0C0E0124C8ED0E0125CA189
:103A530060119016D1E0C0E0740D121422124CD8FC
:103A6300D0E0F0740D121422124208850C82850DE9
:103A730083A3A3A3A3A3123B53241C126303126FB8
:103A8300BC123B55125C5339126A47C0E0124C75A5
:103A9300D0E0126B0CC0E0740D1214221247BBD09D
:103AA300E012680DC0E0740D1214221247B1D0E089
:103AB300F0740D121422123B65123B53242A126335
:103AC30003850E82850F83A3A3A3A3A3A3A3A3E0CC
:103AD3001262FC12408BC0E012479DD0E0F0740DDF
:103AE300121422124EC2850E82850F83126B22247A
:103AF30028F582E43B126FA0124094126B3312112B
:103B03002C125FFDEA1262953B127CE012110D74D8
:103B13000512117E1222CF8E828F83A3A3A3A3A3A8
:103B2300E0D2E0F07411121422E060030238D97479
:103B330001121422E0140238E57900AA0CAB0D122D
:103B430021CD741F026BD1E075F007A4F8A9F02210
:103B5300A3A3124EC6E8228E828F83A312420C7453
:103B63000522E0123B6DA3A3A322F8A3E0F9850E7F
:103B730082850F83A32274F0120AFF74E81211BC2A
:103B8300E9852182852283F08A0E8B0F8A828B83BB
:103B9300A3A3A3A3A3A3A3A3E0F91221258A088BBC
:103BA30009EA4B7003023C56E50E1254571240B417
:103BB30012404B852182852283E06003023C597CBD
:103BC30004850E82850F83A3A3A3A3A3A3A3A3E0CA
:103BD300F912212BEE4F607B8E828F83A3A3A3A3C5
:103BE300124208740712142212643A12420874092A
:103BF300121422124D5FC0E07411121422D0E0128D
:103C030067EBA3A3A3A3A3A3A3124208740F1214E5
:103C130022126FA27412121422E4126BC7C8241F5B
:103C2300F582E438F583125FC8C413135403FC70A0
:103C3300027C048E828F83E0F9780812113074209D
:103C430059FD744059F9740312117E1221C1740293
:103C530012110D026BCF7C08850E82850F83A3A3FF
:103C6300A3A3A3A3A3A3E0F912212B8B0BEA4B700D
:103C730003023BD7EE4F60DB852182852283E0F58B
:103C83000C780C121134850882850983A3A3A3A39E
:103C9300A3A3A3E0F50C780C1211348A828B83A3BF
:103CA300A3A3E0FB8A82850B831277FF8A82850BAD
:103CB30083E0FA8E828F83A3A3E0F9122A2574028C
:103CC30012110D023BDB74F7120AFF74FA1211BCD6
:103CD300E9FE780179017F00800379000F12503EDD
:103CE300E0FCEFC39C5026EF75F007A4FC85F008B9
:103CF300AD08EA2CFCEB3DFD12462DE0A2E050DAC4
:103D0300540C60D6E0A2E250D3780080CF8A828B35
:103D130083A3A3A3A3A3A3E0703DE9A2E04005749A
:103D2300016E70338A828B83A3A3A3A3A3A374011D
:103D330012401DE0C0E07403121422D0E012468C3E
:103D4300E0C0E07404121422D0E0F07405121422CF
:103D5300E8125F6712230574060248AAC082C08373
:103D630079011221CD025DA374F4120AFFEA4B908C
:103D730019076019E4F08A088B09F50AF50B78082E
:103D83001211287A0212329112110D800A7401F075
:103D93007A027B0012327E02337974F0120AFF74C6
:103DA300F31211BC7403121422E4F0A3F090164131
:103DB30012404B7401121422E4F0A3124D3404F0A8
:103DC30090167BE0A2E35003023E90124011740967
:103DD3001214221213F3740912142278081213AF67
:103DE300901643780812118E740512142278081263
:103DF3001391123F147405121422780812135250AF
:103E0300077A017B00023F017405121422780C1219
:103E130013AF9018A7E0F509780C7908120A90A857
:103E23000CA90D9018A8E0C398E4995003E0800111
:103E3300E8852182852283F07409121422780812FE
:103E430013AFC008C009C00AC00B7405121422784E
:103E53000C1213AF123F14780C7908120A90E4F590
:103E63000AF50BD00FD00ED00DD00C780C790812B8
:103E73001239901643780C1213918011123F0612D7
:103E83006FA2EEFAEFFB121A11AE08AF09EE4F6004
:103E9300658E828F83123504C398502DEE2403F868
:103EA300E43FF9E0FA88828983E0C39AF0602374DF
:103EB3000312142212436E7401121422EEF0A3EFC4
:103EC300126455FEA3E0FF80C48E828F83A3A3A355
:103ED300E4F08E828F83127C99740112142212549F
:103EE300D48E828F83A3A3A3A3609112642E121492
:103EF30022123F0D80897403121422124EC2740DD4
:103F0300026BD112420C90164122125FF3A3A3A3BA
:103F1300229018A6127CA1E4F50AF50B2274F01284
:103F23000AFF8A088B09890A7800790090164112E2
:103F3300404BFBEE4B601E088E828F83A3A3A3A38B
:103F4300124E8C601008E87001098E828F83124034
:103F530047EA4F70E39018A9124EC2C3E89AE99B4F
:103F630040030240047A06124007A80CA90DEA494F
:103F730070030240048A828B83E508F0A3E50912EB
:103F83004026E50AF09018A812504612401DA3E4FB
:103F9300F0A3F0901641124E8C600D8E828F83A396
:103FA300A3A3A3126FA28017901641126FA29016BB
:103FB3007BE0A2E340091240119016431213F390E1
:103FC300167BE0A2E3503A7A087B00901626E0F9CC
:103FD300121AE3EA4B4C4D70289018A6E0F508A39B
:103FE300E085080CF50DE4F50EF50F780C12112899
:103FF3007A087B00901626E0F9121AD7740412117E
:104003000D026BD47B00121A0B8A0C8B0D22121A31
:10401300F5EAF8EBF9ECFAEDFB221240212212400B
:1040230026A322F08A828B83A3A322E508F0024809
:10403300ADF08E828F83A3A3A3A3A3A32212593E21
:10404300A3A3F022A3A3A3A3E0FEA3E0FF227F0583
:10405300020E62F582E43509F583E0F922EA1240A3
:1040630065222410F582E422124073A3A3A3A322A2
:104073001242108508828509832212408122F0852D
:104083000A82850B83A3A322E50E24111240B1E01B
:1040930022E50E240E1240B122E50E24101240B187
:1040A300E0221240A922EE1240653FF58322F582F9
:1040B300E4350FF58322240FF50AE43509F50B786F
:1040C3000A22E0F912198D8A088B09EA4B2274F24D
:1040D300120AFF890B8A088B098A828B83124EC2CC
:1040E3001221F1EA4B600479B8806A1221FDE9F8E4
:1040F300900CE3E493F9E8C399400479B280567ACB
:1041030015124007AE0CAF0DEA4F700479108045CD
:104113008A828B83E4F0A3124026E50BF0750A0034
:10412300780812112C7C127D00EA2403126ADE1235
:10413300110D9016471254D47008901647800C1234
:1041430042088882898312415B70F4EEF0A3EFF09A
:1041530012220F7900024FAE124EC6EA4B888289B3
:104163008322C082C08390164780048C828D831281
:104173007800EC4D60288C828D83A3A3E0696005F1
:1041830074FF6970E68C828D83A3A3A3E06A700336
:10419300A3E06B70D6EC2403FAE43DFB80047A00C1
:1041A3007B00025DA374F7120AFFE9FD74FE6D70D4
:1041B300047C0180027C0090164780096D70027CAC
:1041C30001888289831254D4601F88828983A3A3C0
:1041D300A3E06A7003A3E06B70E7ECA2E088828936
:1041E30083A3A3E050D6F9800279FE0248ADEEF92D
:1041F300800CA3A3127CA1EE22740212110D7F0284
:10420300020E62F58312420C2212421022E0F8A33E
:10421300E0F9221242108E828F832212110D7F0346
:10422300020E62C082C0837900901647800109E0C4
:10423300FAA3E08A82F583E582458370F1025DA3E8
:1042430074F6120AFFE4F508F509780812113090A4
:104253000CE3E49375F013A4A9F012436312700006
:1042630012110DE9FE74096E70031222090241F165
:1042730074F6120AFF74FE1211BC85218285228313
:10428300E4F0A3F0A821A92288088909780812116B
:10429300307508027509007808121130126C71121A
:1042A300110D0241FC74F5120AFF74EB1211BC8567
:1042B3002182852283E4F0A3F090164780748E82D6
:1042C3008F83A3A3E0C0E07402121422D0E012593A
:1042D30085A982AA8389088A09750A0078081211B8
:1042E3002C7C127D007406121422126FC512110D5C
:1042F300740212117688088909780812113075083A
:104303001375090078081211307404121422125420
:104313007775F013A4F8AAF075F013E912435F124E
:104323006C7912110D85218285228312436E8E8250
:104333008F8312404BEE4F7085A821A922880889EC
:1043430009780812113075080275090078081211EE
:1043530030126C7112110D741502421EA42AF9E871
:104363002402FCE439FD7A427B0022E02401F0A31D
:10437300E03400F02274F4120AFF74EB1211BC7ED5
:10438300007F00A821A92288088909780812113022
:104393007508028E0978081211307C007D007A427C
:1043A30012700C12110DE9706C8E08805674021293
:1043B3001176880A890B780A121130750A13750B66
:1043C30000780A121130E50875F013A4F8AAF07505
:1043D300F013E50912435F12700E12110DE9701B01
:1043E3007403121422AA82AB837402121422E0F91A
:1043F3001221EBE970050EEE70010F0508E5087058
:10440300020509852182852283124208C3E50898A3
:10441300E509994098EEFAEFFB741502337674F6CA
:10442300120AFF8C828D83A3A312467AF0EA1262EA
:104433009B3BF583E0C0E0124637D0E0F0EA241D51
:10444300F582E43B12420612461B124675F0A3F0B6
:10445300EA241FF582E43BF58312404BEC12460E2F
:104463003DF583EEF0A3EFF01246143BF5831246BD
:1044730045A3A3A3A3A3A3EEF0A3EF125EF6FE8CC2
:10448300828D8312468474035EFEC3940340030249
:104493004601EE600874026E60030245268C828D2D
:1044A30083E0540CFE740C6E7003024565E0A2E4D5
:1044B300400D88828983E08C828D83A312469A748F
:1044C300086E60030245651246257401F08A828BEB
:1044D30083A3A3A3A3A312594B70148C828D83E0EF
:1044E300440C12468CA3A3124645EEF0A3EFF08CC6
:1044F300828D83E0A2E4402B8882124653124668E1
:10450300500109F582124653A3A3A3A3A3A3F0A3C7
:10451300EF1246948C828D83A3A3A3F0E82403F8BF
:1045230050010988828983E0C0E0EC2411F582E41C
:104533003DF583D0E01246848C828D83E0A2E75060
:104543007588828983E0FE8C828D8312469A74FC7F
:104553005E700C8C828D83A3E054036403701E028F
:104563004601124625E4F0740C6E60030244D088C1
:10457300821246591246685001090244F28C828D18
:1045830083A3E05403603288828983E0C0E0EC12A5
:10459300463F3DF583D0E012469B8C828D83E054E9
:1045A300036402701488828983E0C0E012462DD030
:1045B300E012469B8003A3E4F0EC1254433D126FD8
:1045C300A0EC2410FEE43DFFEA241DF582E43BF554
:1045D30083E0F5088E828F83E0C3982508F508F001
:1045E300EA2417F8E43BF98882F583E0C39508C011
:1045F300E012461BD0E0125EF6C39508500A12463D
:104603001BE4F0124637E4F00242012415F582E47C
:1046130022EA240DF582E422EC240DF582E43DF533
:104623008322EC1255FC3DF58322EC2414F582E43D
:104633003DF58322EC1240653DF583222413F58278
:10464300E422E0FEA3E0FF8C828D83A3A3A3A32235
:10465300124659A3A3228983E0F508A3E0FFE508E6
:104663008C828D8322A3A3A3A3F0A3EFF0E82402FB
:10467300F82212467AA322E4F08C828D83A3A3A3AB
:10468300221246A2A882A98322124021A3A3A3A394
:10469300221246A2A3E022A31246A208A983221251
:1046A3005EFFA32274F4120AFF74F31211BC8A0A88
:1046B3008B0BECFEEDFF8C82F583E0540CF508E0E8
:1046C300A2E75006E508D2E7F508E508D2E1F508C8
:1046D30012594B7006E508D2E4F508E0A2E550064E
:1046E300E508D2E5F5087C087D007900AA21AB2214
:1046F3001219637402121422E508126FA6C0E07443
:1047030003121422D0E0124D34E50AF0A3E50BF0B6
:104713007405121422126812121422E070777408BE
:10472300121422124CBA125EE83812682DC0E074DB
:10473300081214221247BBD0E012680DC0E07408BF
:104743001214221247B1D0E0F07408121422124757
:10475300A7E0124CE2124D631262FCEE24111259CF
:1047630017C0E012479DD0E0F0EE2414125917C091
:10477300E07408121422124CBA2435F582E438F599
:1047830083D0E0124D07C0E07408121422124CBE0D
:10479300D0E0126566740D023376E82432F582E4C4
:1047A30039F58322124216A3A3A3A3A3A322124C77
:1047B300CE126A0C38F58322124CCE2426F582E4FD
:1047C30038F5832274F7120AFF7E008A828B83A353
:1047D300A3A3A3A3A3A3A3A3E06404600302488940
:1047E3001255F4E060030248891254563B1254D226
:1047F300700302488988828983E054036003024876
:1048030089E81255FC39F583E0FA8C828D83A3A3E2
:10481300E0FBA3E0CB2411F582E43BF583E06A706F
:104823006588828983A3A3A3A3A3A3A3A3A31248F5
:104833008DE06A7003A3E06B704C88828983A3A325
:10484300124899E0FFA3E0CF24061259176A7003B8
:10485300A3E06B703188828983A3A3E0F88C828DF7
:1048630083A3A3E0F9A3E0F5838982A3A3E06860AF
:10487300138C828D83A3A3A3E0F5838982E0540C78
:10488300640470027E01EEF9802012489122124ED8
:10489300CA8C828D8322A3A3124891A3A322740CF2
:1048A300121422E0F9740D12110D7F01020E6274CD
:1048B300F6120AFF74FC1211BCEAFEEBFFECFAEDF0
:1048C300FB8C82F583A3E05403601690163D1254CB
:1048D300D460597900EEFCEFFD1260F3120CE18015
:1048E3004B852182852283EEF0A3EFF0740212142C
:1048F30022124D29AC21AD227A277B2212244F8A22
:10490300088B09A808A909EA4960218A828B83A335
:10491300A3A3A3A3A3A3A3A37406F07A0088828B03
:1049230083124CBA1262BCE0F91223AD7404024143
:10493300FE74F2120AFF74F31211BCEAFEEBFF8A53
:1049430082F583A3A3A3A3A3A3A3A3A3A3E0F50A2D
:10495300901907E0700579BA024C72750801750960
:1049630000750C00750D007C087D007900AA21AB51
:104973002212196374051214227401124D3C54045B
:1049830060127402121422E0D2E6124D3C540870F5
:1049930003750803E05410600674404508F508E009
:1049A300540860227402121422E044C0124D3C5495
:1049B30020600A7403121422E0D2E0800874031208
:1049C3001422E0D2E1F0EE2415125917124CA27012
:1049D30003740169700674084508F5088E828F8395
:1049E300A3A3A3A3A3A3A3A3E070161224A98521C1
:1049F300828522831263097402121422E0D2E280B8
:104A030030640F70107402121422124D4474044562
:104A130008F508807F8E828F83A3A3A3A3A3A3A3F8
:104A2300A3E064028E828F83700A126FD9E8F0A329
:104A3300E9F08060A3A3A3A3A3A3A3A3E0640370EB
:104A43000DAC21AD22EEFAEFFB12225D80468E8281
:104A53008F83A3A3A3A3A3A3A3A3E06401703590AF
:104A630016D1E060107402121422124D447509101D
:104A7300750AFF80187402121422E0440C124D349C
:104A830074FDF0A374FFF074044508F5088E828F5B
:104A930083123289EE2415125917A2E0503F740293
:104AA300121422E0540C701B8E828F83124EC2129A
:104AB3001EBBE9700579BB024C727402121422E02A
:104AC300D2E5F0EE2415125917A2E0501074021229
:104AD3001422E0540C64047004E0D2E5F0EE2411D7
:104AE300125917C0E07404121422D0E01268141291
:104AF3001422E06003024C6B7408121422124CFD62
:104B0300E508F0A3E509F0124C98E0C0E0124C8EE2
:104B1300D0E0F0124C7FE0C0E07408121422124C73
:104B2300BA12463F38F583D0E0124D636401701129
:104B33009016D1E0C0E07408121422124CD8D0E0D1
:104B4300F07408121422124CF8124C89FAE8241C4F
:104B5300F582E439F583EA124D2FEE2415FAE43F8A
:104B6300FB8A82F583127800E8125C5339F58312CD
:104B73004D29EE241C125917C0E0124C75D0E012D7
:104B83005D99124CA27003740169701374081214B6
:104B9300221255E4FAEE241D125917F91221318E0F
:104BA300828F83A3A3A3A3A3A3A3A3A3E0C0E074BF
:104BB300081214221247BBD0E0F074081214221218
:104BC30047B1E50AF074081214221254772428F529
:104BD30082E439F583E50CF0A3E50D124D0F124C79
:104BE300E21259901262FCEE124C89C0E0E82433C1
:104BF300F582E439F583D0E0F0EE241B125917C097
:104C0300E07408121422124CBED0E0F0EE241A1203
:104C13005917C0E07408121422124CBA2432F582D8
:104C2300E438F583D0E0124D07124CAE12112C126A
:104C33006A12127800740B121422124CBA242F1227
:104C43007CDC12110DEE241512591754406012909A
:104C5300165D1254D4600AAA21AB221260F3120C1F
:104C6300E1AA21AB221222CF740C121422E0F90222
:104C73004FA9E82420F582E439F58322EE2419F5BF
:104C830082E43FF58322126A21E022E82412F582AE
:104C9300E439F58322EE2418F582E43FF5832254A8
:104CA30080F8A3E05401F974806822F508A3E0F5C5
:104CB30009750A00780822124CCE22124CCE2434F5
:104CC300F582E438F58322A3A3A3A3124CD222E0F6
:104CD300F8A3E0C822124CCE12460E38F58322FA0E
:104CE300A3E0FBE8242AF582E439F583EAF0A3EB99
:104CF30022A3A3A3A312420CEE2212547B12545BF1
:104D030039F58322F0EE241312599822F0EE240D84
:104D130012599822E0FC8A828B83E02CFCA3E034B6
:104D230000FD8A828B83ECF0A3EDF022F0A3E4F084
:104D330022F085218285228322F0EE2415125998D0
:104D430022E0D2E3F0124D4C228E828F8312421066
:104D5300852182852283E8F0A3E9F022E8F0A3E924
:104D630012644FE02274F7120AFF8A828B83A3E056
:104D7300640170047E6380027E648A828B83E060B8
:104D8300087905124D9C24F3FE901679E06007F92B
:104D9300124D9C24F2FE024889122377E9F8EEC3F0
:104DA300982274F6120AFF74FE1211BC85218285C3
:104DB3002283126309E9FEECFAEDFB90053C1254E1
:104DC300D46032A821A922880889097808121130F1
:104DD3007D01740E121422E0FCEEF990053C126280
:104DE300DD120CE1740212110DEA4B6004790080AC
:104DF3000679B2800279B60241FC74F7120AFFE920
:104E0300FE9016331254D4601F7409121422E0F575
:104E1300087808121134EEF99016331262DD120C81
:104E2300E1740112110D800279B60248AD74F712D4
:104E33000AFF8908ECFEEDFF79B5E508245E6020E2
:104E430014600624F86034803D90053E124E8C6059
:104E53003512701D120CE18E828F83126309802438
:104E6300901635127800EC4D601CEEFCEFFD9016A9
:104E7300351262DD120CE1E9F9800B901631124E06
:104E830092121B0D79000248AD124EC6EA4B221254
:104E93007804EEFAEFFB2274F7120AFFE9FE79B504
:104EA30074AB6E700B901631124EC2121B0D79004B
:104EB3000248AD8E828F83A3A3A3A3A3A3A3A312AC
:104EC3004EC622124ECA22E0FAA3E0FB2274F1126C
:104ED3000AFFEAFEEBFF8C0A8D0B75080190168121
:104EE300E06E7003A3E06F700C124F9DAA0AAB0B28
:104EF300121B0D805E1224AFEE6A7002EF6B700915
:104F0300AA0AAB0B1224B5804AAC0AAD0BEEFAEF3A
:104F1300FB122005E9F5089018AEE0703612295906
:104F2300E97030E508702C901651E06E7003A3E031
:104F33006F7020EE4F601C750C49750D16750E00D1
:104F4300780C12112C7C087D00AA0AAB0B126FC9D6
:104F530012110DA9080278FC74F2120AFFEAFEEBA3
:104F6300FF8C088D09750A01124F9DEEFAEFFB12B3
:104F73001B07E964017011901681124208850882AB
:104F8300850983126FA2800EAC08AD09EEFAEFFB20
:104F930012200BE9F50AA90A80111224A38A0C8BAB
:104FA3000DAC0CAD0D22740D12110D7F06020E62B5
:104FB30074F6120AFFEAFEEBFF7A0D7B00121A0B5E
:104FC300EA4B6062EE2424126CA6F0EE2425126CE8
:104FD300A6A312506B126CACA3A3126A3F125046E5
:104FE300F0EE12502C12505BE8F0A3E9125082123B
:104FF3005053126FA2EE125035126B02A3A3A3A358
:10500300F0EE2433125917C0E012503ED0E012687C
:1050130031125053A3A3A3E8F0A3E912507AC0E0DE
:105023001255F4D0E0F0024201242AF582E43FF560
:105033008322242EF582E43FF58322EA125A6D3B44
:10504300F5832212504A22E08A828B83A3A3A322F0
:10505300126B61A3A3A3A32212505F221242108AF0
:10506300828B83A3A3A3A322F012507022EE2426E3
:10507300F582E43FF58322F0EE243212599822F0B0
:10508300EE242C1259982274F4120AFF74FE1211A2
:10509300BCECFEEDFFEC241612591764057010ECFE
:1050A3002406FCE43FFD122257E97003025136AC9B
:1050B30021AD22126D5B121EC185218285228312CE
:1050C30054D4606B8E828F83E064017058E875F06E
:1050D30009A4F8AAF075F009E9A42AF974A828F834
:1050E300740339F9E8FAE9FB8882F5837808121327
:1050F300AFEE1251D81213524027852182852283A5
:10510300124CF812592512513B78081213AF9082B2
:105113000478081212D58A828B837808121391803F
:105123000A79A28010EE240F126F9C790080067911
:10513300A1800279C8023374124D59EE126A2D22EE
:1051430074F2120AFF8A0C8B0DECFEEDFFEC125980
:1051530025E4F0A3F090820078081213AFEC12510B
:10516300D81211D26067EC240E12591E703478B332
:10517300901678E070289016AAE064017020EC2461
:1051830011125917F912235F8B09A909EE1254570B
:105193003F126307EA4960047800800278A1880817
:1051A300802EE060046402700A122269E9F5087037
:1051B30007801DE064037010EEFCEFFDAA0CAB0D3D
:1051C300121EE5E9F50880087508A180037508A398
:1051D300A908024FAE126A2D78082274F0120AFF52
:1051E30074F51211BCEAFEEBFFEA240AFCE43F8CDF
:1051F30082F583127C9D12546174031211868A8294
:105203008B831260FDE970030252C7740112118689
:10521300740312117E121EC174011214221254D48B
:1052230070030252C7E875F009A4F8AAF075F009F3
:10523300E9A42AF974A428FC740339FDE508240EB3
:1052430012654EE4F004121422124208E5081254C7
:10525300573509126FA08C828D831213E7E508245A
:105263001212654E1213F390820478081213AF8C56
:10527300828D8378081212E88C828D83780C121346
:10528300AF90827078081213AF780C7908120A90E5
:10529300E5084509450A450B702A740112142212C8
:1052A300547775F009A4F8AAF075F009E9A42AF96E
:1052B30074AC28F582740339F5837401F07A007BAA
:1052C300081254848E828F83A3A3A3A3A3A3A3A3AF
:1052D300A3A3E02406FCA3E03400FD8E828F831297
:1052E30060FD12681F603EEE240A125449124CFD01
:1052F3007468124D2FE812544339F5837402F09009
:1053030016631213E78C828D831262F6125EE83CF9
:10531300F5831213F390820478081213AF90166387
:1053230078081212E81254BF705D90163112546F50
:10533300A3A3A3A3A3A3A3A3A3A3125F1E121B0749
:10534300E97010125EDC901631125EEE7005126881
:105353001F60348E828F83A3A3A3A3A3A3A3A3A3BA
:10536300A312546F124EC2121EEBE960118E828F8C
:1053730083A3A3A3A3A3A31254ABE4F0A3F08E824D
:105383008F83125491E4F01254BF600302543E8E93
:10539300828F83A3A3A3A3A3A3127C99901678E07F
:1053A30060030254339016AAE0640160030254338D
:1053B300750A3A750B00780A1211307402121176CD
:1053C300880A890B780A12113012729812110DE9AA
:1053D300705BE508240E12654E74011254D9C0E0C7
:1053E300E508241112654ED0E0F0E508240F12659C
:1053F3004E743A124D2F90165F1213E7E5082412EC
:1054030012654E1213F390820478081213AF9016AC
:105413005F78081212E890820478081213AF90168E
:105423005F78081211D270081254808003125461FD
:105433001254BF7006125DDF74A1F0740B026BD1BE
:10544300240EF582E422F8E43FF9E8FCE9FD8882C2
:10545300F58322EA12545B22240FF582E422E50845
:1054630012545B3509F583E4F0A3F0221278048E1D
:10547300828F832212547B22124210E8227A007B0D
:1054830002901507E0F91219B7228A828B83A3A32E
:10549300A3A3A3A3A3A3A3A312549F22124CD22476
:1054A3000EF582E438F58322A3A3A3A31254B322F7
:1054B300124CD2240FF582E438F583228E828F8337
:1054C300A3A3A3A3A3A3124CCA240FF582E438F524
:1054D3008312547B49221254DD22F08521828522D6
:1054E30083E02274F6120AFFEAFEEBFF7A237B00C5
:1054F300121A0BEE240AF508E43FF5098508821217
:1055030063077C237D00790012196385088285096E
:10551300831254D470030255A7EEFAEFFB122275DF
:105523001254BF60748E828F831255DA64018E82A7
:105533008F83A3A3A3A3A3A370071255D0740E80D4
:10554300211254D4701012681F700B8E828F83A3A4
:10555300A3E0A2E050071255C6740D80051255C68C
:1055630074051268315403640170071255AE740553
:10557300800B901679E0C0E01255AED0E01255E9E9
:10558300F5838882125944850882850983124CBAAF
:1055930012629B38F583E9800E85088285098312A0
:1055A300638080031262C3F00242018E828F83A361
:1055B300A3A3A3A3A3A3A3A3A31255C022E0126290
:1055C300E2A3228E828F83A3A3A3A3A3A3124CCA15
:1055D3001262A138F58322A3A3A3A3A3A3A3A3A326
:1055E300A312549FE0221255ED22126D70F8A3E02E
:1055F30022EA1255FC3BF58322240CF582E4227443
:10560300F1120AFF74E41211BC8A0C8B0D8C088D05
:10561300097A237B00121A0B8A0A8B0BAE0AAF0B93
:10562300EA4F70030258FF1262A7E50824151259C6
:1056330030687003A3E0698E828F837004740280E4
:10564300027401F0E508240DF8E43509F98882F5C0
:1056530083E0FAC3E49AFA95E0FB12592C2AFAA3E1
:10566300E03BFB8E828F83A3A3A3A3125F058E82ED
:105673008F83A3A3F0EE2420F582E43FF583E4F0C7
:10568300EE2421F582E43FF583E4F0EEFAEFFB121A
:10569300232985088285098312594B70098E828FCD
:1056A30083A374058006901679125939F0EE2417F6
:1056B300F50AE43FF50B8E828F83125944E9850A7C
:1056C30082850B83F0EE2416F8E43FF9E508240EF7
:1056D300FAE43509FB88828983124D17E508241003
:1056E300FAE43509FB850A82850B83E0FC8882890D
:1056F30083E0F88A828B83E0C398C39CF8125985B0
:10570300F0EEFCEFFDAA0CAB0D12226FE9F50B8E48
:10571300828F83E064027006125EDC125909E50B86
:1057230060030258F6750C00750D009018AEE06426
:10573300016005E06402703F12591B6008EE2421EA
:1057430012591E70328E828F83A3A3A31262C912D1
:105753005951EE241612591712597AFAE439FB12E9
:105763004009EA4B6011126B2B12112C12595FAADC
:105773000C126FC912110DEEFAEFFB122335E9F586
:105783000B9018AEE064016008E064026003025805
:10579300E9E970030258E9E50C450D70030258F678
:1057A3008003850E0B12591B600BEE242112591E28
:1057B30060030258EF850B0E850C08850D09750AE9
:1057C30000780812112C12595F8E828F83A3A3A332
:1057D300A3127CE212110DEE2420125917600D1250
:1057E30059247468124D2FEE24208015EE242112C3
:1057F300591760151259247403F0A37401F0EE24B1
:1058030021F582E43FF583E4F0EEFAEFFB12233552
:10581300E9F50B70907C137D007900740912117EF9
:10582300121963741A121422740112599064687065
:1058330002A3E0704F8E828F831254ABE064056045
:10584300030257A57C0879FF8E828F83A3A3A3A3AA
:10585300E0242A125F211219EDE970030257A57C97
:10586300087D0079FF740112117E1219637401120D
:1058730011867A007B0079AB12225174191214221B
:1058830074FC8015125924E064037004A3E06401DE
:105893007008741912142274FFF0E4F508F50978FE
:1058A3000812113074021211867413121422AA8280
:1058B300AB8312640612110D852182852283E06079
:1058C3002B7409121176880889097808121130752A
:1058D300081375090078081211307C007D00126CE2
:1058E3007912110D8006E50C450D6007AA0CAB0D6E
:1058F300121A11EEFAEFFB121A118003750B10A99D
:105903000B741C0278F9EE2406FAE43FFB121B0D1C
:1059130022EE240C12599822EE2420125998640185
:1059230022EE12545B3FF58322E508240EF582E450
:105933003509F583E02212593EA322E08E828F833C
:1059430022A3E0F912237722E054036401221259BF
:105953005522E0FAE82AF8E43400F9228E828F8394
:10596300A3A3A31262CD125955EE2416125998120D
:10597300597AFCE439FD22FAE82AF8E439F9E824F3
:10598300042212598922126840A3A3A322F01259B8
:105993009522EE240FF582E43FF583E0227901029C
:1059A30010BD74F4120AFFEAFEEBFF8A82F583A3AB
:1059B300A3A3A3A3A3A3A3124CBA2424F582E4387C
:1059C300F58312594B702E8A828B831255DA702518
:1059D300125A73E06405701D125A73A3E0F8740140
:1059E300686005740668700712548D74028005128E
:1059F300548D7403F0EA240A1263741262DDE4F036
:105A0300EA2408F8E43F1233632431F582E43AF5DB
:105A130083E0C0E0127014A3A3D0E0125A92CA2408
:105A23002EF582E43AF583E0C0E0127014A3A3A339
:105A3300D0E0125FB8C8125A6D38124206127014C1
:105A4300125A878A0A8B0BAC0AAD0B85088285092B
:105A530083125F1E121B0D850882850983124EC2B5
:105A630012233512636FF0023379240BF582E4229B
:105A73008A828B83A3A3A3A3A3A3A3A3126806F57C
:105A830083888222A3A3A3A3124D591224A3221213
:105A93005EFAFAA3E0220259A0C082C08390165393
:105AA300747BF0A37422F09016557487F0A37422CC
:105AB300F0901657748DF0A37422F09016597481E8
:105AC300F0A37422F0025DA374F4120AFFEA24081F
:105AD300FEE43BFF8E82F5831254771262B3E0F546
:105AE3000874035508F509125F19F8A3E08882F5D5
:105AF30083E508F0A3A882A983E509600974026518
:105B0300096003025BB8740C5508FC600A74086CE6
:105B1300600574046C7026740265097006E508A2BA
:105B2300E4401A8A828B83A3A3A3A3A3A3A3A312F0
:105B33005CBE126A0C3D125C59A308A983740C6CF9
