:020000040000FA
:0600000002137202084227
:03002B000210D5EB
:03003300020F7148
:0300530002077130
:100083000207D301010000000000F8FF07FFFF0093
:10009300000504000000030001FFFFFFFF00142020
:1000A3004E00000020FD000206FFFF1E1900320073
:1000B300007701DF15E515FD1B00000000000000BF
:1000C300000000000000000000000000000000002D
:1000D300000000000000000000000000000000001D
:1000E300000000FF0104010C0002050D81043281B0
:1000F300010400000515000000E8030000FFFF569F
:100103001588130000E8030000C800C800B801A068
:10011300BB0D00A0BB0D00020202070401071E0273
:10012300051E020A0A010108080103B80B02803EFA
:100133000102FEFFE8030A050001FFFF020A0114A2
:1001430001E00100B0423BAAB83F0000003F8C90A1
:100153006339AA0CA33A00941E3C8042633DCFFE50
:10016300753E1572313F0000803FF304353F8096A2
:10017300184B000080BF2292D43EDD9B2A3F04002F
:100183000040FFFF7F7FFFFF7FFF01008034187275
:10019300313F050301010F030003000300030003C4
:1001A30000030003000300030005000A00140028F5
:1001B300004F009E000000062E00000000DA2C0015
:1001C300000000FF000000FF001213A0604612139E
:1001D300BE603DE9687008F618F618F618F6227442
:1001E3008067F7120200090909748067F722121366
:1001F300BE601D1213A07005191919801A12124D31
:10020300701F121261C37003E6673319191940078F
:100213001818182208080874FFF618F618F618F6C6
:1002230022121261601712142C702192F0121435ED
:100233007019501720F014080808090909E7F6187F
:1002430019E7F61819E7F61819E7F62212143560BC
:10025300E6E869701F0808E62480F608E436F61815
:10026300547FB47F0CE654806007F6E418F618F662
:1002730022181822E9C6CC08C6CD08C6CE08C6CFB8
:10028300C0E0E8C0E0EAC0E0EBC0E009E9F809E754
:10029300FA09E7FBE6F918E6F8C3EC98ED99EE9A4C
:1002A300EBC2E7F5F0EFC2E795F0500E600CEBCF31
:1002B300FBEACEFAE9CDF9E8CCF8EAA2E7D2E7FA0D
:1002C300EB33FB13F5F0EEA2E7D2E7FEEF33FFC506
:1002D300F013A2E730E601B313C5F0C3C0E0C0F0EA
:1002E3007F00C39BFB605E9418600F401D14601A6F
:1002F300D0E023F9D0E0F80203D28AF0E9486003A2
:10030300D2F0E4AFF0FAF9F8803BEB30E40D89F07A
:10031300EA6003D2F0E4AFF0F9CAF8EB30E30D88FA
:10032300F0EF6002D2F0AFF0E4CAC9F8EB54076013
:1003330014FBC3EA13FAE913F9E813F8EF135002B5
:10034300D2E0FFDBEDD0E0C0E030E739C3E49FFF4C
:10035300F5F0EC98FC42F0ED99FD42F0EE9AFE4286
:10036300F0D0E0F9D0E0F8E5F0607AE923F9EE2087
:10037300E742D8028067C3EF33FFEC33FCED33FD74
:10038300EE33FE80EAEC28FCED39FDEE3AFED0E0D8
:1003930023F9D0E0F84002801BC3EE13FEED13FDFA
:1003A300EC13FCEF135002D2E0FF08B800067F7F86
:1003B30074FF802EEF3350178CF020F00260100C86
:1003C300BC000C0DBD00080EBE000408E860DFE9A8
:1003D30033E813FFEE2313FE4F4D4C8008E954809E
:1003E300FFE4FEFDFCEE33EF33F47004FCFD7E808E
:1003F300D0E0FBD0E0FAD0E0F8D0E0CFC618CEC60C
:1004030018CDC618CCC6F9221213BE7004181818DA
:10041300221213A0700D74FFF61819F61819F618A6
:1004230019F622E7548066F6121435700F12142C55
:1004330070F014F608F608F608F680D112142C7042
:100443000CF608F608768008E6447F80EC12126406
:10045300700C12125060BFE65480F6E480BB121297
:1004630050700519191980A5E869700C763F187644
:100473008018F618F6E8F922E6CDC0E018ECC0E0E3
:10048300E633CD33CDD313F6E719FCE7191933CC93
:1004930033C3947F400ECD9D502408E65480F6E488
:1004A30018F6800FF4043D14501408E6447FF61840
:1004B3007680E418F618F6D0E0FCD0E0FD22CCD329
:1004C30013CCFD18E4C6CBC0E018E4C6CAC0E008EC
:1004D30008ED08C633E613F618E433C675F003C314
:1004E300CA97CA09CB97CB199C40047D08802EBDBF
:1004F30000030205B416B6FF050606081618C3CA9C
:1005030033CACB33CB33CA27CA09CB37CB193CC346
:100513007D08803E187D0820E75CC633C6CA33CA0F
:10052300CB33CB33DDF1D5F0EB30E77BCA97CA0988
:10053300CB974ACB199C406F4B7025E620E0218076
:1005430066187D08C3CA97CA09CB97CB199CD3C633
:1005530033C6CA33CACB33CB3350C9DDE7D5F0E159
:10056300D3E4C636C608C636C608C636C608C63677
:10057300C61818188031C3CA97CA09CB97CB199CE0
:10058300B34097C633C6CA33CACB33CB33DD34D576
:10059300F02EC6A2E0C640C8CA27CA09CB37194AFB
:1005A30070BECB3CB480B90808E63308E633601F5D
:1005B300181818D0E0FAD0E0FBD0E0FCD0E0FD2220
:1005C300187D08CA27CA09CB37CB193CD3808013BF
:1005D300F618E4B67F11F618B6FF0EF618C60470C7
:1005E300D20808768080CAF618F618F680C500127D
:1005F30013BE604F1213A06012E7548066F6121206
:100603004D701112142C703B090909F4F618F618F1
:10061300F618F622121261701512143508080860D4
:10062300EAE6447FF618768018E4F618F6221214E8
:1006330035601612142C7012E4F608F608F608E674
:100643005480F609090918181822EAC0E0EBC0E043
:10065300ECC0E0EDC0E0E687F0A4FBACF008E68771
:10066300F0A42CFCE435F0FA1809E687F0A42C4B2F
:1006730060027401CA35F0FCE433FB09E687F0D26B
:10068300F7A42CCB35F0FC1908E687F0A42BCC3566
:10069300F0FBE433FD0819E687F0D2E7A42C4ACB3C
:1006A30035F0CD3400FC09E687F0D2E7A42DCC3534
:1006B300F0FDE433FA0918E687F0D2F7A42CCD3520
:1006C300F0CA3400FC08E687F0D2E7D2F7A42ACCBC
:1006D30035F07A7E20E70B0ACB33CBCD33CDCC3349
:1006E300CC33CB3350147004ED30E00ED2F1E4CDB3
:1006F3003DCDCC3CCC3B5005DA05C2F1EB547FC673
:100703003308E63392F0FBE73309E733C39A502DFE
:100713002B70190C0D4C4D70151806E608C3337079
:100723000D20F10AA2F013F6E418800B4024E4F63E
:1007330030F002768018F618F618F68024D33B14AE
:10074300501074FFA2F013F6187680E418F618F62A
:10075300800FA2F013F618E63303F618ECF618ED43
:10076300F6D0E0FDD0E0FCD0E0FBD0E0FA22C0E020
:1007730074F1120BD3A2AFE433F509D2AF85A70806
:10078300AFA1EF5508FE74105E60061216A575A1A1
:10079300EF74085E60081216AB75A1F78024EFA210
:1007A300E092F0E508A2E082F05017906198E0F83B
:1007B300900586E0C398A2D265D0335002E8F07565
:1007C300A1FE752300E509A2E092AF7F02020C327D
:1007D300C0E074F2120BD3A2AFE433FED2AF906148
:1007E300A4E0F8759B00E59158540860087591F7EB
:1007F3001216F98023E59158541060087591EF1291
:1008030016FF8014E591A2E092F0E8A2E082F05096
:1008130007E0C2E0F01218559061A3E0F8E5E9584B
:100823005404600E12182B75E9FB906193E0A2E665
:1008330040F2752300EEA2E092AF7F01020C32C0BA
:10084300E074F2120BD3A2AFE433FED2AF9061A5F2
:10085300E0F8E5BF585404600675BFFB12186D80BD
:10086300D11208AF30F0391208F480341208AF20E7
:10087300F01430E72B74FFFCFBFA747F8022E4FC56
:10088300FBFA7480801AB48008BC00F2BB00EF80CE
:100893000F50EBF9E4C39AFAE49BFBE49CFCE49964
:1008A300C6CC18C6CB18C6CA18C6F922E4C9C608EE
:1008B300CAC608CBC6D3330308CCC63392F0C3945D
:1008C3007F402E94184019C9B90704CACBCC2250D3
:1008D30025C309CA33CACB33CBCC33CC33D9F422A7
:1008E300F4600DC9CCC313CB13CBCA13CAD9F6CC4E
:1008F30022E4FCFBFA2214FCFBFA22C3E498F8E49A
:1009030099F912093F8026C3E49AFAE49BFBE92094
:10091300E7E912093FE498F8E499F922C3E498F867
:10092300E499F912093FE498F8E499F9C3E49AFACF
:10093300E49BFB22EB20E7CFE920E7E0B90010BB03
:100943000008E88AF084F8AAF022E4FBC8FA22EB54
:1009530070227B10C833C8C933C9335007C39AC345
:10096300DBF280069A50012ADBEAC833F4C8C933A4
:10097300F4C9FA2275F008E4C833C8C933C933C9C6
:100983009AC99B5004C92AC93BD5F0ECFBC833F480
:10099300C8E4C9FA22080808EAC0E0EBC0E086F020
:1009A300E7A4FA180986F0E7A42AFA180986F0E7FB
:1009B300A42AFA180986F0E7A42AFA1986F0E7A40C
:1009C300FBE5F02AFA190886F0E7A42BFBE5F03AD9
:1009D300FA190886F0E7A42BFBE5F03AFA18180990
:1009E30086F0E7A4C5F02BFBE43AFA1908E7C5F053
:1009F300C6A426F6E5F03BFBE43AFA1886F0E7A432
:100A0300F6E5F00826F6E43B08F6E43A08F6D0E00B
:100A1300FBD0E0FA22080808E630E711121225128B
:100A23000A30080808C64480C6181818221818186F
:100A3300E9799EC608CAC608CBC608CCC6C37020CF
:100A43007996CACBCC7019798ECBCC70137986CCBE
:100A5300700EF9802ACA33CACB33CBCC33CC3319CB
:100A630030E7F2CCCBCA3350147004EA30E00DE423
:100A7300CA3ACACB3BCBCC3CCC500209C3E913C620
:100A8300CC182313C6CB18C6CA18C6F922E4CFC0A4
:100A9300E0E4CEC0E0E4CDC0E0E4CCC0E075F020FB
:100AA300E626F608E633F608E633F608E633F618E4
:100AB3001818EC33FCED33FDEE33FEEF33FFC3ECDC
:100AC3009709ED9709EE9709EF97191919400FFF49
:100AD300EC97FC09ED97FD09EE97FE191906D5F081
:100AE300BFECF709EDF709EEF709EFF7191919D07C
:100AF300E0FCD0E0FDD0E0FED0E0FF222521C5825E
:100B0300C0E0E52234FFC583C0E0E521C39582241C
:100B1300F810AF088583228582218008858322858A
:100B23008221D2AFCEF0A3E520F0A37808E608F047
:100B3300A3DEFAEFF0A3E58124FAF8E608F0A3E6D2
:100B430008F0A3E608F0A30808E608F0A3E608F017
:100B5300A315811581D0E0FED0E0F815811581152C
:100B630081E8C0E0EEC0E022121417B90003020BC3
:100B7300BDE490050178F479138002F0A3D8FCD981
:100B8300FA78239000867A01BA00028007E493A3DF
:100B9300F608DAF97AF47B179000877846790280B1
:100BA30015E493A3AD82AE838A828B83F0A3AA82DA
:100BB300AB838D828E83D8E9D9E77582837583C62B
:100BC30074041210B775824F75832A74001210B71C
:100BD300C0D02521C582C0E0E52234FFC583C0E033
:100BE300E521C3958224F310AF08858322858221F2
:100BF3008008858322858221D2AFC8F0A3E9F0A3C0
:100C0300EAF0A3EBF0A37908E709F0A3D8FAECF034
:100C1300A3EDF0A3EEF0A3EFF0A3D0E0F0A3D0E0B8
:100C2300F0A3D0E0F0A3E520F0A3E5F0F0A3228544
:100C33002283852182E0C0E0A3E0F9A3E0FAA3E0E8
:100C4300FBA37808E0F608A3DFFAE0FCA3E0FDA32A
:100C5300E0FEA3E0FFA3E0C0E0A3E0C0E0A3E0F573
:100C6300D0A3E0F520A3E0A3F5F010AF088583221D
:100C73008582218008858322858221D2AFD082D0CC
:100C830083D0E0F8D0E032121228181818120A9014
:100C930012132119191922121321191919080808F5
:100CA300E618181820E7E0120A90121228181818EC
:100CB30022090909E719191920E7DC080808E618C9
:100CC300181820E703020A90121228181818120A9B
:100CD3009012122818181812132119191922E473E3
:100CE300FF75F0108E248F25858229858328852121
:100CF30082852283E0CEA3E0CF852982852883EBFA
:100D0300C9EAC8EDCBECCAC3E833C8E933C9EA334F
:100D1300CAEB33CBC3EA9EF527EB9FF526B350040A
:100D2300AB26AA27EC33CCED33CDD5F0DAAE24AF26
:100D330025221213BE601C1213A060171214357003
:100D43000712142C7001D322C0D012142C7006D0B9
:100D5300D0B322C32233D0D0501430E0F6C3E79689
:100D63000809E7960809E7960809E796B32220E001
:100D7300D5E6970809E6970809E6970809E697B3C1
:100D830022D083D082ECC0E0EDC0E0E493A3FCE486
:100D930093A3FDED4C600D120EA8EC24FFFCED3483
:100DA300FFFD80EFE493A3FCE493A3FDED4C600D02
:100DB300120F9CEC24FFFCED34FFFD80EFD0E0FD2F
:100DC300D0E0FCE493A3C0E0E493C0E0221213BE9E
:100DD300601B1213A06016121435700712142C60D6
:100DE3000CB322C0D012142C7005D0D022C32233EE
:100DF300D0D0501330E0EBC3E7960809E796080913
:100E0300E7960809E7962220E0E4E6970809E697C3
:100E13000809E6970809E69722D083D082E9C0E063
:100E2300E493A3C386F0C5F095F0F908E493A38691
:100E3300F0C5F095F0700BE493A3C3994005E90462
:100E43008002A3E475F002A42582F582E5F03583E0
:100E5300F583D0E0F9E493A3C0E0E493C0E02285F6
:100E63002283852182E0A3FEE0A3F5207808E0A396
:100E7300F608DFFAE0A3FFE0A3C0E0E0A3C0E0E0F0
:100E8300A3C0E0E0A3C0E0E0A3C0E010AF08858208
:100E9300218583228008858221858322D2AFD08356
:100EA300D0820210BDC0E0C3E49396087401939608
:100EB30018400FE493667008087401936618700075
:100EC3007019A3A3C3E49396087401939618A3A37C
:100ED300400DD0E0D0E0D0E0020DC0A3A3A3A3A3B4
:100EE300A3D0E0227404800474028000CCC0E0ED3F
:100EF300C0E0E521C39CCCAD2250011D10AF068C90
:100F0300218D2280068C218D22D2AF121039D0E0A0
:100F1300FDD0E0FC2274028000CCC0E0EDC0E0E52F
:100F230021C39CCCAD2250011D10AF068C218D2214
:100F330080068C218D22D2AF121017D0E0FDD0E0B5
:100F4300FC221213BE60251213A060201214357008
:100F53000302142C080808E76670101819E7667076
:100F63000A1819E76670041819E76622F422C0E02C
:100F730074F2120BD3A2AFE433FED2AFE58BA2E03F
:100F8300500579041215FD758B00C2E8752300EE38
:100F9300A2E092AF7F01020C32C0E0C0F088F0E41F
:100FA300936670080874019366187000A8F0A3A3F1
:100FB300700BD0F0D0E0D0E0D0E0020DC0A3A3D0FE
:100FC300F0D0E022D083D082CCC0E0E493A36006CB
:100FD3001210981470FAE493A360061211A6147009
:100FE300FAD0E0FCE493A3C0E0E493C0E022C0089D
:100FF300C3E096F50808A3E096420808A3E09642EA
:101003000808A3E0964208A2D265D033E508700130
:10101300D3D00822CAC0E0E493A3C582CCC582C55D
:1010230083CDC583F0A3C582CCC582C583CDC583DB
:10103300DAE5D0E0CA22CAC0E0E0A3C582CCC5820B
:10104300C583CDC583F0A3C582CCC582C583CDC579
:1010530083DAE6D0E0CA22C008C3E096F50808A305
:10106300E096420808A3E096420808A3E0964508E4
:101073007001D3D0082270090808082260161818D6
:1010830018C6C333C608C633C608C633C608C63334
:10109300C6D5E0EA22C0E0E493A3D39C5010E493C6
:1010A300A3C39C400AD0E0D0E0D0E0020FE4A3A3A6
:1010B300A3D0E022C09FF59FE473D09F22D083D0BA
:1010C30082C09FE493C0E0740193C0E0740293F57F
:1010D3009F22C0E0C0D0E8C0E0A8A8D2AFC2C775C5
:1010E3002300E8A2E792AFD0E0F8D0D0D0E03225D9
:1010F30021F58210AF08F521400C15228008F52157
:1011030040021522D2AF8522832200C0D0252110B0
:10111300AF08F521500C05228008F5215002052265
:10112300D2AFD0D0227404800A7403800674028084
:10113300027401C0E0F4041210F2D0E01213DA22B8
:10114300BB0102E722C082C08389828A83BB00037A
:10115300E08002E493D083D082226016080808C698
:10116300C313C618C613C618C613C618C613C6D5E6
:10117300E0EA222521F8E43522F9222521FAE43593
:1011830022FB222521FCE43522FD22C3E0C696F68C
:1011930008A3E0C696F608A3E0C696F608A3E0C641
:1011A30096F622C0E0E493A36C7009D0E0D0E0D0BF
:1011B300E0020FE4A3A3D0E022252110AF08F5211C
:1011C300400C15228008F52140021522D2AF22E0FF
:1011D30066701008A3E066700A08A3E0667004084E
:1011E300A3E06622C3E09608A3E09608A3E096086E
:1011F300A3E096A2D265D03322E76670100809E710
:1012030066700A0809E76670040809E76622C3E006
:1012130096F008A3E096F008A3E096F008A3E09602
:10122300F022181818E4C396F608E496F608E49634
:10123300F608E496F622C3E697F60809E697F60859
:1012430009E697F60809E697F622181818E60846FD
:10125300087009E626087005E633F42208221919F6
:1012630019E70947097009E727097005E733F422ED
:101273000922C3E493960874019396087402939623
:10128300087403939622E627F60809E637F6080959
:10129300E637F60809E637F622700422600D18C611
:1012A300C333C608C633C6D5E0F41822E657F6089A
:1012B30009E657F60809E657F60809E657F622E065
:1012C30056F608A3E056F608A3E056F608A3E05640
:1012D300F622E026F608A3E036F608A3E036F60881
:1012E300A3E036F622E026F008A3E036F008A3E0F8
:1012F30036F008A3E036F022E056F008A3E056F0FB
:1013030008A3E056F008A3E056F022E647F60809E2
:10131300E647F60809E647F60809E647F622E4C376
:1013230097F709E497F709E497F709E497F7226039
:101333000D08C6A2E713C618C613C6D5E0F322C626
:10134300F4C608C6F4C608C6F4C608C6F4C622C363
:10135300E09608A3E09608A3E09608A3E09622C3CC
:10136300E7960809E7960809E7960809E7962275BC
:10137300D00075813F75210175220500020B6B605A
:101383000C08C6C313C618C613C6D5E0F422E6F08C
:1013930008A3E6F008A3E6F008A3E6F022E709476E
:1013A30009C3134709336002E733F422E0F608A3C5
:1013B300E0F608A3E0F608A3E0F622E6084608C331
:1013C300134608336002E633F422800100E9F8741F
:1013D300FF28F90470F622CAC0E0E6F0A308DAFA9F
:1013E300D0E0FA22E0F8A3E0F9A3E0FAA3E0FB22BD
:1013F300E8F0A3E9F0A3EAF0A3EBF022EAF0A3EB11
:10140300F0A3ECF0A3EDF022E0FAA3E0FBA3E0FCF1
:10141300A3E0FD22E5C754F84401F5C7790122256D
:1014230021F582E43522F58322E727194719471965
:101433004722E62618461846184622C2AF75D69F9D
:10144300020000221210C0C3D5031210C01FD6031E
:101453001210C07DD6031210C0F0D6031210C03490
:10146300D7031210C08CD7031210C0AED7031210CB
:10147300C03ED8031210C0CFD8031210C01BD9032B
:101483001210C047D9031210C088D9031210C02705
:10149300DB031210C009DC031210C0DEDC031210E0
:1014A300C063EC011210C0F7EC011210C05FED0134
:1014B3001210C084EE011210C00EEF011210C09979
:1014C300EF011210C0D5EF011210C06EF00112101F
:1014D300C003F1011210C0D6F1011210C0B8F3011C
:1014E3001210C06CF4011210C062F5011210C00199
:1014F300F6011210C056F6011210C0C4F601121004
:10150300C0D0F9011210C0FAFB011210C0FBFC019C
:101513001210C039FE011210C044FE011210C05B4C
:10152300B7041210C084B7041210C09FB70412107E
:10153300C0C4B7041210C065B8041210C080B80448
:101543001210C03EB9041210C068B9041210C04B87
:10155300BE041210C007BF041210C0ECBF04121067
:10156300C048D0041210C059D0041210C0F7D004E0
:101573001210C002D1041210C01CD1041210C0F505
:101583007F001210C0E7FF031210C02BD10412100A
:10159300C03BD1041210C04DD1041210C0FFD104BE
:1015A3001210C055CE041210C0D9CE041210C0417F
:1015B300CF041210C0E8B4041210C006B504121010
:1015C300C03BB5041210C060B5041210C083B5044B
:1015D3001210C0BEB5041210C0EBB5041210C03215
:1015E300B6041210C0D1B6041210C05ACF041210A0
:1015F300C0A7CF041210C0B0CF041210C0D7CF04BD
:101603001210C01FD0041210C036D0041210C0EC48
:101613007F001210C0EF7F001210C0F87F0012107D
:10162300C07DC2041210C0B5C2041210C003C404AA
:101633001210C087C4041210C05A8E041210C08640
:101643008E041210C0F090041210C03091041210D6
:10165300C06C91041210C08091041210C0999104BF
:101663001210C08B92041210C03E93041210C05289
:1016730093041210C083FE011210C0A7FE011210C2
:10168300C0C0FE011210C0FEFE011210C02EFF01E9
:101693001210C05BFF011210C065FF011210C0CB16
:1016A300FF011210C0CEFF011210C0D8FF011210AB
:1016B300C0E5FF011210C040FD031210C060FD031E
:1016C3001210C09FFD031210C0BDFD031210C0D83D
:1016D300FD031210C03EFE031210C04AFE03121097
:1016E300C0A7FE031210C0B6FE031210C0DAFE0339
:1016F3001210C09BFF031210C0A8FF031210C0B941
:10170300FF031210C0FAD3041210C042D404121003
:10171300C06ED4041210C0A893041210C002950422
:101723001210C01095041210C02395041210C03873
:1017330095041210C04D95041210C0609504121048
:10174300C0DC95041210C04196041210C0C996045F
:101753001210C04197041210C01A98041210C02A24
:1017630098041210C03998041210C061D3041210E7
:10177300C085D3041210C0ADD3041210C0D5D30456
:101783001210C0B8B9041210C0DFB9041210C0FDA2
:10179300B9041210C06CBA041210C0237D001210D9
:1017A300C03C7D001210C0487D001210C05C7D005B
:1017B3001210C07A7D001210C0847D001210C08EFA
:1017C3007D001210C0A17D001210C0277E001210F0
:1017D300C09C7E001210C0CB7E001210C0197F0087
:1017E3001210C0687F001210C0837F001210C08DDA
:1017F3007F001210C09E7F001210C0E17F00121004
:10180300C04FD5041210C09AD5041210C0B9F30307
:101813001210C0E5F3031210C002F4031210C01536
:10182300F4031210C030F4031210C08AF403121030
:10183300C0B8F4031210C0C8F8031210C026FA038C
:101843001210C058FA031210C0BBFA031210C027BB
:10185300FC031210C04FFC031210C064FC031210EF
:10186300C074FC031210C0B4FC031210C0F6FC03D6
:101873001210C006FD031210C001CB041210C01BCE
:10188300CB041210C043CB041210C05CCB04121063
:10189300C080CB041210C09ECB041210C0B5CB0481
:1018A3001210C0E3CB041210C0FECB041210C0050B
:1018B300D2041210C049D2041210C02CA504121075
:1018C300C03CA5041210C041A6041210C073A604A4
:1018D3001210C0A3A6041210C0C6A6041210C0DDC5
:1018E300A6041210C017A7041210C07CA70412107C
:1018F300C0BEA7041210C005A8041210C032A80469
:101903001210C05DA8041210C06BC8041210C07D71
:10191300C8041210C091C9041210C094C904121053
:10192300C04FCD041210C085CD041210C09DCD044C
:101933001210C0DFCD041210C0EFCD041210C0335B
:10194300CE041210C03DCE041210C06387041210DF
:10195300C0A687041210C00B88041210C02A880482
:101963001210C0CC88041210C0D588041210C026EF
:1019730089041210C04F89041210C05C890412102C
:10198300C0CE89041210C05C8A041210C0A18A045C
:101993001210C0DA8A041210C03F8B041210C06800
:1019A3008B041210C0DF8B041210C02E8C04121093
:1019B300C06B8C041210C0A08C041210C0B28C0433
:1019C3001210C0C48C041210C0E38C041210C0ECBB
:1019D3008C041210C0AD8D041210C0F08D041210CF
:1019E300C02E8E041210C0FED5041210C0C1C9044B
:1019F3001210C00DBC041210C043BC041210C08BE3
:101A0300BC041210C0E4BD041210C060AB0312107A
:101A1300C086AC031210C0C2AC031210C080AE0368
:101A23001210C0AEAE031210C018B1031210C0588A
:101A3300B1031210C0FAB2031210C090B303121014
:101A4300C0EAB3031210C07AB4031210C0BEB403C9
:101A53001210C000B5031210C065B6031210C0E522
:101A6300B7031210C026BA031210C054BA031210DF
:101A7300C080BA031210C089BA031210C0E6BA03B9
:101A83001210C07FBB031210C096BE031210C01CFD
:101A9300BF031210C0B7D2041210C0CFD204121069
:101AA300C0D9D2041210C02FD3041210C0E49C0476
:101AB3001210C0FA9C041210C09B9D041210C0DACD
:101AC3009D041210C0F79D041210C0289E0412102A
:101AD300C0759E041210C0A99E041210C0E49E0497
:101AE3001210C0E1A0041210C047A1041210C000DC
:101AF300FF021210C05FFF021210C09DFF021210FE
:101B0300C0DEFF021210C0A6D5041210C0B9A50290
:101B13001210C0C5A5021210C027A6021210C031B0
:101B2300A6021210C0BEA6021210C0FAA60212101C
:101B3300C0AFA7021210C00EA8021210C0B3A802B1
:101B43001210C031A9021210C0FDAA021210C0580F
:101B5300AD021210C0C0AE021210C06CAF02121060
:101B6300C042B4021210C037B5021210C0CFB50282
:101B73001210C0F4B5021210C0A2B6021210C0C0F7
:101B8300B6021210C02EB7021210C04DB7021210C7
:101B9300C07AB7021210C018B9021210C039B902C4
:101BA3001210C0DFB9021210C027BA021210C09B74
:101BB300BA021210C029BB021210C086BB02121057
:101BC300C0FFBB021210C07BBD021210C0DFBF02F8
:101BD3001210C068C0021210C096C0021210C000DA
:101BE30080041210C09180041210C0688204121085
:101BF300C08C82041210C09182041210C0B38204FC
:101C03001210C0D382041210C01984041210C0BE73
:101C130084041210C07A85041210C0638604121063
:101C2300C0B5A8041210C074A9041210C0DAA90424
:101C33001210C089AA041210C02F96031210C05E9E
:101C430096031210C0D696031210C0E59703121024
:101C5300C04198031210C0AE99031210C0CA990371
:101C63001210C01C9A031210C05F9A031210C072A4
:101C73009A031210C0CA9A031210C08C9B0312104D
:101C8300C0089C031210C03F9C031210C0779C0332
:101C93001210C0099E031210C0E89E031210C03632
:101CA300A0031210C019A1031210C0A5A1031210A2
:101CB300C0E5A1031210C004A2031210C04FA20377
:101CC3001210C06FA2031210C008A3031210C08E1B
:101CD300A3031210C0E9A3031210C029A403121016
:101CE300C0BFA6031210C0D8A7031210C01EA803BA
:101CF3001210C013A9031210C03BA9031210C03E57
:101D0300A9031210C048A9031210C064A90312103A
:101D1300C0DEA9031210C017AA031210C043AA03FE
:101D23001210C06AAA031210C08EAA031210C0FFB9
:101D3300AA031210C012AB031210C041AB0312105E
:101D4300C071D4041210C07DD4041210C0B1D404E5
:101D53001210C0F27F001210C00080031210C023C3
:101D630080031210C07081031210C0B981031210D6
:101D7300C02582031210C08382031210C08682031F
:101D83001210C0D782031210C04C83031210C0D1AB
:101D930083031210C0D483031210C055840312109E
:101DA300C09684031210C08288031210C02C8A03C9
:101DB3001210C07C8A031210C0038E031210C036A7
:101DC3008F031210C0B090031210C04D9103121074
:101DD300C03892031210C08D94031210C07BBF034E
:101DE3001210C025C0031210C090C0031210C0AB64
:101DF300C0031210C030C1031210C08AC1031210F5
:101E0300C0D1C1031210C038C2031210C0B7C3033C
:101E13001210C0E6C4031210C06EC5031210C077BF
:101E2300C7031210C024C8031210C0C8C80312107D
:101E3300C099C9031210C054CB031210C0ECCC03D9
:101E43001210C07FCD031210C0A5CE031210C0C65E
:101E5300C2021210C029C3021210C086FE02121061
:101E6300C0B5C3021210C010C4021210C06DC40268
:101E73001210C0A8C4021210C02AC5021210C084D6
:101E8300C5021210C002C7021210C082C70212108C
:101E9300C0DDC7021210C0F7C7021210C018C80273
:101EA3001210C072C8021210C0EECA021210C00D86
:101EB300CB021210C0FDCB021210C030CD021210A3
:101EC300C0AFCD021210C0EBCD021210C05ACE0229
:101ED3001210C00FCF021210C0E7D0021210C0EED2
:101EE300D1021210C066D3021210C05CD5021210C8
:101EF300C0D2D7021210C0ACD9021210C06DDA02E0
:101F03001210C0EAD4031210C0FCDA021210C0424D
:101F1300D3031210C0E7DC021210C056DD02121008
:101F2300C020AF041210C077B0041210C036B10441
:101F33001210C09EB1041210C0FBAB041210C016E5
:101F4300AC041210C05AAC041210C080AC041210BE
:101F5300C0A7AC041210C0BFAC041210C061AD0422
:101F63001210C076AD041210C099AE041210C0A2B4
:101F7300AE041210C0ABAE041210C0B4AE04121003
:101F8300C0BEAE041210C06A98041210C0769C043E
:101F93001210C07B9C041210C07D9C041210C0F868
:101FA300C6041210C07FD6041210C012B20412105D
:101FB300C031CC041210C0E6D4041210C06EC004A9
:101FC3001210C053D6041210C054A1041210C00042
:101FD30080021210C03380021210C09F80021210C0
:101FE300C03A81021210C0D781021210C01C8202B3
:101FF3001210C03E82021210C05782021210C07D1E
:1020030082021210C09F82021210C0DD82021210DF
:10201300C02183021210C04383021210C0A58302A1
:102023001210C06C84021210C02385021210C095D6
:1020330085021210C06086021210C0B3860212100D
:10204300C01987021210C05387021210C0A587025D
:102053001210C01388021210C07E88021210C081B1
:1020630088021210C00289021210C099890212104C
:10207300C0198A021210C0388A021210C09C8B0247
:102083001210C0A98B021210C0B58C021210C0C26C
:102093008C021210C0CB8C021210C0A38E0212103D
:1020A300C0BD8F021210C03690021210C0A8900259
:1020B3001210C0CA90021210C05E91021210C032F8
:1020C30093021210C00997021210C01D970212103A
:1020D300C02D97021210C03797021210C04097020A
:1020E3001210C04997021210C05397021210C080F9
:1020F30097021210C0A997021210C0B497021210CF
:10210300C0D897021210C0FC97021210C066980242
:102113001210C0AC98021210C0C998021210C04627
:1021230099021210C07D99021210C0BC99021210BC
:10213300C0099A021210C08F9A021210C05D9C024D
:102143001210C0E09C021210C0C49D021210C02BDA
:10215300A0021210C084A0021210C0CEA00212105E
:10216300C029A2021210C05EA2021210C0B0A202C5
:102173001210C065A3021210C014A4021210C051A1
:10218300A4021210C0E6A4021210C052A50212103B
:10219300C06630001210C09830001210C0C6300064
:1021A3001210C09C32001210C07C33001210C0D435
:1021B30033001210C00F35001210C05B350012102F
:1021C300C08438001210C0773B001210C0C73C0017
:1021D3001210C05D3D001210C0693D001210C09B7B
:1021E3003D001210C01E3F001210C0CF400012105D
:1021F300C06341001210C0A641001210C024420067
:102203001210C04142001210C07142001210C0A649
:1022130042001210C07643001210C01F4400121077
:10222300C0A546001210C0C547001210C0B0480038
:102233001210C03249001210C0664D001210C0A324
:102243004D001210C0FB4D001210C02E4E00121094
:10225300C0984E001210C0CE4E001210C0594F004D
:102263001210C0B14F001210C08850001210C041AC
:1022730051001210C0DC51001210C0E454001210BF
:10228300C00056001210C0A359001210C0975A0084
:102293001210C09A5A001210C0C95A001210C0CFAF
:1022A3005C001210C0A85D001210C0EB5D0012109C
:1022B300C0415F001210C0805F001210C0096000AF
:1022C3001210C03D60001210C00261001210C01A4B
:1022D30063001210C08B63001210C0CB6300121096
:1022E300C05964001210C07B65001210C03D660027
:1022F3001210C04468001210C05C68001210C07055
:1023030068001210C0A868001210C0D6680012102E
:10231300C0556A001210C07A6B001210C0D76B0050
:102323001210C0896C001210C0B06C001210C0777C
:102333006D001210C00F6E001210C0357000121025
:10234300C06A70001210C0CD70001210C0FC710082
:102353001210C0A472001210C0D572001210C0ED8A
:1023630072001210C07C73001210C030760012107D
:10237300C00878001210C02478001210C040780002
:102383001210C00E79001210C0017D001210C0811E
:1023930082011210C0B382011210C0A28601121072
:1023A300C0EE86011210C03487011210C0D6870117
:1023B3001210C03288011210C07788011210C0BEFB
:1023C30089011210C0D28A011210C0C18E011210ED
:1023D300C0458F011210C05290011210C0AE90017F
:1023E3001210C09E92011210C01393011210C01D4F
:1023F30093011210C02A93011210C05593011210B9
:10240300C03C94011210C0E694011210C0649501FF
:102413001210C08495011210C0AD95011210C0CFE7
:1024230095011210C02F98011210C0F598011210D7
:10243300C03A99011210C0B799011210C0689A01ED
:102443001210C09A9A011210C0E09A011210C01C17
:102453009B011210C06C9B011210C0C09B01121093
:10246300C0169C011210C0629C011210C0CF9C01C7
:102473001210C04A9D011210C0159F011210C01501
:10248300A0011210C03AA1011210C079A4011210C8
:10249300C08CA7011210C049A8011210C08DA80159
:1024A3001210C03DAA011210C051AA011210C05B44
:1024B300AA011210C065AA011210C071AA0112105C
:1024C300C08DAA011210C038AB011210C077AB0146
:1024D3001210C081AB011210C08BAB011210C0FBF4
:1024E300AB011210C046AC011210C05BAD0112105B
:1024F300C0B7AD011210C038AE011210C0F7AE0163
:102503001210C000B0011210C034B1011210C02269
:10251300B2011210C03AB2011210C095B2011210EA
:10252300C0B3B2011210C0FBB2011210C022B3013A
:102533001210C0BDB3011210C083B4011210C01534
:10254300B5011210C08FB5011210C0A9B601121047
:10255300C056B7011210C07EB8011210C0CEB80128
:102563001210C032B9011210C094B9011210C0C2C6
:10257300B9011210C0E6B9011210C01BBA01121042
:10258300C04CBA011210C07FBA011210C09FBA0129
:102593001210C007BB011210C0FBBB011210C056C2
:1025A300BC011210C07FBC011210C007BD01121084
:1025B300C08ABD011210C0B5BD011210C09ABE0180
:1025C3001210C0B8DD031210C0F0DD031210C011E9
:1025D300DE031210C053DE031210C0B5DE03121067
:1025E300C0BFDE031210C0CFDE031210C00ADF0328
:1025F3001210C0EAE2031210C0D7E4031210C0BDE8
:10260300E6031210C054E7031210C0F6E7031210DA
:10261300C09CC0011210C01AC1011210C076C101C2
:102623001210C0C1C1011210C0DCC1011210C007D9
:10263300C2011210C024C2011210C030C201121014
:10264300C0C7C3011210C0E0C3011210C065C401AA
:102653001210C078C4011210C097C4011210C03BFD
:10266300C5011210C0BCC6011210C06FC801121000
:10267300C005C9011210C008C9011210C078C901F0
:102683001210C096C9011210C02DCA011210C075D4
:10269300CA011210C078CA011210C03ECB01121039
:1026A300C0ABCB011210C0D1CB011210C05CCC0166
:1026B3001210C07ACC011210C0C0CC011210C07429
:1026C300CD011210C0BECD011210C0EDCD0112100C
:1026D300C04ACE011210C07FCE011210C0ABCE0192
:1026E3001210C0B9CE011210C006CF011210C0766D
:1026F300CF011210C0BFCF011210C00BD0011210B6
:10270300C037D0011210C042D0011210C060D001F6
:102713001210C04BD1011210C055D1011210C0903C
:10272300D1011210C0A0D1011210C0A9D101121001
:10273300C0FDD1011210C011D2011210C040D3014B
:102743001210C057D3011210C06CD3011210C0FA7B
:10275300D3011210C03FD4011210C0CBD401121008
:10276300C0D6D4011210C018D6011210C033D6013E
:102773001210C07FD6011210C0EED6011210C0276E
:10278300D7011210C041D7011210C083D701121014
:10279300C053DA011210C000DB011210C06DDB015F
:1027A3001210C0ADDD011210C0C5DD011210C0C88A
:1027B300DD011210C0D4DD011210C0E8DD011210DA
:1027C300C0F0DD011210C023DE011210C025DF01AD
:1027D3001210C0ACDF011210C01CE0011210C09E29
:1027E300E0011210C05FE1011210C07EE10112107E
:1027F300C01FE2011210C07CE2011210C07FE2018F
:102803001210C0ACE2011210C0C1E2011210C035B7
:10281300E3011210C084E4011210C08AE501121012
:10282300C015E6011210C030E7011210C0F8E7012D
:102833001210C029E8011210C04CE8011210C05553
:10284300E8011210C084E8011210C014E90112104B
:10285300C0CAE9011210C03FEA011210C0E6EA0142
:102863001210C05BEB011210C092EB011210C0D02A
:10287300EB011210C006EC011210C02FFE02121061
:10288300C09DFC021210C0EFFB021210C0E5FB0258
:102893001210C07EFB021210C06AFB021210C0C7E6
:1028A300FA021210C0C7F9021210C0E0F8021210A7
:1028B300C0D0F6021210C0DEF5021210C058D403C5
:1028C3001210C00CD4031210C07CF5021210C062A7
:1028D300F5021210C026D3031210C0FFD00312104A
:1028E300C0F7F4021210C02BF3021210C0E9F20277
:1028F3001210C0EDF1021210C0C1F1021210C07823
:10290300F1021210C0B9F0021210C0BBED02121096
:10291300C08DEB021210C05AEB021210C001EB0281
:102923001210C094EA021210C053EA021210C08CB3
:10293300E9021210C026E9021210C0C5E802121003
:10294300C065E8021210C03CE7021210C0D0E602D4
:102953001210C028E6021210C023E6021210C0179C
:10296300E6021210C04AE2021210C024E202121060
:10297300C0C1D0031210C093D0031210C060D003A3
:102983001210C0E4CF031210C0B3C5041210C0115B
:10299300C5041210C0BEC4041210C0C2E10212105A
:1029A300C063E1021210C024E1021210C011E1025F
:1029B3001210C08AC4041210C006E1021210C0D55E
:1029C300E0021210C0F1DE021210C064DE02121027
:1029D300C0E5DA021210C020DE021210C087D30352
:1029E3001210C0F9DD021210C053F3031210C026F7
:1029F300F3031210C0F3F2031210C0CBF203121050
:102A0300C06CF2031210C04CF2031210C017F20391
:102A13001210C0C3EE031210C0ABEC031210C0952A
:102A2300EA031210C015EA031210C0C1E903121021
:102A3300C075E9031210C0F3DB021210C0BAFE0224
:102A43001210C0CDE8031210C071C3020000008051
:102A5300FB8F000100AE1887000100AC183500049D
:102A6300007518250002007918260002007B18273C
:102A73000002007D18280001008718290001008842
:102A83001884000400E2158600010002182A0001E0
:102A93000089182B0001008A182C0001008E182DC4
:102AA300000800EE152E0001008F182F0001009082
:102AB3001830000100911831000100921832000112
:102AC30000F61533000100F71534000100931836A2
:102AD300000100F815380001009418390001008D39
:102AE3001883000200AA18630001000416640001A1
:102AF300008B18650001008C186D0001000516712C
:102B0300000800E61566000100A918430001009AB9
:102B130018440002009B18450001009D184600025E
:102B2300009E1847000800FC1548000100A0184B40
:102B3300000100A11804000100AD18A1000100B1BB
:102B43001837000100B01888000100AF183C0001DD
:102B530000F9153D000100951849000200A218670D
:102B630000010006164D000200A4184E000100A645
:102B7300184F000200A7183E0001009918510001E8
:102B830000FA1552000100971853000100981854D9
:102B9300000100FB150000000000000001363601B3
:102BA3000100010201000103010001040106060501
:102BB300020000070100340801000F090401010DA0
:102BC3000100FF0E08000017020000190100FF1AA0
:102BD3000100011B0100FE1C0100081D0200001F73
:102BE30001000120010001210200002301000F2444
:102BF3000200002601000127010008280200FF2A25
:102C03000100072B0102402C0100002D0100012EC1
:102C13000100012F0100FF30010B1D310800003AB4
:102C23000100083B01000F3C0100013D0100FF3E94
:102C330004000042040000460400004A0400004E61
:102C430004000052040000560400005A040000006F
:102C530000000020017B820000010020017D820032
:102C630000020020017F820000030020017C82001B
:102C730000040042011781000005004201E68000C4
:102C83000006004201F4800000070030018082004A
:102C93000000404201F4800000FDFF210179820120
:102CA30000200020050A180100210020050B18024E
:102CB3000400002905CF14030400002905D11403DF
:102CC3000410002905D31403041400280153180524
:102CD3000400002105D5140103710301030103015D
:102CE3000301030103220302030103100300030092
:102CF3000300030003000300030003420300032453
:102D0300030603000300030403120325032303251F
:102D13000323030403040300030003000344030029
:102D2300030003230300036503210035038103002C
:102D33000305030003000300030003250323030328
:102D430002710230016002110270020102020202EA
:102D5300028002100261023A0041006302730272B0
:102D6300026202430200021302380000020002045E
:102D730002120200020002000200020402040237EF
:102D83000037003C024402000239000002000265E1
:102D93000200023502810200020502820283020060
:102DA300020101710101010101110101013101015F
:102DB3000101018001100161013B001400630173F3
:102DC300017201620143010001130106013D013556
:102DD30000040112010001000100010001040104CB
:102DE30001330133013C014401320136000001008B
:102DF30001650100013500810100010501820183A4
:102E03000100010300710030016000110070003106
:102E130002200350048000100061000000140063CE
:102E230000730072006200430000001300060000FC
:102E33000000000400120000000000000000000475
:102E4300000400370037003C02440000000000008B
:102E5300000000650000003500810000000500004F
:102E6300008300000036000100060000000F000090
:102E7300000000000000000000000003FFFF00004E
:102E83000403FFFF0000FFFF0FF4010005C4040368
:102E930020000100000B00000000000000000301FF
:102EA3000F00000000000000000000000000000010
:102EB300000000000000000000000000000000000F
:102EC300000000BB1BD91BC11B2B1B000000000013
:102ED3000000000000000000000000C71B2B1B00C7
:102EE300000000CD1B2B1B0000000000000000D3DE
:102EF3001B2B1B000000000000000000000000006E
:102F030000000000000000000000000000000000BE
:102F130000000000000000000000000000000000AE
:102F230000071E0100071E02007D1D0280771D039E
:102F330000831D0400891D04808F1D0500951D0657
:102F430000A11D3100B31D3300B91D3400BF1DFFA7
:102F5300FF0000030003000400080010001F003EF0
:102F6300007B00F600EC01D703AF075D0FB91E71BC
:102F73003D000007ECFDFDFDECDCDCCCBCACAC9C07
:102F83009C8C7C7C6C6C5C5C5C4C4C3C3C2C2C1CAE
:102F93001C03EAF5E5D5D5C5B5A595958585757564
:102FA300656555554545353525251515050A072408
:102FB30002D12305DD2307D7230CB9230DC523FF36
:102FC300000000160F00000B150B020002220F3346
:102FD30000000E0F5A6967426565416C6C69616E4A
:102FE30063653039D0D1D2D3D4D5D6D7D8D9DADBAB
:102FF300DCDDDEDF303016181920231A1C1E3000EA
:10300300034D4C4651181A250502000119161816CE
:103013001618230300303017181921301B1D1F30D9
:10302300003C40423A3F3F392F47300C0E020B041D
:103033000B0A0708000F020402010101010902E85B
:1030430003000000BE040A01001A000300E80304A1
:10305300091103050A030A0C041E0828020C0508BB
:10306300151E14C082C08312298390163174A9F0EF
:10307300A37421F090163374AFF0A37421F090166B
:103083003574B5F0A37421F090163774BBF0A374B4
:1030930021F0025DA174F7120AFF901625E4F0E90E
:1030A300901624F07CFC7D157A267B16121B01906A
:1030B30018A0E090162EF090162F74E6F0A3741566
:1030C30002402E74F0120AFFEAFEEBFF54807003F5
:1030D3000232379016241240C37003023230EA24BE
:1030E3001B12592E707CEA241F12592E641370028E
:1030F300A3E0706E8A828B8312328590163F124E44
:10310300C0750A00750B00800D123F04126FA012E8
:103113001A05AA0EAB0FEA4B60488A828B83E065DF
:103123000C7004A3E0650D702C8A828B83A3A3A388
:10313300A3E0F50EA3E0F50FE50A450B8A828B8326
:10314300A3A3A3A360C3124206850A82850B83A3AC
:10315300A3A3A380B78A0A8B0B8A828B83124EBCEC
:1031630080B4E508242A12592EFCE5082402F8E469
:103173003509F9E8FAE9FB90163F12336CA3A3E093
:103183006402703C8A828B83124EC0800B888289D2
:1031930083A3A3A3A3124206E849601F88828983FD
:1031A300E06A7003A3E06B70E488828983A3A3E0E1
:1031B3006C70DA9018A6125C5E806BECF91221E554
:1031C300850882850983E06401704FE5082418129D
:1031D300326E121134126548120EE7E508241212FA
:1031E300326E121134E5081240B7121130E508248B
:1031F3000B12654C120EEBE5082417124054E50838
:103203002402FCE43509FDE5082419FAE43509FB39
:10321300122A1F740A12110D800CE064027007AAAF
:1032230008AB091222C3AA08AB0912196FEEFAEF11
:103233006480802DEA5402600C9019057401F0EA51
:103243006402FA8023EA5408601A1221DFEA4B7001
:103253000B9016411264237A0812327BEE6408FA4B
:10326300EFFB80047A007B00026BD2F582E4350920
:10327300F583E0F50A780A22FB901624E0F9121A86
:10328300D122A3A3E0F50CA3E0F50D227B00901659
:1032930024E0F9121AC574042274F4120AFF8A088E
:1032A3008B098A828B83A3A3A3124CB812405F3885
:1032B300F583E02409FA126B6A700302335F8A8292
:1032C3008B837402124D2D85088285098312336C1A
:1032D300E8F0A3E91267E48A828B83A3A3A3A3A3E1
:1032E300A3A3A3F0E5082403F8E43509123361121C
:1032F300405F3AF583E08E828B83A3A3A3A3F0EE12
:103303002409FAE43FFB8E828F83A3A3125F10F597
:10331300838882E0A2E58E828F83A3A3A3A3A35015
:103323000474018001E4F0E5082403F58289831223
:103333004EC0EA1254413BF583126B3112112C1229
:10334300405E3B1260028E828F83A3A3127CE01245
:10335300110DEEFAEFFB901624126BB78016F98865
:1033630082F583E0FAA3E0CA2212505DA3A322747C
:103373000212110D7F04020E6274F2120AFF8A0810
:103383008B09ECFAEDFB740E121422E0FC1228BD3B
:103393008A0C8B0DAE0CAF0DEA4F6030AC08AD0953
:1033A300121F0FE96026AC08AD09EEFAEFFB1229F4
:1033B300DDE970148E828F831241F3FAEFFB12283A
:1033C300D5AA08AB091214537900800279B4024FCD
:1033D300AC74F0120AFF74F61211BCEAFEEBFF8C18
:1033E300088D09750FB3852182852283E4F0750E5C
:1033F300008002050E903065E493F8E50EC3984013
:10340300030234FBAA0E7B001214778A0A8B0BEAA1
:103413004B60E08A828B83A3A312350228F0F8C3A2
:10342300EE98EF940050CC7C157D007900AA08AB90
:1034330009121957850A82850B83A3A3A3A3126FCD
:10344300DDE0F8EEC3982925E0F8E433F9E50A282E
:10345300F582E50B39F583A3A3A3A3A3A3124069C4
:10346300A3125A858A0C8B0DAC0CAD0DAA08AB09BF
:10347300121B01850A82850B83A3E06401700A1283
:103483006548740112407B80447401121186850AD9
:1034930082850B83124EBE12145FE9603D740912DC
:1034A3001422E0C0E0126548D0E0F074091214223F
:1034B300E0640370137401121186E508240BFAE427
:1034C3003509FB121B0180127401121422124206E9
:1034D300E508125A6B3509126F9E850A82850B83A4
:1034E30012655412407BA3A3E0C0E0E50824141244
:1034F300654CD0E0F0750F00A90F740A026BCFA3DF
:10350300A3A3E0F8852182852283E02274F7120ABF
:10351300FFE9FE8A828B83A3A3A3A3A3A3E054089A
:1035230060338A828B83A3A3A3A3A3A3E054026083
:10353300218A828B83A3A3A3A3A3A3A3A3A3E0644E
:1035430006600F74E96E600A74CD6E600574F06EE8
:1035530070031221C70248AB74F0120AFF74EF1212
:1035630011BC740F1214221263077408121422E997
:10357300F0ECFEEDFF740512142212467312489705
:10358300A3E0F91214477406121422126307740697
:103593001214221254D270030238161240A3E0FA16
:1035A3007406121422E0F9122107123876F8A3E008
:1035B300F9E8497003023816EE2403F50AE43FF5EF
:1035C3000BEE2406F508E43FF5097C00850882F537
:1035D30083124EC0850A82850B83E0F912144D7461
:1035E30003121422126307850A82850B83E0C0E06D
:1035F30085218285228312386FD0E01255E7F98541
:103603002182852283123F0B125139123505FAA309
:10361300E0CA2407F582E43AF583E8F0A3E41263F1
:10362300122406F582E438F583E4126FAA124CAC37
:1036330012112CEE12405F3F126002740312142227
:10364300124CB82409127CDA12110D7429121422B7
:10365300126FD71233661255FA3A126F9E742B12F9
:103663001422E0C0E0852182852283125499D0E0A0
:10367300F07402121422E4F0742512142278081252
:1036830013AF02376D7403121422125FCA8882F5D6
:103693008312385EA3A3A3125A90FB121465850EFE
:1036A30082850F83A3EAF0A3EBF0740312142212B2
:1036B300386FA312385E125C9FA2E6500F850E820C
:1036C300850F83A3A3A3A3A3E0D2E1F0740512148F
:1036D30022E0706B850E82850F83A312420690163B
:1036E3007FE0687003A3E0697055850E82850F83C0
:1036F300A3A3A312403E750C00780C121134780872
:103703001211287429121422E0F50C780C121134CA
:103713007427121422120EEB90168C120EEB790002
:103723007419121422124E9012230B740A12110DE3
:10373300850E82850F83A3A3A3A3A3E04405F0749E
:1037430002121422E004FC8E828F83124EBA8E8200
:103753008F83A3A3A3E0F912144D7403121422124E
:1037630063077402121422E004F074031214221289
:1037730054D260677402121422E0FA7406121422FF
:10378300124206C3EA98E4995051740212142212A9
:103793003B48852182852283E028F8A3E039F9E8B4
:1037A300240FF50EE439F50F850E82F583E4F074EA
:1037B3000312142212386964016003023688740507
:1037C3001214227401126BBDF07403121422125DE1
:1037D30091123B6BE8F0A3E90236AC852182852286
:1037E30083124EC012210D852182852283120EEB96
:1037F3007426121422E0FD7425121422E0FC740ACC
:10380300121422E0F9EEFAEFFB1221C17402121135
:103813000D80438E828F83A3A3A3E0C0E0740C12B8
:103823001422D0E0F0126A26E0C0E0740D121422D4
:10383300D0E0F074061214221254D27009740E12DE
:10384300142274B98007740E1214227410F07409D0
:1038530012117E1223057411026BCFE0850E82854F
:103863000F83A3A3A322E01255BFE022E01255BFAA
:10387300A3A322852182852283EAF0A3EB1254DBE2
:103883002274F0120AFF74E11211BC7404121422A0
:10389300E9F07403121422ECF07402121422EDF016
:1038A3008A0E8B0F742F121422123287AA0CFB126A
:1038B30020FB7401121422E9F0AA0CAB0D122101B2
:1038C3007401121422E07003023B43852182852296
:1038D30083E480158E828F83A3A3A3A3A3E0D2E303
:1038E300F0852182852283E004126B15F8852182FD
:1038F300852283E0C3984003023B3A7401121422E9
:10390300E07003023B3A852182852283123B48E51E
:103913000C28F8E50D39F9E8240FFEE439FF8E820F
:10392300F583A3A3A3A3A3E0A2E040B575080075A4
:103933000A08750B007402121422E0600375082054
:103943007C087D007900740512117E1219578E824E
:103953008F83E0603E9016CFE06401701AE508D2D1
:10396300E3F508750B10123B58121422E8F0A3E993
:1039730012598374FF807643080C750A0C8E828F6C
:1039830083A3123B63126FA0740512142274FFF019
:10399300A3805A7404121422E06009E508D2E6F504
:1039A30008750A0A8E828F83A3E064FE7003A3E086
:1039B300F4703074121214227404126572F8741DB8
:1039C300121422E8124D2D741212117E1220297D39
:1039D300007C0079007415121422AA82AB83121D95
:1039E300EF800B123B58121422E8F0A3E9F074079E
:1039F300121422E508F012409AC0E074091214224E
:103A0300D0E0F0740A1214227401F0740512117ECE
:103A13001222C97411121422E06003023B18740DC0
:103A23001214221255E28E828F83A3A3A3A3F074F0
:103A33000D121422124CFBE50AF0A3E50BF07403FC
:103A4300121422E0C0E0124C8CD0E0125C9F601193
:103A53009016CFE0C0E0740D121422124CD6D0E0C1
:103A6300F0740D121422124206850C82850D83A375
:103A7300A3A3A3A3123B51241C126301126FBA1216
:103A83003B53125C5139126A45C0E0124C73D0E0CB
:103A9300126B0AC0E0740D1214221247B9D0E0125F
:103AA300680BC0E0740D1214221247AFD0E0F0741B
:103AB3000D121422123B63123B51242A1263018517
:103AC3000E82850F83A3A3A3A3A3A3A3A3E01262E0
:103AD300FA124089C0E012479BD0E0F0740D121433
:103AE30022124EC0850E82850F83126B202428F587
:103AF30082E43B126F9E124092126B3112112C1210
:103B03005FFBEA1262933B127CDE12110D74051205
:103B1300117E1222CF8E828F83A3A3A3A3A3E0D20D
:103B2300E0F07411121422E060030238D77401121A
:103B33001422E0140238E37900AA0CAB0D1221CD54
:103B4300741F026BCFE075F007A4F8A9F022A3A3BA
:103B5300124EC4E8228E828F83A312420A74052276
:103B6300E0123B6BA3A3A322F8A3E0F9850E8285A1
:103B73000F83A32274F0120AFF74E81211BCE985C3
:103B83002182852283F08A0E8B0F8A828B83A3A3E3
:103B9300A3A3A3A3A3A3E0F91221258A088B09EA0F
:103BA3004B7003023C54E50E1254551240B21240BE
:103BB30049852182852283E06003023C577C04858A
:103BC3000E82850F83A3A3A3A3A3A3A3A3E0F91248
:103BD300212BEE4F607B8E828F83A3A3A3A312427C
:103BE300067407121422126438124206740912145E
:103BF30022124D5DC0E07411121422D0E01267E965
:103C0300A3A3A3A3A3A3A3124206740F1214221205
:103C13006FA07412121422E4126BC5C8241FF5821C
:103C2300E438F583125FC6C413135403FC70027C9B
:103C3300048E828F83E0F97808121130742059FDC5
:103C4300744059F9740312117E1221C174021211C6
:103C53000D026BCD7C08850E82850F83A3A3A3A3DE
:103C6300A3A3A3A3E0F912212B8B0BEA4B7003024E
:103C73003BD5EE4F60DB852182852283E0F50C780E
:103C83000C121134850882850983A3A3A3A3A3A3DC
:103C9300A3E0F50C780C1211348A828B83A3A3A3BF
:103CA300E0FB8A82850B831277FD8A82850B83E092
:103CB300FA8E828F83A3A3E0F9122A2574021211CC
:103CC3000D023BD974F7120AFF74FA1211BCE9FE14
:103CD300780179017F00800379000F12503CE0FCEA
:103CE300EFC39C5026EF75F007A4FC85F008AD08E0
:103CF300EA2CFCEB3DFD12462BE0A2E050DA540C1B
:103D030060D6E0A2E250D3780080CF8A828B83A36F
:103D1300A3A3A3A3A3E0703DE9A2E0400574016E51
:103D230070338A828B83A3A3A3A3A3A3740112403A
:103D33001BE0C0E07403121422D0E012468AE0C0F4
:103D4300E07404121422D0E0F07405121422E81275
:103D53005F6512230574060248A8C082C0837901F7
:103D63001221CD025DA174F4120AFFEA4B901905EA
:103D73006019E4F08A088B09F50AF50B780812112B
:103D8300287A0212328F12110D800A7401F07A021E
:103D93007B0012327C02337774F0120AFF74F31241
:103DA30011BC7403121422E4F0A3F090163F1240E6
:103DB300497401121422E4F0A3124D3204F0901658
:103DC30079E0A2E35003023E8E12400F74091214ED
:103DD300221213F3740912142278081213AF9016E7
:103DE30041780812118E7405121422780812139167
:103DF300123F127405121422780812135250077AD4
:103E0300017B00023EFF7405121422780C1213AFDB
:103E13009018A5E0F509780C7908120A90A80CA966
:103E23000D9018A6E0C398E4995003E08001E8855B
:103E33002182852283F0740912142278081213AFA9
:103E4300C008C009C00AC00B7405121422780C12F2
:103E530013AF123F12780C7908120A90E4F50AF5B1
:103E63000BD00FD00ED00DD00C780C79081212396C
:103E7300901641780C1213918011123F04126FA017
:103E8300EEFAEFFB121A05AE08AF09EE4F60658E2E
:103E9300828F83123502C398502DEE2403F8E43F3A
:103EA300F9E0FA88828983E0C39AF06023740312ED
:103EB300142212436C7401121422EEF0A3EF126465
:103EC30053FEA3E0FF80C48E828F83A3A3A3E4F0F9
:103ED3008E828F83127C9774011214221254D28E15
:103EE300828F83A3A3A3A3609112642C12142212C2
:103EF3003F0B80897403121422124EC0740D026B9F
:103F0300CF12420A90163F22125FF1A3A3A322907D
:103F130018A4127C9FE4F50AF50B2274F0120AFF31
:103F23008A088B09890A7800790090163F12404964
:103F3300FBEE4B601E088E828F83A3A3A3A3124EB6
:103F43008A601008E87001098E828F83124045EA67
:103F53004F70E39018A7124EC0C3E89AE99B400341
:103F63000240027A06124005A80CA90DEA49700323
:103F73000240028A828B83E508F0A3E509124024FC
:103F8300E50AF09018A612504412401BA3E4F0A3D4
:103F9300F090163F124E8A600D8E828F83A3A3A3E7
:103FA300A3126FA0801790163F126FA0901679E0AE
:103FB300A2E3400912400F9016411213F3901679B1
:103FC300E0A2E3503A7A087B00901624E0F9121A33
:103FD300D7EA4B4C4D70289018A4E0F508A3E08570
:103FE300080CF50DE4F50EF50F780C1211287A087C
:103FF3007B00901624E0F9121ACB740412110D02FF
:104003006BD27B001219FF8A0C8B0D22121AE9EA7C
:10401300F8EBF9ECFAEDFB2212401F22124024A325
:1040230022F08A828B83A3A322E508F00248ABF037
:104033008E828F83A3A3A3A3A3A32212593CA3A37A
:10404300F022A3A3A3A3E0FEA3E0FF227F05020EB9
:1040530062F582E43509F583E0F922EA124063222E
:104063002410F582E422124071A3A3A3A3221242D7
:104073000E8508828509832212407F22F0850A82F9
:10408300850B83A3A322E50E24111240AFE022E5A2
:104093000E240E1240AF22E50E24101240AFE02290
:1040A3001240A722EE1240633FF58322F582E435E6
:1040B3000FF58322240FF50AE43509F50B780A225C
:1040C300E0F91219818A088B09EA4B2274F2120A69
:1040D300FF890B8A088B098A828B83124EC01221B7
:1040E300F1EA4B600479B8806A1221FDE9F8903057
:1040F30056E493F9E8C399400479B280567A1512CD
:104103004005AE0CAF0DEA4F7004791080458A82EA
:104113008B83E4F0A3124024E50BF0750A007808C2
:1041230012112C7C127D00EA2403126ADC12110D99
:104133009016451254D27008901645800C12420610
:104143008882898312415970F4EEF0A3EFF01222B2
:104153000F7900024FAC124EC4EA4B888289832246
:10416300C082C08390164580048C828D831277FEB3
:10417300EC4D60288C828D83A3A3E069600574FFF6
:104183006970E68C828D83A3A3A3E06A7003A3E026
:104193006B70D6EC2403FAE43DFB80047A007B00C9
:1041A300025DA174F7120AFFE9FD74FE6D70047CD1
:1041B3000180027C0090164580096D70027C0188A5
:1041C3008289831254D2601F88828983A3A3A3E0C8
:1041D3006A7003A3E06B70E7ECA2E088828983A393
:1041E300A3E050D6F9800279FE0248ABEEF9800CC9
:1041F300A3A3127C9FEE22740212110D7F02020E02
:1042030062F58312420A2212420E22E0F8A3E0F979
:104213002212420E8E828F832212110D7F03020E11
:1042230062C082C0837900901645800109E0FAA339
:10423300E08A82F583E582458370F1025DA174F61D
:10424300120AFFE4F508F509780812113090305688
:10425300E49375F013A4A9F0124361126FFE1211D7
:104263000DE9FE74096E70031222090241EF74F620
:10427300120AFF74FE1211BC852182852283E4F0A9
:10428300A3F0A821A922880889097808121130759A
:1042930008027509007808121130126C6F12110DA3
:1042A3000241FA74F5120AFF74EB1211BC852182E4
:1042B300852283E4F0A3F090164580748E828F8369
:1042C300A3A3E0C0E07402121422D0E0125983A920
:1042D30082AA8389088A09750A00780812112C7C3E
:1042E300127D007406121422126FC312110D740290
:1042F3001211768808890978081211307508137528
:1043030009007808121130740412142212547575BE
:10431300F013A4F8AAF075F013E912435D126C7759
:1043230012110D85218285228312436C8E828F8325
:10433300124049EE4F7085A821A92288088909787F
:10434300081211307508027509007808121130122D
:104353006C6F12110D741502421CA42AF9E8240291
:10436300FCE439FD7A427B0022E02401F0A3E0342F
:1043730000F02274F4120AFF74EB1211BC7E007F6A
:1043830000A821A922880889097808121130750824
:10439300028E0978081211307C007D007A42127077
:1043A3000A12110DE9706C8E088056740212117690
:1043B300880A890B780A121130750A13750B007875
:1043C3000A121130E50875F013A4F8AAF075F0137A
:1043D300E50912435D12700C12110DE9701B740391
:1043E300121422AA82AB837402121422E0F912215E
:1043F300EBE970050EEE70010F0508E50870020584
:1044030009852182852283124206C3E50898E509BE
:10441300994098EEFAEFFB741502337474F6120A9E
:10442300FF8C828D83A3A3124678F0EA1262993B34
:10443300F583E0C0E0124635D0E0F0EA241DF582B2
:10444300E43B124204124619124673F0A3F0EA2425
:104453001FF582E43BF583124049EC12460C3DF50F
:1044630083EEF0A3EFF01246123BF583124643A30B
:10447300A3A3A3A3A3EEF0A3EF125EF4FE8C828D9D
:104483008312468274035EFEC3940340030245FF16
:10449300EE600874026E60030245248C828D83E013
:1044A300540CFE740C6E7003024563E0A2E4400DED
:1044B30088828983E08C828D83A312469874086E68
:1044C30060030245631246237401F08A828B83A33F
:1044D300A3A3A3A312594970148C828D83E0440CC7
:1044E30012468AA3A3124643EEF0A3EFF08C828D0B
:1044F30083E0A2E4402B88821246511246665001A3
:1045030009F582124651A3A3A3A3A3A3F0A3EF1219
:1045130046928C828D83A3A3A3F0E82403F8500171
:104523000988828983E0C0E0EC2411F582E43DF53B
:1045330083D0E01246828C828D83E0A2E750758897
:10454300828983E0FE8C828D8312469874FC5E70B0
:104553000C8C828D83A3E054036403701E0245FF19
:10456300124623E4F0740C6E60030244CE88821278
:1045730046571246665001090244F08C828D83A38C
:10458300E05403603288828983E0C0E0EC12463D48
:104593003DF583D0E01246998C828D83E054036409
:1045A30002701488828983E0C0E012462BD0E012A7
:1045B30046998003A3E4F0EC1254413D126F9EEC44
:1045C3002410FEE43DFFEA241DF582E43BF583E07D
:1045D300F5088E828F83E0C3982508F508F0EA2456
:1045E30017F8E43BF98882F583E0C39508C0E0122D
:1045F3004619D0E0125EF4C39508500A124619E436
:10460300F0124635E4F00241FF2415F582E422EA74
:10461300240DF582E422EC240DF582E43DF583229A
:10462300EC1255FA3DF58322EC2414F582E43DF5B2
:104633008322EC1240633DF583222413F582E422A6
:10464300E0FEA3E0FF8C828D83A3A3A3A3221246E3
:1046530057A3A3228983E0F508A3E0FFE5088C8232
:104663008D8322A3A3A3A3F0A3EFF0E82402F822EF
:10467300124678A322E4F08C828D83A3A3A3221293
:1046830046A0A882A9832212401FA3A3A3A3221298
:1046930046A0A3E022A31246A008A98322125EFD2E
:1046A300A32274F4120AFF74F31211BC8A0A8B0B4F
:1046B300ECFEEDFF8C82F583E0540CF508E0A2E7F5
:1046C3005006E508D2E7F508E508D2E1F5081259E6
:1046D300497006E508D2E4F508E0A2E55006E508CE
:1046E300D2E5F5087C087D007900AA21AB221219D6
:1046F300577402121422E508126FA4C0E074031267
:104703001422D0E0124D32E50AF0A3E50BF0740554
:10471300121422126810121422E070777408121413
:1047230022124CB8125EE63812682BC0E0740812ED
:1047330014221247B9D0E012680BC0E074081214B7
:10474300221247AFD0E0F074081214221247A5E0FA
:10475300124CE0124D611262FAEE2411125915C087
:10476300E012479BD0E0F0EE2414125915C0E07418
:1047730008121422124CB82435F582E438F583D09C
:10478300E0124D05C0E07408121422124CBCD0E0B4
:10479300126564740D023374E82432F582E439F54A
:1047A3008322124214A3A3A3A3A3A322124CCC12C9
:1047B3006A0A38F58322124CCC2426F582E438F5B4
:1047C300832274F7120AFF7E008A828B83A3A3A33A
:1047D300A3A3A3A3A3A3E064046003024887125521
:1047E300F2E060030248871254543B1254D0700322
:1047F30002488788828983E054036003024887E87C
:104803001255FA39F583E0FA8C828D83A3A3E0FB7A
:10481300A3E0CB2411F582E43BF583E06A7065885D
:10482300828983A3A3A3A3A3A3A3A3A312488BE077
:104833006A7003A3E06B704C88828983A3A3124838
:1048430097E0FFA3E0CF24061259156A7003A3E093
:104853006B703188828983A3A3E0F88C828D83A354
:10486300A3E0F9A3E0F5838982A3A3E06860138C36
:10487300828D83A3A3A3E0F5838982E0540C6404AF
:1048830070027E01EEF9802012488F22124EC88CEE
:10489300828D8322A3A312488FA3A322740C121424
:1048A30022E0F9740D12110D7F01020E6274F612EB
:1048B3000AFF74FC1211BCEAFEEBFFECFAEDFB8C71
:1048C30082F583A3E05403601690163B1254D26022
:1048D300597900EEFCEFFD1260F1120CE1804B857B
:1048E3002182852283EEF0A3EFF0740212142212C8
:1048F3004D27AC21AD227A277B2212244F8A088BC5
:1049030009A808A909EA4960218A828B83A3A3A382
:10491300A3A3A3A3A3A37406F07A0088828B8312B4
:104923004CB81262BAE0F91223AD74040241FC746C
:10493300F2120AFF74F31211BCEAFEEBFF8A82F54E
:1049430083A3A3A3A3A3A3A3A3A3A3E0F50A9019FB
:1049530005E0700579BA024C707508017509007598
:104963000C00750D007C087D007900AA21AB221292
:10497300195774051214227401124D3A540460122B
:104983007402121422E0D2E6124D3A5408700375F1
:104993000803E05410600674404508F508E0540825
:1049A30060227402121422E044C0124D3A54206073
:1049B3000A7403121422E0D2E08008740312142252
:1049C300E0D2E1F0EE2415125915124CA0700374D5
:1049D3000169700674084508F5088E828F83A3A3C6
:1049E300A3A3A3A3A3A3E070161224A98521828500
:1049F30022831263077402121422E0D2E28030642D
:104A03000F70107402121422124D4274044508F5FB
:104A130008807F8E828F83A3A3A3A3A3A3A3A3E072
:104A230064028E828F83700A126FD7E8F0A3E9F0D5
:104A33008060A3A3A3A3A3A3A3A3E06403700DAC0B
:104A430021AD22EEFAEFFB12225D80468E828F8328
:104A5300A3A3A3A3A3A3A3A3E0640170359016CFDC
:104A6300E060107402121422124D42750910750A87
:104A7300FF80187402121422E0440C124D3274FDAC
:104A8300F0A374FFF074044508F5088E828F831237
:104A93003287EE2415125915A2E0503F7402121406
:104AA30022E0540C701B8E828F83124EC0121EBBE9
:104AB300E9700579BB024C707402121422E0D2E54E
:104AC300F0EE2415125915A2E050107402121422AC
:104AD300E0540C64047004E0D2E5F0EE24111259A2
:104AE30015C0E07404121422D0E0126812121422CA
:104AF300E06003024C697408121422124CFBE508AF
:104B0300F0A3E509F0124C96E0C0E0124C8CD0E023
:104B1300F0124C7DE0C0E07408121422124CB8125B
:104B2300463D38F583D0E0124D6164017011901653
:104B3300CFE0C0E07408121422124CD6D0E0F07417
:104B430008121422124CF6124C87FAE8241CF58240
:104B5300E439F583EA124D2DEE2415FAE43FFB8A7E
:104B630082F5831277FEE8125C5139F583124D27E3
:104B7300EE241C125915C0E0124C73D0E0125D975D
:104B8300124CA0700374016970137408121422127A
:104B930055E2FAEE241D125915F91221318E828F36
:104BA30083A3A3A3A3A3A3A3A3A3E0C0E0740812B6
:104BB30014221247B9D0E0F074081214221247AF3E
:104BC300E50AF074081214221254752428F582E4BD
:104BD30039F583E50CF0A3E50D124D0D124CE012EF
:104BE300598E1262FAEE124C87C0E0E82433F58244
:104BF300E439F583D0E0F0EE241B125915C0E074BC
:104C030008121422124CBCD0E0F0EE241A125915EB
:104C1300C0E07408121422124CB82432F582E4382E
:104C2300F583D0E0124D05124CAC12112C126A1010
:104C33001277FE740B121422124CB8242F127CDA52
:104C430012110DEE24151259155440601290165B83
:104C53001254D2600AAA21AB221260F1120CE1AA0B
:104C630021AB221222CF740C121422E0F9024FA7B7
:104C7300E82420F582E439F58322EE2419F582E451
:104C83003FF58322126A1FE022E82412F582E439F9
:104C9300F58322EE2418F582E43FF583225480F84D
:104CA300A3E05401F974806822F508A3E0F50975BF
:104CB3000A00780822124CCC22124CCC2434F58200
:104CC300E438F58322A3A3A3A3124CD022E0F8A3D4
:104CD300E0C822124CCC12460C38F58322FAA3E02A
:104CE300FBE8242AF582E439F583EAF0A3EB22A357
:104CF300A3A3A312420AEE2212547912545939F58E
:104D03008322F0EE241312599622F0EE240D125949
:104D13009622E0FC8A828B83E02CFCA3E03400FD26
:104D23008A828B83ECF0A3EDF022F0A3E4F022F06F
:104D330085218285228322F0EE241512599622E0E2
:104D4300D2E3F0124D4A228E828F8312420E8521C6
:104D530082852283E8F0A3E9F022E8F0A3E9126454
:104D63004DE02274F7120AFF8A828B83A3E0640169
:104D730070047E6380027E648A828B83E06008799C
:104D830005124D9A24F3FE901677E06007F9124D51
:104D93009A24F2FE024887122377E9F8EEC3982299
:104DA30074F6120AFF74FE1211BC852182852283D8
:104DB300126307E9FEECFAEDFB90053C1254D26056
:104DC30032A821A9228808890978081211307D01A7
:104DD300740E121422E0FCEEF990053C1262DB1211
:104DE3000CE1740212110DEA4B600479008006791C
:104DF300B2800279B60241FA74F7120AFFE9FE9013
:104E030016311254D2601F7409121422E0F5087887
:104E130008121134EEF99016311262DB120CE174B0
:104E23000112110D800279B60248AB74F7120AFF22
:104E33008908ECFEEDFF79B5E508245E6020146077
:104E43000624F86034803D90053E124E8A60351288
:104E5300701B120CE18E828F8312630780249016DD
:104E6300331277FEEC4D601CEEFCEFFD901633120F
:104E730062DB120CE1E9F9800B90162F124E9012AF
:104E83001B0179000248AB124EC4EA4B221278028E
:104E9300EEFAEFFB2274F7120AFFE9FE79B574AB61
:104EA3006E700B90162F124EC0121B017900024830
:104EB300AB8E828F83A3A3A3A3A3A3A3A3124EC4E6
:104EC30022124EC822E0FAA3E0FB2274F1120AFF79
:104ED300EAFEEBFF8C0A8D0B75080190167FE06EDE
:104EE3007003A3E06F700C124F9BAA0AAB0B121B4B
:104EF30001805E1224AFEE6A7002EF6B7009AA0A9A
:104F0300AB0B1224B5804AAC0AAD0BEEFAEFFB12E1
:104F13002005E9F5089018ACE07036122959E970BC
:104F230030E508702C90164FE06E7003A3E06F70AD
:104F330020EE4F601C750C47750D16750E00780C2E
:104F430012112C7C087D00AA0AAB0B126FC7121139
:104F53000DA9080278FA74F2120AFFEAFEEBFF8C3D
:104F6300088D09750A01124F9BEEFAEFFB121AFB2B
:104F7300E96401701190167F124206850882850943
:104F830083126FA0800EAC08AD09EEFAEFFB12207E
:104F93000BE9F50AA90A80111224A38A0C8B0DAC24
:104FA3000CAD0D22740D12110D7F06020E6274F604
:104FB300120AFFEAFEEBFF7A0D7B001219FFEA4BA0
:104FC3006062EE2424126CA4F0EE2425126CA4A3D8
:104FD300125069126CAAA3A3126A3D125044F0EE58
:104FE30012502A125059E8F0A3E91250801250517E
:104FF300126FA0EE125033126B00A3A3A3A3F0EE23
:105003002433125915C0E012503CD0E012682F121D
:105013005051A3A3A3E8F0A3E9125078C0E01255BE
:10502300F2D0E0F00241FF242AF582E43FF5832227
:10503300242EF582E43FF58322EA125A6B3BF58373
:105043002212504822E08A828B83A3A3A322126BED
:105053005FA3A3A3A32212505D2212420E8A828B66
:1050630083A3A3A3A322F012506E22EE2426F5827B
:10507300E43FF58322F0EE243212599622F0EE2417
:105083002C1259962274F4120AFF74FE1211BCEC0E
:10509300FEEDFFEC241612591564057010EC24067E
:1050A300FCE43FFD122257E97003025134AC21ADF9
:1050B30022126D59121EC18521828522831254D278
:1050C300606B8E828F83E064017058E875F009A4E9
:1050D300F8AAF075F009E9A42AF974A628F874036C
:1050E30039F9E8FAE9FB8882F58378081213AFEE01
:1050F3001251D61213524027852182852283124CE6
:10510300F612592312513978081213AF908201789D
:10511300081212D58A828B837808121391800A7938
:10512300A28010EE240F126F9A7900800679A18075
:105133000279C8023372124D57EE126A2B2274F2AF
:10514300120AFF8A0C8B0DECFEEDFFEC125923E4DF
:10515300F0A3F09081FD78081213AFEC1251D61230
:1051630011D26067EC240E12591C703478B3901678
:1051730076E070289016A8E064017020EC241112E8
:105183005915F912235F8B09A909EE1254553F12E1
:105193006305EA4960047800800278A18808802EBC
:1051A300E060046402700A122269E9F5087007805E
:1051B3001DE064037010EEFCEFFDAA0CAB0D121E94
:1051C300E5E9F50880087508A180037508A3A90817
:1051D300024FAC126A2B78082274F0120AFF74F59E
:1051E3001211BCEAFEEBFFEA240AFCE43F8C82F5D1
:1051F30083127C9B12545F74031211868A828B8301
:105203001260FBE970030252C57401121186740324
:1052130012117E121EC174011214221254D2700391
:105223000252C5E875F009A4F8AAF075F009E9A4DB
:105233002AF974A228FC740339FDE508240E1265CB
:105243004CE4F004121422124206E50812545535B8
:1052530009126F9E8C828D831213E7E508241212C4
:10526300654C1213F390820178081213AF8C828D70
:105273008378081212E88C828D83780C1213AF9016
:10528300826D78081213AF780C7908120A90E5083A
:105293004509450A450B702A7401121422125475EC
:1052A30075F009A4F8AAF075F009E9A42AF974AA1B
:1052B30028F582740339F5837401F07A007B0812B0
:1052C30054828E828F83A3A3A3A3A3A3A3A3A3A385
:1052D300E02406FCA3E03400FD8E828F831260FB82
:1052E30012681D603EEE240A125447124CFB746888
:1052F300124D2DE812544139F5837402F090166172
:105303001213E78C828D831262F4125EE63CF583FE
:105313001213F390820178081213AF901661780884
:105323001212E81254BD705D90162F12546DA3A390
:10533300A3A3A3A3A3A3A3A3125F1C121AFBE97045
:1053430010125EDA90162F125EEC700512681D6063
:10535300348E828F83A3A3A3A3A3A3A3A3A3A31284
:10536300546D124EC0121EEBE960118E828F83A31F
:10537300A3A3A3A3A31254A9E4F0A3F08E828F8363
:1053830012548FE4F01254BD600302543C8E828F9A
:1053930083A3A3A3A3A3A3127C97901676E0600331
:1053A3000254319016A8E064016003025431750A77
:1053B3003A750B00780A1211307402121176880ABA
:1053C300890B780A12113012729612110DE9705B73
:1053D300E508240E12654C74011254D7C0E0E508A9
:1053E300241112654CD0E0F0E508240F12654C74CB
:1053F3003A124D2D90165D1213E7E508241212653B
:105403004C1213F390820178081213AF90165D7853
:10541300081212E890820178081213AF90165D7893
:10542300081211D2700812547E800312545F125472
:10543300BD7006125DDD74A1F0740B026BCF240EF8
:10544300F582E422F8E43FF9E8FCE9FD8882F5837C
:1054530022EA12545922240FF582E422E508125459
:10546300593509F583E4F0A3F0221278028E828F76
:1054730083221254792212420EE8227A007B029090
:105483001505E0F91219AB228A828B83A3A3A3A388
:10549300A3A3A3A3A3A312549D22124CD0240EF5BD
:1054A30082E438F58322A3A3A3A31254B122124C9E
:1054B300D0240FF582E438F583228E828F83A3A351
:1054C300A3A3A3A3124CC8240FF582E438F58312D7
:1054D300547949221254DB22F0852182852283E00C
:1054E3002274F6120AFFEAFEEBFF7A237B001219FD
:1054F300FFEE240AF508E43FF509850882126305E7
:105503007C237D007900121957850882850983124F
:1055130054D270030255A5EEFAEFFB122275125412
:10552300BD60748E828F831255D864018E828F83FF
:10553300A3A3A3A3A3A370071255CE740E802112B5
:1055430054D2701012681D700B8E828F83A3A3E058
:10555300A2E050071255C4740D80051255C474059A
:1055630012682F5403640170071255AC7405800B45
:10557300901677E0C0E01255ACD0E01255E7F58302
:105583008882125942850882850983124CB81262B7
:105593009938F583E9800E85088285098312637E35
:1055A30080031262C1F00241FF8E828F83A3A3A303
:1055B300A3A3A3A3A3A3A31255BE22E01262E0A355
:1055C300228E828F83A3A3A3A3A3A3124CC8126228
:1055D3009F38F58322A3A3A3A3A3A3A3A3A3A312E7
:1055E300549DE0221255EB22126D6EF8A3E022EADD
:1055F3001255FA3BF58322240CF582E42274F1124E
:105603000AFF74E41211BC8A0C8B0D8C088D097A85
:10561300237B001219FF8A0A8B0BAE0AAF0BEA4FEA
:1056230070030258FD1262A5E508241512592E686D
:105633007003A3E0698E828F837004740280027406
:1056430001F0E508240DF8E43509F98882F583E0D3
:10565300FAC3E49AFA95E0FB12592A2AFAA3E03B2B
:10566300FB8E828F83A3A3A3A3125F038E828F83F8
:10567300A3A3F0EE2420F582E43FF583E4F0EE24C7
:1056830021F582E43FF583E4F0EEFAEFFB122329E0
:1056930085088285098312594970098E828F83A3F5
:1056A30074058006901677125937F0EE2417F50A21
:1056B300E43FF50B8E828F83125942E9850A828576
:1056C3000B83F0EE2416F8E43FF9E508240EFAE420
:1056D3003509FB88828983124D15E5082410FAE405
:1056E3003509FB850A82850B83E0FC88828983E088
:1056F300F88A828B83E0C398C39CF8125983F0EE37
:10570300FCEFFDAA0CAB0D12226FE9F50B8E828F15
:1057130083E064027006125EDA125907E50B600338
:105723000258F4750C00750D009018ACE06401602C
:1057330005E06402703F1259196008EE24211259E2
:105743001C70328E828F83A3A3A31262C712594F98
:10575300EE2416125915125978FAE439FB12400750
:10576300EA4B6011126B2912112C12595DAA0C120B
:105773006FC712110DEEFAEFFB122335E9F50B900B
:1057830018ACE064016008E0640260030258E7E9D2
:1057930070030258E7E50C450D70030258F48003CB
:1057A300850E0B125919600BEE242112591C60034C
:1057B3000258ED850B0E850C08850D09750A0078D6
:1057C3000812112C12595D8E828F83A3A3A3A312F7
:1057D3007CE012110DEE2420125915600D1259228E
:1057E3007468124D2DEE24208015EE2421125915D4
:1057F30060151259227403F0A37401F0EE2421F50D
:1058030082E43FF583E4F0EEFAEFFB122335E9F58A
:105813000B70907C137D007900740912117E1219AC
:1058230057741A121422740112598E64687002A3F9
:10583300E0704F8E828F831254A9E06405600302E7
:1058430057A37C0879FF8E828F83A3A3A3A3E024AD
:105853002A125F1F1219E1E970030257A37C087D26
:105863000079FF740112117E121957740112118607
:105873007A007B0079AB122251741912142274FC42
:105883008015125922E064037004A3E064017008D8
:10589300741912142274FFF0E4F508F5097808125C
:1058A300113074021211867413121422AA82AB836C
:1058B30012640412110D852182852283E0602B740A
:1058C30009121176880889097808121130750813AE
:1058D30075090078081211307C007D00126C771274
:1058E300110D8006E50C450D6007AA0CAB0D121ACD
:1058F30005EEFAEFFB121A058003750B10A90B7462
:105903001C0278F7EE2406FAE43FFB121B0122EE99
:10591300240C12599622EE2420125996640122EE89
:105923001254593FF58322E508240EF582E4350924
:10593300F583E02212593CA322E08E828F8322A3B7
:10594300E0F912237722E05403640122125953220F
:10595300E0FAE82AF8E43400F9228E828F83A3A3C5
:10596300A31262CB125953EE241612599612597888
:10597300FCE439FD22FAE82AF8E439F9E8240422A0
:105983001259872212683EA3A3A322F0125993222D
:10599300EE240FF582E43FF583E02279010210BD86
:1059A30074F4120AFFEAFEEBFF8A82F583A3A3A332
:1059B300A3A3A3A3A3124CB82424F582E438F5834C
:1059C300125949702E8A828B831255D87025125A28
:1059D30071E06405701D125A71A3E0F874016860E8
:1059E30005740668700712548B7402800512548B79
:1059F3007403F0EA240A1263721262DBE4F0EA240D
:105A030008F8E43F1233612431F582E43AF583E088
:105A1300C0E0127012A3A3D0E0125A90CA242EF54C
:105A230082E43AF583E0C0E0127012A3A3A3D0E0AE
:105A3300125FB6C8125A6B38124204127012125A0D
:105A4300858A0A8B0BAC0AAD0B8508828509831204
:105A53005F1C121B01850882850983124EC0122325
:105A63003512636DF0023377240BF582E4228A82C8
:105A73008B83A3A3A3A3A3A3A3A3126804F583887F
:105A83008222A3A3A3A3124D571224A322125EF8CA
:105A9300FAA3E02202599EC082C083901651747B00
:105AA300F0A37422F09016537487F0A37422F0903D
:105AB3001655748DF0A37422F09016577481F0A3D9
:105AC3007422F0025DA174F4120AFFEA2408FEE4D2
:105AD3003BFF8E82F5831254751262B1E0F50874B0
:105AE300035508F509125F17F8A3E08882F583E5EB
:105AF30008F0A3A882A983E5096009740265096017
:105B030003025BB6740C5508FC600A74086C6005EC
:105B130074046C7026740265097006E508A2E440FB
:105B23001A8A828B83A3A3A3A3A3A3A3A3125CBCFC
:105B3300126A0A3D125C57A308A983740C6C701C8B
