:020000040000FA
:0600000002137202084227
:03002B000210D5EB
:03003300020F7148
:0300530002077130
:100083000207D301010000000000F8FF07FFFF0093
:10009300000504000000030001FFFFFFFF00142020
:1000A3004E00000020FD000206FFFF1E1900320073
:1000B300007701DF15E515091C00000000000000B2
:1000C300000000000000000000000000000000002D
:1000D300000000000000000000000000000000001D
:1000E300000000FF0104010C0002051081043581AA
:1000F300010400000715000000E8030000FFFF589B
:100103001588130000E8030000C800C800B801A068
:10011300BB0D00A0BB0D00020202070401071E0273
:10012300051E020A0A010108080103B80B02803EFA
:100133000102FEFFE8030A050001FFFF020A0114A2
:1001430001E00100B0423BAAB83F0000003F8C90A1
:100153006339AA0CA33A00941E3C8042633DCFFE50
:10016300753E1572313F0000803FF304353F8096A2
:10017300184B000080BF2292D43EDD9B2A3F04002F
:100183000040FFFF7F7FFFFF7FFF01008034187275
:10019300313F050301010F030003000300030003C4
:1001A30000030003000300030005000A00140028F5
:1001B300004F009E0000004E2D00000000E62C00C2
:1001C300000000FF000000FF001213A0604612139E
:1001D300BE603DE9687008F618F618F618F6227442
:1001E3008067F7120200090909748067F722121366
:1001F300BE601D1213A07005191919801A12124D31
:10020300701F121261C37003E6673319191940078F
:100213001818182208080874FFF618F618F618F6C6
:1002230022121261601712142C702192F0121435ED
:100233007019501720F014080808090909E7F6187F
:1002430019E7F61819E7F61819E7F62212143560BC
:10025300E6E869701F0808E62480F608E436F61815
:10026300547FB47F0CE654806007F6E418F618F662
:1002730022181822E9C6CC08C6CD08C6CE08C6CFB8
:10028300C0E0E8C0E0EAC0E0EBC0E009E9F809E754
:10029300FA09E7FBE6F918E6F8C3EC98ED99EE9A4C
:1002A300EBC2E7F5F0EFC2E795F0500E600CEBCF31
:1002B300FBEACEFAE9CDF9E8CCF8EAA2E7D2E7FA0D
:1002C300EB33FB13F5F0EEA2E7D2E7FEEF33FFC506
:1002D300F013A2E730E601B313C5F0C3C0E0C0F0EA
:1002E3007F00C39BFB605E9418600F401D14601A6F
:1002F300D0E023F9D0E0F80203D28AF0E9486003A2
:10030300D2F0E4AFF0FAF9F8803BEB30E40D89F07A
:10031300EA6003D2F0E4AFF0F9CAF8EB30E30D88FA
:10032300F0EF6002D2F0AFF0E4CAC9F8EB54076013
:1003330014FBC3EA13FAE913F9E813F8EF135002B5
:10034300D2E0FFDBEDD0E0C0E030E739C3E49FFF4C
:10035300F5F0EC98FC42F0ED99FD42F0EE9AFE4286
:10036300F0D0E0F9D0E0F8E5F0607AE923F9EE2087
:10037300E742D8028067C3EF33FFEC33FCED33FD74
:10038300EE33FE80EAEC28FCED39FDEE3AFED0E0D8
:1003930023F9D0E0F84002801BC3EE13FEED13FDFA
:1003A300EC13FCEF135002D2E0FF08B800067F7F86
:1003B30074FF802EEF3350178CF020F00260100C86
:1003C300BC000C0DBD00080EBE000408E860DFE9A8
:1003D30033E813FFEE2313FE4F4D4C8008E954809E
:1003E300FFE4FEFDFCEE33EF33F47004FCFD7E808E
:1003F300D0E0FBD0E0FAD0E0F8D0E0CFC618CEC60C
:1004030018CDC618CCC6F9221213BE7004181818DA
:10041300221213A0700D74FFF61819F61819F618A6
:1004230019F622E7548066F6121435700F12142C55
:1004330070F014F608F608F608F680D112142C7042
:100443000CF608F608768008E6447F80EC12126406
:10045300700C12125060BFE65480F6E480BB121297
:1004630050700519191980A5E869700C763F187644
:100473008018F618F6E8F922E6CDC0E018ECC0E0E3
:10048300E633CD33CDD313F6E719FCE7191933CC93
:1004930033C3947F400ECD9D502408E65480F6E488
:1004A30018F6800FF4043D14501408E6447FF61840
:1004B3007680E418F618F6D0E0FCD0E0FD22CCD329
:1004C30013CCFD18E4C6CBC0E018E4C6CAC0E008EC
:1004D30008ED08C633E613F618E433C675F003C314
:1004E300CA97CA09CB97CB199C40047D08802EBDBF
:1004F30000030205B416B6FF050606081618C3CA9C
:1005030033CACB33CB33CA27CA09CB37CB193CC346
:100513007D08803E187D0820E75CC633C6CA33CA0F
:10052300CB33CB33DDF1D5F0EB30E77BCA97CA0988
:10053300CB974ACB199C406F4B7025E620E0218076
:1005430066187D08C3CA97CA09CB97CB199CD3C633
:1005530033C6CA33CACB33CB3350C9DDE7D5F0E159
:10056300D3E4C636C608C636C608C636C608C63677
:10057300C61818188031C3CA97CA09CB97CB199CE0
:10058300B34097C633C6CA33CACB33CB33DD34D576
:10059300F02EC6A2E0C640C8CA27CA09CB37194AFB
:1005A30070BECB3CB480B90808E63308E633601F5D
:1005B300181818D0E0FAD0E0FBD0E0FCD0E0FD2220
:1005C300187D08CA27CA09CB37CB193CD3808013BF
:1005D300F618E4B67F11F618B6FF0EF618C60470C7
:1005E300D20808768080CAF618F618F680C500127D
:1005F30013BE604F1213A06012E7548066F6121206
:100603004D701112142C703B090909F4F618F618F1
:10061300F618F622121261701512143508080860D4
:10062300EAE6447FF618768018E4F618F6221214E8
:1006330035601612142C7012E4F608F608F608E674
:100643005480F609090918181822EAC0E0EBC0E043
:10065300ECC0E0EDC0E0E687F0A4FBACF008E68771
:10066300F0A42CFCE435F0FA1809E687F0A42C4B2F
:1006730060027401CA35F0FCE433FB09E687F0D26B
:10068300F7A42CCB35F0FC1908E687F0A42BCC3566
:10069300F0FBE433FD0819E687F0D2E7A42C4ACB3C
:1006A30035F0CD3400FC09E687F0D2E7A42DCC3534
:1006B300F0FDE433FA0918E687F0D2F7A42CCD3520
:1006C300F0CA3400FC08E687F0D2E7D2F7A42ACCBC
:1006D30035F07A7E20E70B0ACB33CBCD33CDCC3349
:1006E300CC33CB3350147004ED30E00ED2F1E4CDB3
:1006F3003DCDCC3CCC3B5005DA05C2F1EB547FC673
:100703003308E63392F0FBE73309E733C39A502DFE
:100713002B70190C0D4C4D70151806E608C3337079
:100723000D20F10AA2F013F6E418800B4024E4F63E
:1007330030F002768018F618F618F68024D33B14AE
:10074300501074FFA2F013F6187680E418F618F62A
:10075300800FA2F013F618E63303F618ECF618ED43
:10076300F6D0E0FDD0E0FCD0E0FBD0E0FA22C0E020
:1007730074F1120BD3A2AFE433F509D2AF85A70806
:10078300AFA1EF5508FE74105E60061216A575A1A1
:10079300EF74085E60081216AB75A1F78024EFA210
:1007A300E092F0E508A2E082F05017906198E0F83B
:1007B300900586E0C398A2D265D0335002E8F07565
:1007C300A1FE752300E509A2E092AF7F02020C327D
:1007D300C0E074F2120BD3A2AFE433FED2AF906148
:1007E300A4E0F8759B00E59158540860087591F7EB
:1007F3001216F98023E59158541060087591EF1291
:1008030016FF8014E591A2E092F0E8A2E082F05096
:1008130007E0C2E0F01218619061A3E0F8E5E9583F
:100823005404600E12183775E9FB906193E0A2E659
:1008330040F2752300EEA2E092AF7F01020C32C0BA
:10084300E074F2120BD3A2AFE433FED2AF9061A5F2
:10085300E0F8E5BF585404600675BFFB12187980B1
:10086300D11208AF30F0391208F480341208AF20E7
:10087300F01430E72B74FFFCFBFA747F8022E4FC56
:10088300FBFA7480801AB48008BC00F2BB00EF80CE
:100893000F50EBF9E4C39AFAE49BFBE49CFCE49964
:1008A300C6CC18C6CB18C6CA18C6F922E4C9C608EE
:1008B300CAC608CBC6D3330308CCC63392F0C3945D
:1008C3007F402E94184019C9B90704CACBCC2250D3
:1008D30025C309CA33CACB33CBCC33CC33D9F422A7
:1008E300F4600DC9CCC313CB13CBCA13CAD9F6CC4E
:1008F30022E4FCFBFA2214FCFBFA22C3E498F8E49A
:1009030099F912093F8026C3E49AFAE49BFBE92094
:10091300E7E912093FE498F8E499F922C3E498F867
:10092300E499F912093FE498F8E499F9C3E49AFACF
:10093300E49BFB22EB20E7CFE920E7E0B90010BB03
:100943000008E88AF084F8AAF022E4FBC8FA22EB54
:1009530070227B10C833C8C933C9335007C39AC345
:10096300DBF280069A50012ADBEAC833F4C8C933A4
:10097300F4C9FA2275F008E4C833C8C933C933C9C6
:100983009AC99B5004C92AC93BD5F0ECFBC833F480
:10099300C8E4C9FA22080808EAC0E0EBC0E086F020
:1009A300E7A4FA180986F0E7A42AFA180986F0E7FB
:1009B300A42AFA180986F0E7A42AFA1986F0E7A40C
:1009C300FBE5F02AFA190886F0E7A42BFBE5F03AD9
:1009D300FA190886F0E7A42BFBE5F03AFA18180990
:1009E30086F0E7A4C5F02BFBE43AFA1908E7C5F053
:1009F300C6A426F6E5F03BFBE43AFA1886F0E7A432
:100A0300F6E5F00826F6E43B08F6E43A08F6D0E00B
:100A1300FBD0E0FA22080808E630E711121225128B
:100A23000A30080808C64480C6181818221818186F
:100A3300E9799EC608CAC608CBC608CCC6C37020CF
:100A43007996CACBCC7019798ECBCC70137986CCBE
:100A5300700EF9802ACA33CACB33CBCC33CC3319CB
:100A630030E7F2CCCBCA3350147004EA30E00DE423
:100A7300CA3ACACB3BCBCC3CCC500209C3E913C620
:100A8300CC182313C6CB18C6CA18C6F922E4CFC0A4
:100A9300E0E4CEC0E0E4CDC0E0E4CCC0E075F020FB
:100AA300E626F608E633F608E633F608E633F618E4
:100AB3001818EC33FCED33FDEE33FEEF33FFC3ECDC
:100AC3009709ED9709EE9709EF97191919400FFF49
:100AD300EC97FC09ED97FD09EE97FE191906D5F081
:100AE300BFECF709EDF709EEF709EFF7191919D07C
:100AF300E0FCD0E0FDD0E0FED0E0FF222521C5825E
:100B0300C0E0E52234FFC583C0E0E521C39582241C
:100B1300F810AF088583228582218008858322858A
:100B23008221D2AFCEF0A3E520F0A37808E608F047
:100B3300A3DEFAEFF0A3E58124FAF8E608F0A3E6D2
:100B430008F0A3E608F0A30808E608F0A3E608F017
:100B5300A315811581D0E0FED0E0F815811581152C
:100B630081E8C0E0EEC0E022121417B90003020BC3
:100B7300BDE490050178F679138002F0A3D8FCD97F
:100B8300FA78239000867A01BA00028007E493A3DF
:100B9300F608DAF97AF67B179000877846790280AF
:100BA30015E493A3AD82AE838A828B83F0A3AA82DA
:100BB300AB838D828E83D8E9D9E77582117583C79C
:100BC30074041210B775825B75832A74001210B710
:100BD300C0D02521C582C0E0E52234FFC583C0E033
:100BE300E521C3958224F310AF08858322858221F2
:100BF3008008858322858221D2AFC8F0A3E9F0A3C0
:100C0300EAF0A3EBF0A37908E709F0A3D8FAECF034
:100C1300A3EDF0A3EEF0A3EFF0A3D0E0F0A3D0E0B8
:100C2300F0A3D0E0F0A3E520F0A3E5F0F0A3228544
:100C33002283852182E0C0E0A3E0F9A3E0FAA3E0E8
:100C4300FBA37808E0F608A3DFFAE0FCA3E0FDA32A
:100C5300E0FEA3E0FFA3E0C0E0A3E0C0E0A3E0F573
:100C6300D0A3E0F520A3E0A3F5F010AF088583221D
:100C73008582218008858322858221D2AFD082D0CC
:100C830083D0E0F8D0E032121228181818120A9014
:100C930012132119191922121321191919080808F5
:100CA300E618181820E7E0120A90121228181818EC
:100CB30022090909E719191920E7DC080808E618C9
:100CC300181820E703020A90121228181818120A9B
:100CD3009012122818181812132119191922E473E3
:100CE3000575F0108E248F2585822985832885211B
:100CF30082852283E0CEA3E0CF852982852883EBFA
:100D0300C9EAC8EDCBECCAC3E833C8E933C9EA334F
:100D1300CAEB33CBC3EA9EF527EB9FF526B350040A
:100D2300AB26AA27EC33CCED33CDD5F0DAAE24AF26
:100D330025221213BE601C1213A060171214357003
:100D43000712142C7001D322C0D012142C7006D0B9
:100D5300D0B322C32233D0D0501430E0F6C3E79689
:100D63000809E7960809E7960809E796B32220E001
:100D7300D5E6970809E6970809E6970809E697B3C1
:100D830022D083D082ECC0E0EDC0E0E493A3FCE486
:100D930093A3FDED4C600D120EA8EC24FFFCED3483
:100DA300FFFD80EFE493A3FCE493A3FDED4C600D02
:100DB300120F9CEC24FFFCED34FFFD80EFD0E0FD2F
:100DC300D0E0FCE493A3C0E0E493C0E0221213BE9E
:100DD300601B1213A06016121435700712142C60D6
:100DE3000CB322C0D012142C7005D0D022C32233EE
:100DF300D0D0501330E0EBC3E7960809E796080913
:100E0300E7960809E7962220E0E4E6970809E697C3
:100E13000809E6970809E69722D083D082E9C0E063
:100E2300E493A3C386F0C5F095F0F908E493A38691
:100E3300F0C5F095F0700BE493A3C3994005E90462
:100E43008002A3E475F002A42582F582E5F03583E0
:100E5300F583D0E0F9E493A3C0E0E493C0E02285F6
:100E63002283852182E0A3FEE0A3F5207808E0A396
:100E7300F608DFFAE0A3FFE0A3C0E0E0A3C0E0E0F0
:100E8300A3C0E0E0A3C0E0E0A3C0E010AF08858208
:100E9300218583228008858221858322D2AFD08356
:100EA300D0820210BDC0E0C3E49396087401939608
:100EB30018400FE493667008087401936618700075
:100EC3007019A3A3C3E49396087401939618A3A37C
:100ED300400DD0E0D0E0D0E0020DC0A3A3A3A3A3B4
:100EE300A3D0E0227404800474028000CCC0E0ED3F
:100EF300C0E0E521C39CCCAD2250011D10AF068C90
:100F0300218D2280068C218D22D2AF121039D0E0A0
:100F1300FDD0E0FC2274028000CCC0E0EDC0E0E52F
:100F230021C39CCCAD2250011D10AF068C218D2214
:100F330080068C218D22D2AF121017D0E0FDD0E0B5
:100F4300FC221213BE60251213A060201214357008
:100F53000302142C080808E76670101819E7667076
:100F63000A1819E76670041819E76622F422C0E02C
:100F730074F2120BD3A2AFE433FED2AFE58BA2E03F
:100F8300500579041215FD758B00C2E8752300EE38
:100F9300A2E092AF7F01020C32C0E0C0F088F0E41F
:100FA300936670080874019366187000A8F0A3A3F1
:100FB300700BD0F0D0E0D0E0D0E0020DC0A3A3D0FE
:100FC300F0D0E022D083D082CCC0E0E493A36006CB
:100FD3001210981470FAE493A360061211A6147009
:100FE300FAD0E0FCE493A3C0E0E493C0E022C0089D
:100FF300C3E096F50808A3E096420808A3E09642EA
:101003000808A3E0964208A2D265D033E508700130
:10101300D3D00822CAC0E0E493A3C582CCC582C55D
:1010230083CDC583F0A3C582CCC582C583CDC583DB
:10103300DAE5D0E0CA22CAC0E0E0A3C582CCC5820B
:10104300C583CDC583F0A3C582CCC582C583CDC579
:1010530083DAE6D0E0CA22C008C3E096F50808A305
:10106300E096420808A3E096420808A3E0964508E4
:101073007001D3D0082270090808082260161818D6
:1010830018C6C333C608C633C608C633C608C63334
:10109300C6D5E0EA22C0E0E493A3D39C5010E493C6
:1010A300A3C39C400AD0E0D0E0D0E0020FE4A3A3A6
:1010B300A3D0E022C09FF59FE473D09F22D083D0BA
:1010C30082C09FE493C0E0740193C0E0740293F57F
:1010D3009F22C0E0C0D0E8C0E0A8A8D2AFC2C775C5
:1010E3002300E8A2E792AFD0E0F8D0D0D0E03225D9
:1010F30021F58210AF08F521400C15228008F52157
:1011030040021522D2AF8522832200C0D0252110B0
:10111300AF08F521500C05228008F5215002052265
:10112300D2AFD0D0227404800A7403800674028084
:10113300027401C0E0F4041210F2D0E01213DA22B8
:10114300BB0102E722C082C08389828A83BB00037A
:10115300E08002E493D083D082226016080808C698
:10116300C313C618C613C618C613C618C613C6D5E6
:10117300E0EA222521F8E43522F9222521FAE43593
:1011830022FB222521FCE43522FD22C3E0C696F68C
:1011930008A3E0C696F608A3E0C696F608A3E0C641
:1011A30096F622C0E0E493A36C7009D0E0D0E0D0BF
:1011B300E0020FE4A3A3D0E022252110AF08F5211C
:1011C300400C15228008F52140021522D2AF22E0FF
:1011D30066701008A3E066700A08A3E0667004084E
:1011E300A3E06622C3E09608A3E09608A3E096086E
:1011F300A3E096A2D265D03322E76670100809E710
:1012030066700A0809E76670040809E76622C3E006
:1012130096F008A3E096F008A3E096F008A3E09602
:10122300F022181818E4C396F608E496F608E49634
:10123300F608E496F622C3E697F60809E697F60859
:1012430009E697F60809E697F622181818E60846FD
:10125300087009E626087005E633F42208221919F6
:1012630019E70947097009E727097005E733F422ED
:101273000922C3E493960874019396087402939623
:10128300087403939622E627F60809E637F6080959
:10129300E637F60809E637F622700422600D18C611
:1012A300C333C608C633C6D5E0F41822E657F6089A
:1012B30009E657F60809E657F60809E657F622E065
:1012C30056F608A3E056F608A3E056F608A3E05640
:1012D300F622E026F608A3E036F608A3E036F60881
:1012E300A3E036F622E026F008A3E036F008A3E0F8
:1012F30036F008A3E036F022E056F008A3E056F0FB
:1013030008A3E056F008A3E056F022E647F60809E2
:10131300E647F60809E647F60809E647F622E4C376
:1013230097F709E497F709E497F709E497F7226039
:101333000D08C6A2E713C618C613C6D5E0F322C626
:10134300F4C608C6F4C608C6F4C608C6F4C622C363
:10135300E09608A3E09608A3E09608A3E09622C3CC
:10136300E7960809E7960809E7960809E7962275BC
:10137300D00075813F75210175220500020B6B605A
:101383000C08C6C313C618C613C6D5E0F422E6F08C
:1013930008A3E6F008A3E6F008A3E6F022E709476E
:1013A30009C3134709336002E733F422E0F608A3C5
:1013B300E0F608A3E0F608A3E0F622E6084608C331
:1013C300134608336002E633F422800100E9F8741F
:1013D300FF28F90470F622CAC0E0E6F0A308DAFA9F
:1013E300D0E0FA22E0F8A3E0F9A3E0FAA3E0FB22BD
:1013F300E8F0A3E9F0A3EAF0A3EBF022EAF0A3EB11
:10140300F0A3ECF0A3EDF022E0FAA3E0FBA3E0FCF1
:10141300A3E0FD22E5C754F84401F5C7790122256D
:1014230021F582E43522F58322E727194719471965
:101433004722E62618461846184622C2AF75D69F9D
:10144300020000221210C0C3D5031210C01FD6031E
:101453001210C07DD6031210C0F0D6031210C03490
:10146300D7031210C08CD7031210C0AED7031210CB
:10147300C03ED8031210C0CFD8031210C01BD9032B
:101483001210C047D9031210C088D9031210C02705
:10149300DB031210C009DC031210C0DEDC031210E0
:1014A300C06AEC011210C0FEEC011210C066ED011F
:1014B3001210C08BEE011210C015EF011210C0A064
:1014C300EF011210C0DCEF011210C075F001121011
:1014D300C00AF1011210C0DDF1011210C0BFF30107
:1014E3001210C073F4011210C069F5011210C00884
:1014F300F6011210C05DF6011210C0CBF6011210F6
:10150300C0D7F9011210C001FC011210C002FD0185
:101513001210C040FE011210C04BFE011210C0E9B0
:10152300B7041210C012B8041210C02DB804121060
:10153300C052B8041210C0F3B8041210C00EB9049C
:101543001210C0CCB9041210C0F6B9041210C0D9DD
:10155300BE041210C095BF041210C07AC00412104A
:10156300C0EED0041210C0FFD0041210C09DD104ED
:101573001210C0A8D1041210C0C2D1041210C0FAB4
:10158300FF021210C07CD7041210C0B3D204121091
:10159300C0C3D2041210C0D5D2041210C087D30422
:1015A3001210C0E9CE041210C06DCF041210C0D5C2
:1015B300CF041210C047FD031210C065FD031210C3
:1015C300C09AFD031210C0BFFD031210C0E2FD0359
:1015D3001210C01DFE031210C04AFE031210C09168
:1015E300FE031210C030FF031210C00CFF021210D2
:1015F300C059FF021210C062FF021210C089FF021D
:101603001210C0D1FF021210C0E8FF021210C0F680
:10161300FF011210C0F9FF011210C0F87F00121071
:10162300C00BC3041210C043C3041210C091C404FE
:101633001210C015C5041210C05A8E041210C086B1
:101643008E041210C0F090041210C03091041210D6
:10165300C06C91041210C08091041210C0999104BF
:101663001210C08B92041210C03E93041210C05289
:1016730093041210C08AFE011210C0AEFE011210B4
:10168300C0C7FE011210C005FF011210C035FF01D3
:101693001210C062FF011210C06CFF011210C0D201
:1016A300FF011210C0D5FF011210C0DFFF0112109D
:1016B300C0ECFF011210C0337D001210C0537D0037
:1016C3001210C0927D001210C0B07D001210C0CB6A
:1016D3007D001210C0317E001210C03D7E0012103A
:1016E300C09A7E001210C0A97E001210C0CD7E00E9
:1016F3001210C08E7F001210C09B7F001210C0AC6E
:101703007F001210C082D5041210C0CAD504121073
:10171300C0F6D5041210C0A893041210C0FC9404A0
:101723001210C00A95041210C01D95041210C03285
:1017330095041210C04795041210C05A9504121054
:10174300C0D695041210C03B96041210C0C3960471
:101753001210C03B97041210C01498041210C02436
:1017630098041210C03398041210C0E9D404121064
:10177300C00DD5041210C035D5041210C05DD504B8
:101783001210C046BA041210C06DBA041210C08BF6
:10179300BA041210C0FABA041210C01AAF0412101D
:1017A300C033AF041210C03FAF041210C053AF04D4
:1017B3001210C071AF041210C07BAF041210C085A9
:1017C300AF041210C098AF041210C022B00412105C
:1017D300C097B0041210C0CBB0041210C019B104EA
:1017E3001210C066B1041210C081B1041210C08B74
:1017F300B1041210C0B1B1041210C016B204121019
:10180300C0D1D1041210C0F3D1041210C089D20484
:101813001210C0E6FF031210C072F5021210C09E30
:10182300F5021210C0BBF5021210C0CEF502121061
:10183300C0E9F5021210C043F6021210C071F6029D
:101843001210C085FA021210C0E3FB021210C01579
:10185300FC021210C078FC021210C0FDFD0212102F
:10186300C025FE021210C03AFE021210C04AFE0248
:101873001210C08AFE021210C0CCFE021210C0DC8D
:10188300FE021210C095CB041210C0AFCB0412108D
:10189300C0D7CB041210C0F0CB041210C014CC0478
:1018A3001210C032CC041210C049CC041210C077FD
:1018B300CC041210C092CC041210C08DD3041210A9
:1018C300C0D1D3041210C026A5041210C036A5043B
:1018D3001210C03BA6041210C06DA6041210C09DC6
:1018E300A6041210C0C0A6041210C0D7A60412107A
:1018F300C011A7041210C076A7041210C0B8A70421
:101903001210C0FFA7041210C02CA8041210C05755
:10191300A8041210C0FFC8041210C011C904121089
:10192300C025CA041210C028CA041210C0E3CD0493
:101933001210C019CE041210C031CE041210C0739D
:10194300CE041210C083CE041210C0C7CE041210EE
:10195300C0D1CE041210C06387041210C0A687043E
:101963001210C00B88041210C02A88041210C0CCB5
:1019730088041210C0D588041210C02689041210DE
:10198300C04F89041210C05C89041210C0CE8904B0
:101993001210C05C8A041210C0A18A041210C0DAAB
:1019A3008A041210C03F8B041210C0688B041210FB
:1019B300C0DF8B041210C02E8C041210C06B8C0479
:1019C3001210C0A08C041210C0B28C041210C0C438
:1019D3008C041210C0E38C041210C0EC8C0412109F
:1019E300C0AD8D041210C0F08D041210C02E8E04F1
:1019F3001210C027D7041210C055CA041210C09B7E
:101A0300BC041210C0D1BC041210C019BD041210C2
:101A1300C072BE041210C060AB031210C086AC03C8
:101A23001210C0C2AC031210C080AE031210C0AEBD
:101A3300AE031210C018B1031210C058B103121034
:101A4300C0FAB2031210C090B3031210C0EAB3037A
:101A53001210C07AB4031210C0BEB4031210C00037
:101A6300B5031210C065B6031210C0E5B703121018
:101A7300C026BA031210C054BA031210C080BA03AE
:101A83001210C089BA031210C0E6BA031210C07F45
:101A9300BB031210C096BE031210C01CBF0312106A
:101AA300C03FD4041210C057D4041210C061D40430
:101AB3001210C0B7D4041210C0DE9C041210C0F47C
:101AC3009C041210C0959D041210C0D49D041210E2
:101AD300C0F19D041210C0229E041210C06F9E0418
:101AE3001210C0A39E041210C0DE9E041210C0DBAD
:101AF300A0041210C041A1041210C0EECF041210B2
:101B0300C04DD0041210C08BD0041210C0CCD0042E
:101B13001210C0CFD6041210C0B9A5021210C0C54E
:101B2300A5021210C027A6021210C031A60212107D
:101B3300C0BEA6021210C0FAA6021210C0AFA702BE
:101B43001210C00EA8021210C0B3A8021210C031A6
:101B5300A9021210C0FDAA021210C058AD02121041
:101B6300C0C0AE021210C06CAF021210C042B40269
:101B73001210C037B5021210C0CFB5021210C0F454
:101B8300B5021210C0A2B6021210C0C0B6021210E3
:101B9300C02EB7021210C04DB7021210C07AB7029E
:101BA3001210C018B9021210C039B9021210C0DFE6
:101BB300B9021210C027BA021210C09BBA02121047
:101BC300C029BB021210C086BB021210C0FFBB02A9
:101BD3001210C07BBD021210C0DFBF021210C0681A
:101BE300C0021210C096C0021210C000800412106E
:101BF300C09180041210C06882041210C08C820449
:101C03001210C09182041210C0B382041210C0D308
:101C130082041210C01984041210C0BE840412106E
:101C2300C07A85041210C06386041210C0AFA804E2
:101C33001210C06EA9041210C0D4A9041210C083DC
:101C4300AA041210C02F96031210C05E960312103E
:101C5300C0D696031210C0E597031210C041980333
:101C63001210C0AE99031210C0CA99031210C01CFF
:101C73009A031210C05F9A031210C0729A031210D3
:101C8300C0CA9A031210C08C9B031210C0089C0395
:101C93001210C03F9C031210C0779C031210C0099E
:101CA3009E031210C0E89E031210C036A003121048
:101CB300C019A1031210C0A5A1031210C0E5A1030E
:101CC3001210C004A2031210C04FA2031210C06F5F
:101CD300A2031210C008A3031210C08EA303121094
:101CE300C0E9A3031210C029A4031210C0BFA603A6
:101CF3001210C0D8A7031210C01EA8031210C013DD
:101D0300A9031210C03BA9031210C03EA90312106D
:101D1300C048A9031210C064A9031210C0DEA903AE
:101D23001210C017AA031210C043AA031210C06AEC
:101D3300AA031210C08EAA031210C0FFAA03121026
:101D4300C012AB031210C041AB031210C0F9D5048B
:101D53001210C005D6041210C039D6041210C0FCEC
:101D6300FF011210C00080031210C0238003121061
:101D7300C07081031210C0B981031210C025820301
:101D83001210C08382031210C08682031210C0D7C0
:101D930082031210C04C83031210C0D183031210AC
:101DA300C0D483031210C05584031210C096840359
:101DB3001210C08288031210C02C8A031210C07C38
:101DC3008A031210C0038E031210C0368F03121041
:101DD300C0B090031210C04D91031210C03892038B
:101DE3001210C08D94031210C07BBF031210C025C4
:101DF300C0031210C090C0031210C0ABC003121076
:101E0300C030C1031210C08AC1031210C0D1C10374
:101E13001210C038C2031210C0B7C3031210C0E6B9
:101E2300C4031210C06EC5031210C077C70312108B
:101E3300C024C8031210C0C8C8031210C099C90334
:101E43001210C054CB031210C0ECCC031210C07F8D
:101E5300CD031210C0A5CE031210C0C6C2021210C9
:101E6300C0CDFC031210C071C3021210C0B5C3026F
:101E73001210C010C4021210C06DC4021210C0A808
:101E8300C4021210C02AC5021210C084C502121067
:101E9300C002C7021210C082C7021210C0DDC702FF
:101EA3001210C0F7C7021210C018C8021210C07275
:101EB300C8021210C0EECA021210C00DCB021210DB
:101EC300C0FDCB021210C030CD021210C0AFCD0244
:101ED3001210C0EBCD021210C05ACE021210C00F66
:101EE300CF021210C0E7D0021210C0EED1021210BE
:101EF300C066D3021210C05CD5021210C0D2D70242
:101F03001210C0ACD9021210C0EAD4031210C0E5FB
:101F1300DA021210C042D3031210C0F3DB02121014
:101F2300C0E7DC021210C056DD021210C021B20459
:101F33001210C078B3041210C037B4041210C09F3B
:101F4300B4041210C0F5AB041210C010AC0412108C
:101F5300C054AC041210C07AAC041210C0A1AC047B
:101F63001210C0B9AC041210C05BAD041210C070E3
:101F7300AD041210C093AE041210C09CAE04121034
:101F8300C0A5AE041210C0AEAE041210C0B8AE04A9
:101F93001210C06498041210C0709C041210C07513
:101FA3009C041210C0779C041210C08CC70412103A
:101FB300C0DA7F001210C013B5041210C0C5CC04E0
:101FC3001210C06ED6041210C0FCC0041210C0BAA6
:101FD300FF031210C04EA1041210C00080021210A1
:101FE300C03380021210C09F80021210C03A8102D7
:101FF3001210C0D781021210C01C82021210C03E00
:1020030082021210C05782021210C07D8202121087
:10201300C09F82021210C0DD82021210C02183020F
:102023001210C04383021210C0A583021210C06CA9
:1020330084021210C02385021210C095850212106B
:10204300C06086021210C0B386021210C019870244
:102053001210C05387021210C0A587021210C013BA
:1020630088021210C07E88021210C08188021210EA
:10207300C00289021210C09989021210C0198A0283
:102083001210C0388A021210C09C8B021210C0A911
:102093008B021210C0B58C021210C0C28C02121037
:1020A300C0CB8C021210C0A38E021210C0BD8F02CF
:1020B3001210C03690021210C0A890021210C0CAAB
:1020C30090021210C05E91021210C03293021210DD
:1020D300C00997021210C01D97021210C02D97025B
:1020E3001210C03797021210C04097021210C04955
:1020F30097021210C05397021210C0809702121059
:10210300C0A997021210C0B497021210C0D8970248
:102113001210C0FC97021210C06698021210C0ACD5
:1021230098021210C0C998021210C04699021210E8
:10213300C07D99021210C0BC99021210C0099A0204
:102143001210C08F9A021210C05D9C021210C0E0E0
:102153009C021210C0C49D021210C02BA0021210C8
:10216300C084A0021210C0CEA0021210C029A20285
:102173001210C05EA2021210C0B0A2021210C065FB
:10218300A3021210C014A4021210C051A402121010
:10219300C0E6A4021210C052A5021210C06C300097
:1021A3001210C09E30001210C0CC30001210C0A21A
:1021B30032001210C08233001210C0DA3300121042
:1021C300C01535001210C06135001210C08A3800E6
:1021D3001210C07D3B001210C0CD3C001210C06332
:1021E3003D001210C06F3D001210C0A13D0012103F
:1021F300C0243F001210C0D540001210C069410036
:102203001210C0AC41001210C02A42001210C04785
:1022130042001210C07742001210C0AC42001210EC
:10222300C07C43001210C02544001210C0AB46000E
:102233001210C0CB47001210C0B648001210C038AD
:1022430049001210C06C4D001210C0A94D001210AD
:10225300C0014E001210C0344E001210C09E4E003A
:102263001210C0D44E001210C05F4F001210C0B73E
:102273004F001210C08E50001210C04751001210B0
:10228300C0E251001210C0EA54001210C0065600FA
:102293001210C0A959001210C09D5A001210C0A0FC
:1022A3005A001210C0CF5A001210C0D55C00121091
:1022B300C0AE5D001210C0F15D001210C0475F0098
:1022C3001210C0865F001210C00F60001210C043CE
:1022D30060001210C00861001210C02063001210C9
:1022E300C09163001210C0D163001210C05F64007C
:1022F3001210C08165001210C04366001210C04A5C
:1023030068001210C06268001210C07668001210D4
:10231300C0AE68001210C0DC68001210C05B6A0017
:102323001210C0806B001210C0DD6B001210C08F42
:102333006C001210C0B66C001210C07D6D0012103C
:10234300C0156E001210C03B70001210C0707000F8
:102353001210C0D370001210C00272001210C0AA73
:1023630072001210C0DB72001210C0F37200121060
:10237300C08273001210C03676001210C00E7800AF
:102383001210C02A78001210C04678001210C01430
:1023930079001210C0077D001210C088820112104C
:1023A300C0BA82011210C0A986011210C0F58601BD
:1023B3001210C03B87011210C0DD87011210C03913
:1023C30088011210C07E88011210C0C58901121045
:1023D300C0D98A011210C0C88E011210C04C8F01DF
:1023E3001210C05990011210C0B590011210C0A56F
:1023F30092011210C01A93011210C02493011210FB
:10240300C03193011210C05C93011210C0439401B8
:102413001210C0ED94011210C06B95011210C08B05
:1024230095011210C0B495011210C0D69501121077
:10243300C03698011210C0FC98011210C0419901D6
:102443001210C0BE99011210C06F9A011210C0A1E0
:102453009A011210C0E79A011210C0239B011210B7
:10246300C0739B011210C0C79B011210C01D9C01B9
:102473001210C0699C011210C0D69C011210C051E9
:102483009D011210C01C9F011210C01CA00112104C
:10249300C041A1011210C080A4011210C093A70172
:1024A3001210C050A8011210C094A8011210C04409
:1024B300AA011210C058AA011210C062AA01121078
:1024C300C06CAA011210C078AA011210C094AA010C
:1024D3001210C03FAB011210C07EAB011210C088B6
:1024E300AB011210C092AB011210C002AC0112106A
:1024F300C04DAC011210C062AD011210C0BEAD01DF
:102503001210C03FAE011210C0FEAE011210C00780
:10251300B0011210C03BB1011210C029B201121058
:10252300C041B2011210C09CB2011210C0BAB20174
:102533001210C002B3011210C029B3011210C0C49B
:10254300B3011210C08AB4011210C01CB5011210DD
:10255300C096B5011210C0B0B6011210C05DB7012C
:102563001210C085B8011210C0D5B8011210C039BD
:10257300B9011210C09BB9011210C0C9B9011210E0
:10258300C0EDB9011210C022BA011210C053BA0132
:102593001210C086BA011210C0A6BA011210C00EE2
:1025A300BB011210C002BC011210C05DBC011210AD
:1025B300C086BC011210C00EBD011210C091BD0136
:1025C3001210C0BCBD011210C0A1BE011210C0B8D0
:1025D300DD031210C0F0DD031210C011DE03121070
:1025E300C053DE031210C0B5DE031210C0BFDE03FA
:1025F3001210C0CFDE031210C00ADF031210C0EAAC
:10260300E2031210C0D7E4031210C0BDE603121098
:10261300C054E7031210C0F6E7031210C0A3C001B1
:102623001210C021C1011210C07DC1011210C0C817
:10263300C1011210C0E3C1011210C00EC201121079
:10264300C02BC2011210C037C2011210C0CEC30189
:102653001210C0E7C3011210C06CC4011210C07F76
:10266300C4011210C09EC4011210C042C501121051
:10267300C0C3C6011210C076C8011210C00CC90134
:102683001210C00FC9011210C07FC9011210C09DE2
:10269300C9011210C034CA011210C07CCA01121041
:1026A300C07FCA011210C045CB011210C0B2CB01CA
:1026B3001210C0D8CB011210C063CC011210C0811C
:1026C300CC011210C0C7CC011210C07BCD01121077
:1026D300C0C5CD011210C0F4CD011210C051CE01FE
:1026E3001210C086CE011210C0B2CE011210C0C0AB
:1026F300CE011210C00DCF011210C07DCF011210F8
:10270300C0C6CF011210C012D0011210C03ED001BA
:102713001210C049D0011210C067D0011210C0526C
:10272300D1011210C05CD1011210C097D101121057
:10273300C0A7D1011210C0B0D1011210C004D20140
:102743001210C018D2011210C047D3011210C05E7C
:10275300D3011210C073D3011210C001D40112109F
:10276300C046D4011210C0D2D4011210C0DDD4016E
:102773001210C01FD6011210C03AD6011210C08623
:10278300D6011210C0F5D6011210C02ED7011210B7
:10279300C048D7011210C08AD7011210C05ADA01FB
:1027A3001210C007DB011210C074DB011210C0B499
:1027B300DD011210C0CCDD011210C0CFDD011210FB
:1027C300C0DBDD011210C0EFDD011210C0F7DD0127
:1027D3001210C02ADE011210C02CDF011210C0B388
:1027E300DF011210C023E0011210C0A5E001121096
:1027F300C066E1011210C085E1011210C026E2019A
:102803001210C083E2011210C086E2011210C0B39D
:10281300E2011210C0C8E2011210C03CE301121021
:10282300C08BE4011210C091E5011210C01CE60137
:102833001210C037E7011210C0FFE7011210C030B9
:10284300E8011210C053E8011210C05CE801121035
:10285300C08BE8011210C01BE9011210C0D1E901BD
:102863001210C046EA011210C0EDEA011210C06254
:10287300EB011210C099EB011210C0D7EB0112103B
:10288300C00DEC011210C076FC031210C0E4FA0371
:102893001210C036FA031210C02CFA031210C0C56E
:1028A300F9031210C0B1F9031210C00EF90312108C
:1028B300C00EF8031210C027F7031210C017F50358
:1028C3001210C025F4031210C058D4031210C00C08
:1028D300D4031210C0C3F3031210C062F502121026
:1028E300C026D3031210C0FFD0031210C0F7F402A6
:1028F3001210C02BF3021210C0E9F2021210C0ED45
:10290300F1021210C0C1F1021210C078F1021210CC
:10291300C0B9F0021210C0BBED021210C08DEB0261
:102923001210C05AEB021210C001EB021210C09435
:10293300EA021210C053EA021210C08CE90212100C
:10294300C026E9021210C0C5E8021210C065E802F1
:102953001210C03CE7021210C0D0E6021210C028C9
:10296300E6021210C023E6021210C017E60212108C
:10297300C04AE2021210C024E2021210C0C1D00306
:102983001210C093D0031210C060D0031210C0E421
:10299300CF031210C041C6041210C09FC504121009
:1029A300C04CC5041210C0C2E1021210C063E102A0
:1029B3001210C024E1021210C011E1021210C0185B
:1029C300C5041210C006E1021210C0D5E0021210B5
:1029D300C0F1DE021210C064DE021210C06DDA0212
:1029E3001210C020DE021210C087D3031210C0F9E8
:1029F300DD021210C053F3031210C026F3031210AA
:102A0300C0F3F2031210C0CBF2031210C06CF20336
:102A13001210C04CF2031210C017F2031210C0C3FD
:102A2300EE031210C0ABEC031210C095EA031210B0
:102A3300C015EA031210C0C1E9031210C075E903FF
:102A43001210C0FCDA021210C001FD031210C0CD37
:102A5300E8031210C029C30200000080FB8F0001AD
:102A630000B01887000100AE183500040077182560
:102A73000002007B18260002007D18270002007F59
:102A830018280001008918290001008A188400040D
:102A930000E4158600010004182A0001008B182B9E
:102AA3000001008C182C00010090182D000800F084
:102AB300152E00010091182F00010092183000011B
:102AC30000931831000100941832000100F8153307
:102AD300000100F91534000100951836000100FAD1
:102AE30015380001009618390001008F1883000281
:102AF30000AC18630001000616640001008D186520
:102B03000001008E186D000100071671000800E82F
:102B13001566000100AB18430001009C1844000235
:102B2300009D18450001009F1846000200A01847A9
:102B3300000800FE1548000100A2184B000100A385
:102B43001804000100AF18A1000100B318370001F9
:102B530000B21888000100B1183C000100FB153DCC
:102B6300000100971849000200A41867000100083B
:102B7300164D000200A6184E000100A8184F0002CF
:102B830000A9183E0001009B1851000100FC1552DA
:102B93000001009918530001009A1854000100FD28
:102BA300150000000000000001363601010001029B
:102BB30001000103010001040106060502000007EC
:102BC3000100340801000F090401010D0100FF0E8B
:102BD30008000017020000190100FF1A0100011B81
:102BE3000100FE1C0100081D0200001F010001205E
:102BF300010001210200002301000F24020000262E
:102C030001000127010008280200FF2A0100072B09
:102C13000102402C0100002D0100012E0100012FB3
:102C23000100FF30010B1D310800003A0100083B91
:102C330001000F3C0100013D0100FF3E0400004282
:102C4300040000460400004A0400004E0400005241
:102C5300040000560400005A040000000000002095
:102C63000182820000010020018482000002002012
:102C730001868200000300200183820000040042D9
:102C8300011A81000005004201E6800000060042AF
:102C930001F78000000700300187820000004042F6
:102CA30001F7800000FDFF21018082010020002048
:102CB300050C180100210020050D1802040000294D
:102CC30005D114030400002905D3140304100029BB
:102CD30005D5140304140028015518050400002128
:102CE30005D7140103710301030103010301030168
:102CF3000322030203010310030003000300030084
:102D0300030003000300034203000324030603003C
:102D130003000304031203250323032503230304EE
:102D2300030403000300030003440300030003231D
:102D3300030003650321003503810300030503003A
:102D43000300030003000325032303030071003082
:102D53000160001100700031022003500480001054
:102D630000610000001400630073007200620043FE
:102D73000000001300060000000000040012000021
:102D83000000000000000004000400370037003C8E
:102D93000244000000000000000000650000003550
:102DA30000810000000500000083000000010171A4
:102DB3000101010101110101013101010101018041
:102DC30001100161013B0014006301730172016290
:102DD3000143010001130106013D01350004011205
:102DE300010001000100010001040104013301336A
:102DF300013C01440132013600000100016501007C
:102E030001350081010001050182018301000103F5
:102E13000271023001600211027002010202020219
:102E2300028002100261023A0041006302730272DF
:102E3300026202430200021302380000020002048D
:102E4300021202000200020002000204020402371E
:102E53000037003C02440200023900000200026510
:102E6300020002350281020002050282028302008F
:102E73000236000100060000000F00000000000001
:102E83000000000000000003FFFF00000403FFFF39
:102E93000000FFFF0FF4010005C40403200001003C
:102EA300000B000000000000000003010F00000001
:102EB300000000000000000000000000000000000F
:102EC300000000000000000000000000000000C738
:102ED3001BE51BCD1B371B0000000000000000009A
:102EE30000000000000000D31B371B00000000D9C6
:102EF3001B371B0000000000000000DF1B371B0016
:102F030000000000000000000000000000000000BE
:102F130000000000000000000000000000000000AE
:102F230000000000000000000000000000131E016C
:102F330000131E0200891D0280831D03008F1D04E0
:102F430000951D04809B1D0500A11D0600AD1D31CC
:102F530000BF1D3300C51D3400CB1DFFFF00000360
:102F63000003000400080010001F003E007B00F671
:102F730000EC01D703AF075D0FB91E713D000007D9
:102F8300ECFDFDFDECDCDCCCBCACAC9C9C8C7C7C1B
:102F93006C6C5C5C5C4C4C3C3C2C2C1C1C0A132461
:102FA30002DD2305E92307E3230CC5230DD123FF0A
:102FB300000000160F00000B150B020002220F3356
:102FC30000000E0F5A6967426565416C6C69616E5A
:102FD30063653039D0D1D2D3D4D5D6D7D8D9DADBBB
:102FE300DCDDDEDF150AF4D4C0A59582726361557A
:102FF300504900034D4C4651181A2505020001198A
:103003001618161618230300303016181920231A21
:103013001C1E30303017181921301B1D1F30003C87
:1030230040423A3F3F392F47300C0E020B040B0A44
:103033000708000F02040201010101090200BE0496
:103043000AE8030000E8030100F6FBE72F03008210
:103053002F1A00030A0C040A08140328020C051E85
:103063000815FF00FF0411091EC082C08312298FB7
:1030730090163374B5F0A37421F090163574BBF039
:10308300A37421F090163774C1F0A37421F0901645
:103093003974C7F0A37421F0025DA774F7120AFF15
:1030A300901627E4F0E9901626F07CFE7D157A2829
:1030B3007B16121B0D9018A2E0901630F09016317B
:1030C30074E8F0A3741502403474F0120AFFEAFEA8
:1030D300EBFF5480700302323D9016261240C970F4
:1030E30003023236EA241B125934707CEA241F127D
:1030F300593464137002A3E0706E8A828B83123298
:103103008B901641124EC6750A00750B00800D1286
:103113003F0A126FA6121A11AA0EAB0FEA4B6048B0
:103123008A828B83E0650C7004A3E0650D702C8AA2
:10313300828B83A3A3A3A3E0F50EA3E0F50FE50A17
:10314300450B8A828B83A3A3A3A360C312420C857E
:103153000A82850B83A3A3A3A380B78A0A8B0B8A56
:10316300828B83124EC280B4E508242A125934FCA0
:10317300E5082402F8E43509F9E8FAE9FB90164179
:10318300123372A3A3E06402703C8A828B83124ED3
:10319300C6800B88828983A3A3A3A312420CE849A8
:1031A300601F88828983E06A7003A3E06B70E48800
:1031B300828983A3A3E06C70DA9018A8125C648000
:1031C3006BECF91221F1850882850983E0640170B3
:1031D3004FE508241812327412113412654E120E80
:1031E300E7E5082412123274121134E5081240BDC7
:1031F300121130E508240B126552120EEBE5082478
:103203001712405AE5082402FCE43509FDE50824B9
:1032130019FAE43509FB122A2B740A12110D800CDA
:10322300E064027007AA08AB091222CFAA08AB090F
:1032330012197BEEFAEF6480802DEA5402600C9041
:1032430019077401F0EA6402FA8023EA5408601A49
:103253001221EBEA4B700B9016431264297A081281
:103263003281EE6408FAEFFB80047A007B00026B84
:10327300D8F582E43509F583E0F50A780A22FB9054
:103283001626E0F9121ADD22A3A3E0F50CA3E0F55C
:103293000D227B00901626E0F9121AD174042274D1
:1032A300F4120AFF8A088B098A828B83A3A3A312D1
:1032B3004CBE12406538F583E02409FA126B707036
:1032C300030233658A828B837402124D338508822D
:1032D300850983123372E8F0A3E91267EA8A828BC5
:1032E30083A3A3A3A3A3A3A3A3F0E5082403F8E460
:1032F30035091233671240653AF583E08E828B837A
:10330300A3A3A3A3F0EE2409FAE43FFB8E828F83E9
:10331300A3A3125F16F5838882E0A2E58E828F83D2
:10332300A3A3A3A3A3500474018001E4F0E508243C
:1033330003F5828983124EC6EA1254473BF5831282
:103343006B3712112C1240643B1260088E828F83FC
:10335300A3A3127CE612110DEEFAEFFB90162612D0
:103363006BBD8016F98882F583E0FAA3E0CA2212C6
:103373005063A3A322740212110D7F04020E627420
:10338300F2120AFF8A088B09ECFAEDFB740E121491
:1033930022E0FC1228C98A0C8B0DAE0CAF0DEA4F4C
:1033A3006030AC08AD09121F15E96026AC08AD0901
:1033B300EEFAEFFB1229E9E970148E828F83124132
:1033C300F9FAEFFB1228E1AA08AB091214537900AA
:1033D300800279B4024FB274F0120AFF74F612112C
:1033E300BCEAFEEBFF8C088D09750FB3852182853E
:1033F3002283E4F0750E008002050E90305CE493A6
:10340300F8E50EC3984003023501AA0E7B0012149F
:10341300778A0A8B0BEA4B60E08A828B83A3A31221
:10342300350828F0F8C3EE98EF940050CC7C157D56
:10343300007900AA08AB09121963850A82850B83F8
:10344300A3A3A3A3126FE3E0F8EEC3982925E0F842
:10345300E433F9E50A28F582E50B39F583A3A3A341
:10346300A3A3A312406FA3125A8B8A0C8B0DAC0C2F
:10347300AD0DAA08AB09121B0D850A82850B83A328
:10348300E06401700A12654E740112408180447435
:1034930001121186850A82850B83124EC412145FB2
:1034A300E9603D7409121422E0C0E012654ED0E0D9
:1034B300F07409121422E06403701374011211866C
:1034C300E508240BFAE43509FB121B0D8012740185
:1034D30012142212420CE508125A713509126FA414
:1034E300850A82850B8312655A124081A3A3E0C02B
:1034F300E0E5082414126552D0E0F0750F00A90F1F
:10350300740A026BD5A3A3A3E0F8852182852283E5
:10351300E02274F7120AFFE9FE8A828B83A3A3A336
:10352300A3A3A3E0540860338A828B83A3A3A3A33A
:10353300A3A3E0540260218A828B83A3A3A3A3A342
:10354300A3A3A3A3E06406600F74E96E600A74CDBD
:103553006E600574F06E70031221D30248B174F0EB
:10356300120AFF74EF1211BC740F12142212630DAE
:103573007408121422E9F0ECFEEDFF740512142214
:1035830012467912489DA3E0F912144774061214E7
:103593002212630D74061214221254D870030238D7
:1035A3001C1240A9E0FA7406121422E0F912211346
:1035B30012387CF8A3E0F9E849700302381CEE24C2
:1035C30003F50AE43FF50BEE2406F508E43FF5099D
:1035D3007C00850882F583124EC6850A82850B839B
:1035E300E0F912144D740312142212630D850A823A
:1035F300850B83E0C0E0852182852283123875D054
:10360300E01255EDF9852182852283123F11125173
:103613003F12350BFAA3E0CA2407F582E43AF58397
:10362300E8F0A3E41263182406F582E438F583E492
:10363300126FB0124CB212112CEE1240653F1260A1
:10364300087403121422124CBE2409127CE01211D6
:103653000D7429121422126FDD12336C1256003AC4
:10366300126FA4742B121422E0C0E08521828522FC
:103673008312549FD0E0F07402121422E4F07425F4
:1036830012142278081213AF023773740312142230
:10369300125FD08882F583123864A3A3A3125A96CB
:1036A300FB121465850E82850F83A3EAF0A3EBF06A
:1036B3007403121422123875A3123864125CA5A283
:1036C300E6500F850E82850F83A3A3A3A3A3E0D2A5
:1036D300E1F07405121422E0706B850E82850F836E
:1036E300A312420C901681E0687003A3E069705541
:1036F300850E82850F83A3A3A3124044750C007823
:103703000C12113478081211287429121422E0F5CE
:103713000C780C1211347427121422120EEB90162B
:103723008E120EEB79007419121422124E96122384
:1037330017740A12110D850E82850F83A3A3A3A309
:10374300A3E04405F07402121422E004FC8E828F7D
:1037530083124EC08E828F83A3A3A3E0F912144D6C
:10376300740312142212630D7402121422E004F083
:1037730074031214221254D860677402121422E0E4
:10378300FA740612142212420CC3EA98E4995051B7
:103793007402121422123B4E852182852283E02873
:1037A300F8A3E039F9E8240FF50EE439F50F850E97
:1037B30082F583E4F0740312142212386F640160FB
:1037C3000302368E74051214227401126BC3F07453
:1037D30003121422125D97123B71E8F0A3E902363B
:1037E300B2852182852283124EC612211985218238
:1037F300852283120EEB7426121422E0FD74251227
:103803001422E0FC740A121422E0F9EEFAEFFB1220
:1038130021CD740212110D80438E828F83A3A3A343
:10382300E0C0E0740C121422D0E0F0126A2CE0C065
:10383300E0740D121422D0E0F07406121422125414
:10384300D87009740E12142274B98007740E1214FE
:10385300227410F0740912117E1223117411026B79
:10386300D5E0850E82850F83A3A3A322E01255C55D
:10387300E022E01255C5A3A322852182852283EA93
:10388300F0A3EB1254E12274F0120AFF74E1121157
:10389300BC7404121422E9F07403121422ECF074C1
:1038A30002121422EDF08A0E8B0F742F12142212BF
:1038B300328DAA0CFB1221077401121422E9F0AA1B
:1038C3000CAB0D12210D7401121422E07003023BA4
:1038D30049852182852283E480158E828F83A3A369
:1038E300A3A3A3E0D2E3F0852182852283E004121F
:1038F3006B1BF8852182852283E0C3984003023B3A
:10390300407401121422E07003023B40852182853A
:103913002283123B4EE50C28F8E50D39F9E8240F14
:10392300FEE439FF8E82F583A3A3A3A3A3E0A2E061
:1039330040B5750800750A08750B0074021214224D
:10394300E060037508207C087D007900740512117E
:103953007E1219638E828F83E0603E9016D1E064FD
:1039630001701AE508D2E3F508750B10123B5E12DD
:103973001422E8F0A3E912598974FF807643080CF6
:10398300750A0C8E828F83A3123B69126FA674058E
:1039930012142274FFF0A3805A7404121422E060FC
:1039A30009E508D2E6F508750A0A8E828F83A3E03B
:1039B30064FE7003A3E0F4703074121214227404D2
:1039C300126578F8741D121422E8124D3374121222
:1039D300117E1220357D007C0079007415121422AB
:1039E300AA82AB83121DFB800B123B5E121422E8EA
:1039F300F0A3E9F07407121422E508F01240A0C006
:103A0300E07409121422D0E0F0740A121422740133
:103A1300F0740512117E1222D57411121422E06083
:103A230003023B1E740D1214221255E88E828F83FB
:103A3300A3A3A3A3F0740D121422124D01E50AF0FF
:103A4300A3E50BF07403121422E0C0E0124C92D0F1
:103A5300E0125CA560119016D1E0C0E0740D121461
:103A630022124CDCD0E0F0740D12142212420C85A9
:103A73000C82850D83A3A3A3A3A3123B57241C127B
:103A83006307126FC0123B59125C5739126A4BC05D
:103A9300E0124C79D0E0126B10C0E0740D121422C6
:103AA3001247BFD0E0126811C0E0740D1214221245
:103AB30047B5D0E0F0740D121422123B69123B5744
:103AC300242A126307850E82850F83A3A3A3A3A3CE
:103AD300A3A3A3E012630012408FC0E01247A1D05A
:103AE300E0F0740D121422124EC6850E82850F83E8
:103AF300126B262428F582E43B126FA4124098121D
:103B03006B3712112C126001EA1262993B127CE4AA
:103B130012110D740512117E1222DB8E828F83A384
:103B2300A3A3A3A3E0D2E0F07411121422E0600374
:103B33000238DD7401121422E0140238E97900AA74
:103B43000CAB0D1221D9741F026BD5E075F007A4DD
:103B5300F8A9F022A3A3124ECAE8228E828F83A370
:103B6300124210740522E0123B71A3A3A322F8A30F
:103B7300E0F9850E82850F83A32274F0120AFF7485
:103B8300E81211BCE9852182852283F08A0E8B0F0E
:103B93008A828B83A3A3A3A3A3A3A3A3E0F91221E4
:103BA300318A088B09EA4B7003023C5AE50E125422
:103BB3005B1240B812404F852182852283E0600367
:103BC300023C5D7C04850E82850F83A3A3A3A3A37C
:103BD300A3A3A3E0F9122137EE4F607B8E828F837C
:103BE300A3A3A3A312420C740712142212643E125D
:103BF300420C7409121422124D63C0E074111214A2
:103C030022D0E01267EFA3A3A3A3A3A3A312420CA2
:103C1300740F121422126FA67412121422E4126B80
:103C2300CBC8241FF582E438F583125FCCC4131389
:103C33005403FC70027C048E828F83E0F9780812AF
:103C43001130742059FD744059F9740312117E1216
:103C530021CD740212110D026BD37C08850E82856F
:103C63000F83A3A3A3A3A3A3A3A3E0F91221378BD9
:103C73000BEA4B7003023BDBEE4F60DB8521828551
:103C83002283E0F50C780C121134850882850983B0
:103C9300A3A3A3A3A3A3A3E0F50C780C1211348A66
:103CA300828B83A3A3A3E0FB8A82850B8312780311
:103CB3008A82850B83E0FA8E828F83A3A3E0F912B5
:103CC3002A31740212110D023BDF74F7120AFF74DA
:103CD300FA1211BCE9FE780179017F0080037900B3
:103CE3000F125042E0FCEFC39C5026EF75F007A47F
:103CF300FC85F008AD08EA2CFCEB3DFD124631E0F3
:103D0300A2E050DA540C60D6E0A2E250D3780080EF
:103D1300CF8A828B83A3A3A3A3A3A3E0703DE9A2CD
:103D2300E0400574016E70338A828B83A3A3A3A33F
:103D3300A3A37401124021E0C0E07403121422D043
:103D4300E0124690E0C0E07404121422D0E0F07454
:103D530005121422E8125F6B12231174060248AE97
:103D6300C082C08379011221D9025DA774F4120ABB
:103D7300FFEA4B9019076019E4F08A088B09F50AEA
:103D8300F50B78081211287A0212329512110D8060
:103D93000A7401F07A027B0012328202337D74F0DE
:103DA300120AFF74F31211BC7403121422E4F0A379
:103DB300F090164112404F7401121422E4F0A31242
:103DC3004D3804F090167BE0A2E35003023E9412B8
:103DD300401574091214221213F374091214227871
:103DE300081213AF901643780812118E740512143B
:103DF300227808121391123F1874051214227808BE
:103E030012135250077A017B00023F057405121406
:103E130022780C1213AF9018A7E0F509780C7908F3
:103E2300120A90A80CA90D9018A8E0C398E4995021
:103E330003E08001E8852182852283F0740912144E
:103E43002278081213AFC008C009C00AC00B74055A
:103E5300121422780C1213AF123F18780C7908123F
:103E63000A90E4F50AF50BD00FD00ED00DD00C78E4
:103E73000C7908121239901643780C1213918011A1
:103E8300123F0A126FA6EEFAEFFB121A11AE08AF39
:103E930009EE4F60658E828F83123508C398502DCB
:103EA300EE2403F8E43FF9E0FA88828983E0C39AB9
:103EB300F060237403121422124372740112142249
:103EC300EEF0A3EF126459FEA3E0FF80C48E828F4D
:103ED30083A3A3A3E4F08E828F83127C9D740112CB
:103EE30014221254D88E828F83A3A3A3A3609112AA
:103EF3006432121422123F118089740312142212A5
:103F03004EC6740D026BD512421090164122125FF9
:103F1300F7A3A3A3229018A6127CA5E4F50AF50B38
:103F23002274F0120AFF8A088B09890A7800790043
:103F330090164112404FFBEE4B601E088E828F831A
:103F4300A3A3A3A3124E90601008E87001098E8208
:103F53008F8312404BEA4F70E39018A9124EC6C3E9
:103F6300E89AE99B40030240087A0612400BA80C2A
:103F7300A90DEA4970030240088A828B83E508F0A1
:103F8300A3E50912402AE50AF09018A812504A1234
:103F93004021A3E4F0A3F0901641124E90600D8EE1
:103FA300828F83A3A3A3A3126FA680179016411237
:103FB3006FA690167BE0A2E34009124015901643CA
:103FC3001213F390167BE0A2E3503A7A087B009039
:103FD3001626E0F9121AE3EA4B4C4D70289018A606
:103FE300E0F508A3E085080CF50DE4F50EF50F7870
:103FF3000C1211287A087B00901626E0F9121AD7C2
:10400300740412110D026BD87B00121A0B8A0C8BED
:104013000D22121AF5EAF8EBF9ECFAEDFB22124045
:10402300252212402AA322F08A828B83A3A322E5AE
:1040330008F00248B1F08E828F83A3A3A3A3A3A3A6
:1040430022125942A3A3F022A3A3A3A3E0FEA3E059
:10405300FF227F05020E62F582E43509F583E0F95C
:1040630022EA124069222410F582E422124077A347
:10407300A3A3A32212421485088285098322124036
:104083008522F0850A82850B83A3A322E50E2411E2
:104093001240B5E022E50E240E1240B522E50E24AF
:1040A300101240B5E0221240AD22EE1240693FF5F6
:1040B3008322F582E4350FF58322240FF50AE435D4
:1040C30009F50B780A22E0F912198D8A088B09EA9F
:1040D3004B2274F2120AFF890B8A088B098A828B9E
:1040E30083124EC61221FDEA4B600479B8806A122E
:1040F3002209E9F8900CE3E493F9E8C399400479C1
:10410300B280567A1512400BAE0CAF0DEA4F700415
:10411300791080458A828B83E4F0A312402AE50B51
:10412300F0750A00780812112C7C127D00EA240332
:10413300126AE212110D9016471254D870089016A5
:1041430047800C12420C8882898312415F70F4EE1F
:10415300F0A3EFF012221B7900024FB2124ECAEA0B
:104163004B8882898322C082C08390164780048C47
:10417300828D83127804EC4D60288C828D83A3A3F7
:10418300E069600574FF6970E68C828D83A3A3A345
:10419300E06A7003A3E06B70D6EC2403FAE43DFB02
:1041A30080047A007B00025DA774F7120AFFE9FD21
:1041B30074FE6D70047C0180027C009016478009B8
:1041C3006D70027C01888289831254D8601F8882B3
:1041D3008983A3A3A3E06A7003A3E06B70E7ECA257
:1041E300E088828983A3A3E050D6F9800279FE0296
:1041F30048B1EEF9800CA3A3127CA5EE227402123F
:10420300110D7F02020E62F5831242102212421434
:1042130022E0F8A3E0F9221242148E828F83221245
:10422300110D7F03020E62C082C08379009016478E
:10423300800109E0FAA3E08A82F583E58245837071
:10424300F1025DA774F6120AFFE4F508F509780890
:10425300121130900CE3E49375F013A4A9F0124308
:104263006712700412110DE9FE74096E70031222B5
:10427300150241F574F6120AFF74FE1211BC852172
:1042830082852283E4F0A3F0A821A9228808890962
:104293007808121130750802750900780812113078
:1042A300126C7512110D02420074F5120AFF74EBC1
:1042B3001211BC852182852283E4F0A3F090164776
:1042C30080748E828F83A3A3E0C0E0740212142251
:1042D300D0E0125989A982AA8389088A09750A003C
:1042E300780812112C7C127D007406121422126FAE
:1042F300C912110D740212117688088909780812FF
:1043030011307508137509007808121130740412FE
:10431300142212547B75F013A4F8AAF075F013E974
:10432300124363126C7D12110D8521828522831243
:1043330043728E828F8312404FEE4F7085A821A95E
:104343002288088909780812113075080275090056
:104353007808121130126C7512110D741502422275
:10436300A42AF9E82402FCE439FD7A427B0022E026
:104373002401F0A3E03400F02274F4120AFF74EB7A
:104383001211BC7E007F00A821A922880889097820
:10439300081211307508028E0978081211307C005A
:1043A3007D007A4212701012110DE9706C8E088034
:1043B300567402121176880A890B780A1211307525
:1043C3000A13750B00780A121130E50875F013A46F
:1043D300F8AAF075F013E509124363127012121173
:1043E3000DE9701B7403121422AA82AB83740212A8
:1043F3001422E0F91221F7E970050EEE70010F05A2
:1044030008E5087002050985218285228312420C82
:10441300C3E50898E509994098EEFAEFFB74150295
:10442300337A74F6120AFF8C828D83A3A312467E1D
:10443300F0EA12629F3BF583E0C0E012463BD0E016
:10444300F0EA241DF582E43B12420A12461F12468B
:1044530079F0A3F0EA241FF582E43BF58312404F81
:10446300EC1246123DF583EEF0A3EFF01246183B33
:10447300F583124649A3A3A3A3A3A3EEF0A3EF12CC
:104483005EFAFE8C828D8312468874035EFEC394AB
:10449300034003024605EE600874026E60030245A2
:1044A3002A8C828D83E0540CFE740C6E70030245DB
:1044B30069E0A2E4400D88828983E08C828D83A326
:1044C30012469E74086E6003024569124629740100
:1044D300F08A828B83A3A3A3A3A312594F70148CD6
:1044E300828D83E0440C124690A3A3124649EEF05A
:1044F300A3EFF08C828D83E0A2E4402B88821246E6
:104503005712466C500109F582124657A3A3A3A381
:10451300A3A3F0A3EF1246988C828D83A3A3A3F0E9
:10452300E82403F850010988828983E0C0E0EC2481
:1045330011F582E43DF583D0E01246888C828D83A9
:10454300E0A2E7507588828983E0FE8C828D831216
:10455300469E74FC5E700C8C828D83A3E0540364CE
:1045630003701E024605124629E4F0740C6E6003C4
:104573000244D4888212465D12466C5001090244FB
:10458300F68C828D83A3E05403603288828983E0B2
:10459300C0E0EC1246433DF583D0E012469F8C8287
:1045A3008D83E054036402701488828983E0C0E041
:1045B300124631D0E012469F8003A3E4F0EC12547C
:1045C300473D126FA4EC2410FEE43DFFEA241DF5E1
:1045D30082E43BF583E0F5088E828F83E0C3982560
:1045E30008F508F0EA2417F8E43BF98882F583E03C
:1045F300C39508C0E012461FD0E0125EFAC39508C7
:10460300500A12461FE4F012463BE4F0024205242E
:1046130015F582E422EA240DF582E422EC240DF55B
:1046230082E43DF58322EC1256003DF58322EC240F
:1046330014F582E43DF58322EC1240693DF58322B3
:104643002413F582E422E0FEA3E0FF8C828D83A392
:10465300A3A3A32212465DA3A3228983E0F508A3A3
:10466300E0FFE5088C828D8322A3A3A3A3F0A3EF2D
:10467300F0E82402F82212467EA322E4F08C828D15
:1046830083A3A3A3221246A6A882A98322124025AC
:10469300A3A3A3A3221246A6A3E022A31246A6081D
:1046A300A98322125F03A32274F4120AFF74F31284
:1046B30011BC8A0A8B0BECFEEDFF8C82F583E05470
:1046C3000CF508E0A2E75006E508D2E7F508E5088F
:1046D300D2E1F50812594F7006E508D2E4F508E077
:1046E300A2E55006E508D2E5F5087C087D007900CF
:1046F300AA21AB221219637402121422E508126F65
:10470300AAC0E07403121422D0E0124D38E50AF077
:10471300A3E50BF07405121422126816121422E09A
:1047230070777408121422124CBE125EEC381268B1
:1047330031C0E074081214221247BFD0E01268118E
:10474300C0E074081214221247B5D0E0F0740812C6
:1047530014221247ABE0124CE6124D67126300EECF
:10476300241112591BC0E01247A1D0E0F0EE24142B
:1047730012591BC0E07408121422124CBE2435F5E2
:1047830082E438F583D0E0124D0BC0E074081214B4
:1047930022124CC2D0E012656A740D02337AE82407
:1047A30032F582E439F5832212421AA3A3A3A3A309
:1047B300A322124CD2126A1038F58322124CD2244F
:1047C30026F582E438F5832274F7120AFF7E008A05
:1047D300828B83A3A3A3A3A3A3A3A3A3E0640460E3
:1047E3000302488D1255F8E0600302488D12545AB3
:1047F3003B1254D6700302488D88828983E05403A8
:10480300600302488DE812560039F583E0FA8C8282
:104813008D83A3A3E0FBA3E0CB2411F582E43BF556
:1048230083E06A706588828983A3A3A3A3A3A3A358
:10483300A3A3124891E06A7003A3E06B704C8882D3
:104843008983A3A312489DE0FFA3E0CF2406125956
:104853001B6A7003A3E06B703188828983A3A3E092
:10486300F88C828D83A3A3E0F9A3E0F5838982A367
:10487300A3E06860138C828D83A3A3A3E0F58389EF
:1048830082E0540C640470027E01EEF98020124829
:104893009522124ECE8C828D8322A3A3124895A318
:1048A300A322740C121422E0F9740D12110D7F016E
:1048B300020E6274F6120AFF74FC1211BCEAFEEBDC
:1048C300FFECFAEDFB8C82F583A3E05403601690B2
:1048D300163D1254D860597900EEFCEFFD1260F7D3
:1048E300120CE1804B852182852283EEF0A3EFF049
:1048F3007402121422124D2DAC21AD227A337B2285
:1049030012245B8A088B09A808A909EA4960218A4D
:10491300828B83A3A3A3A3A3A3A3A3A37406F07A65
:104923000088828B83124CBE1262C0E0F91223B955
:10493300740402420274F2120AFF74F31211BCEA05
:10494300FEEBFF8A82F583A3A3A3A3A3A3A3A3A33D
:10495300A3E0F50A901907E0700579BA024C767561
:104963000801750900750C00750D007C087D007940
:1049730000AA21AB221219637405121422740112C6
:104983004D40540460127402121422E0D2E6124D18
:104993004054087003750803E054106006744045E2
:1049A30008F508E0540860227402121422E044C09F
:1049B300124D405420600A7403121422E0D2E080A6
:1049C300087403121422E0D2E1F0EE241512591BED
:1049D300124CA67003740169700674084508F50843
:1049E3008E828F83A3A3A3A3A3A3A3A3E070161212
:1049F30024B585218285228312630D740212142249
:104A0300E0D2E28030640F70107402121422124D4F
:104A13004874044508F508807F8E828F83A3A3A37F
:104A2300A3A3A3A3A3E064028E828F83700A126FF1
:104A3300DDE8F0A3E9F08060A3A3A3A3A3A3A3A34A
:104A4300E06403700DAC21AD22EEFAEFFB12226994
:104A530080468E828F83A3A3A3A3A3A3A3A3E0640F
:104A63000170359016D1E060107402121422124DB9
:104A730048750910750AFF80187402121422E04465
:104A83000C124D3874FDF0A374FFF074044508F55F
:104A9300088E828F8312328DEE241512591BA2E0E9
:104AA300503F7402121422E0540C701B8E828F83C9
:104AB300124EC6121EC7E9700579BB024C7674020A
:104AC300121422E0D2E5F0EE241512591BA2E05095
:104AD300107402121422E0540C64047004E0D2E552
:104AE300F0EE241112591BC0E07404121422D0E01A
:104AF300126818121422E06003024C6F7408121437
:104B030022124D01E508F0A3E509F0124C9CE0C028
:104B1300E0124C92D0E0F0124C83E0C0E074081233
:104B23001422124CBE12464338F583D0E0124D676F
:104B3300640170119016D1E0C0E0740812142212BF
:104B43004CDCD0E0F07408121422124CFC124C8D91
:104B5300FAE8241CF582E439F583EA124D33EE2496
:104B630015FAE43FFB8A82F583127804E8125C5756
:104B730039F583124D2DEE241C12591BC0E0124C43
:104B830079D0E0125D9D124CA67003740169701315
:104B930074081214221255E8FAEE241D12591BF957
:104BA30012213D8E828F83A3A3A3A3A3A3A3A3A3B5
:104BB300E0C0E074081214221247BFD0E0F074087A
:104BC3001214221247B5E50AF07408121422125483
:104BD3007B2428F582E439F583E50CF0A3E50D1277
:104BE3004D13124CE6125994126300EE124C8DC011
:104BF300E0E82433F582E439F583D0E0F0EE241BBA
:104C030012591BC0E07408121422124CC2D0E0F0F7
:104C1300EE241A12591BC0E07408121422124CBE5F
:104C23002432F582E438F583D0E0124D0B124CB2F6
:104C330012112C126A16127804740B121422124CDD
:104C4300BE242F127CE012110DEE241512591B54B1
:104C530040601290165D1254D8600AAA21AB22124A
:104C630060F7120CE1AA21AB221222DB740C12149E
:104C730022E0F9024FADE82420F582E439F58322DE
:104C8300EE2419F582E43FF58322126A25E022E837
:104C93002412F582E439F58322EE2418F582E43FE9
:104CA300F583225480F8A3E05401F974806822F557
:104CB30008A3E0F509750A00780822124CD22212E3
:104CC3004CD22434F582E438F58322A3A3A3A312A0
:104CD3004CD622E0F8A3E0C822124CD21246123876
:104CE300F58322FAA3E0FBE8242AF582E439F5836D
:104CF300EAF0A3EB22A3A3A3A3124210EE221254C1
:104D03007F12545F39F58322F0EE241312599C224B
:104D1300F0EE240D12599C22E0FC8A828B83E02C56
:104D2300FCA3E03400FD8A828B83ECF0A3EDF02238
:104D3300F0A3E4F022F085218285228322F0EE2481
:104D43001512599C22E0D2E3F0124D50228E828F2D
:104D530083124214852182852283E8F0A3E9F0229D
:104D6300E8F0A3E9126453E02274F7120AFF8A827F
:104D73008B83A3E0640170047E6380027E648A8275
:104D83008B83E060087905124DA024F3FE90167919
:104D9300E06007F9124DA024F2FE02488D1223832E
:104DA300E9F8EEC3982274F6120AFF74FE1211BCDE
:104DB30085218285228312630DE9FEECFAEDFB90D7
:104DC300053C1254D86032A821A9228808890978A1
:104DD300081211307D01740E121422E0FCEEF990DA
:104DE300053C1262E1120CE1740212110DEA4B60F0
:104DF300047900800679B2800279B602420074F722
:104E0300120AFFE9FE9016331254D8601F74091278
:104E13001422E0F5087808121134EEF990163312D3
:104E230062E1120CE1740112110D800279B602489D
:104E3300B174F7120AFF8908ECFEEDFF79B5E508B6
:104E4300245E602014600624F86034803D90053EA3
:104E5300124E906035127021120CE18E828F8312F4
:104E6300630D8024901635127804EC4D601CEEFC23
:104E7300EFFD9016351262E1120CE1E9F9800B9017
:104E83001631124E96121B0D79000248B1124ECA0A
:104E9300EA4B22127808EEFAEFFB2274F7120AFFAC
:104EA300E9FE79B574AB6E700B901631124EC612D3
:104EB3001B0D79000248B18E828F83A3A3A3A3A302
:104EC300A3A3A3124ECA22124ECE22E0FAA3E0FB02
:104ED3002274F1120AFFEAFEEBFF8C0A8D0B7508B0
:104EE30001901681E06E7003A3E06F700C124FA166
:104EF300AA0AAB0B121B0D805E1224BBEE6A700272
:104F0300EF6B7009AA0AAB0B1224C1804AAC0AAD3D
:104F13000BEEFAEFFB122011E9F5089018AEE070E2
:104F230036122965E97030E508702C901651E06E51
:104F33007003A3E06F7020EE4F601C750C49750D74
:104F430016750E00780C12112C7C087D00AA0AAB92
:104F53000B126FCD12110DA90802790074F2120A17
:104F6300FFEAFEEBFF8C088D09750A01124FA1EED3
:104F7300FAEFFB121B07E9640170119016811242CC
:104F83000C850882850983126FA6800EAC08AD09D3
:104F9300EEFAEFFB122017E9F50AA90A8011122491
:104FA300AF8A0C8B0DAC0CAD0D22740D12110D7F5D
:104FB30006020E6274F6120AFFEAFEEBFF7A0D7B1D
:104FC30000121A0BEA4B6062EE2424126CAAF0EE74
:104FD3002425126CAAA312506F126CB0A3A3126AF9
:104FE3004312504AF0EE12503012505FE8F0A3E93A
:104FF300125086125057126FA6EE125039126B06DA
:10500300A3A3A3A3F0EE243312591BC0E012504212
:10501300D0E0126835125057A3A3A3E8F0A3E91216
:10502300507EC0E01255F8D0E0F0024205242AF584
:1050330082E43FF58322242EF582E43FF58322EABE
:10504300125A713BF5832212504E22E08A828B83DF
:10505300A3A3A322126B65A3A3A3A32212506322CB
:105063001242148A828B83A3A3A3A322F012507447
:1050730022EE2426F582E43FF58322F0EE24321259
:10508300599C22F0EE242C12599C2274F4120AFF2C
:1050930074FE1211BCECFEEDFFEC241612591B64D6
:1050A300057010EC2406FCE43FFD122263E9700353
:1050B30002513AAC21AD22126D5F121ECD852182C1
:1050C3008522831254D8606B8E828F83E0640170D3
:1050D30058E875F009A4F8AAF075F009E9A42AF9CB
:1050E30074A828F8740339F9E8FAE9FB8882F58390
:1050F30078081213AFEE1251DC12135240278521A8
:1051030082852283124CFC12592912513F780812CE
:1051130013AF90820478081212D58A828B837808A1
:10512300121391800A79A28010EE240F126FA079D6
:1051330000800679A1800279C8023378124D5DEEB2
:10514300126A312274F2120AFF8A0C8B0DECFEED07
:10515300FFEC125929E4F0A3F090820078081213AF
:10516300AFEC1251DC1211D26067EC240E125922FB
:10517300703478B3901678E070289016AAE0640132
:105183007020EC241112591BF912236B8B09A90906
:10519300EE12545B3F12630BEA496004780080020D
:1051A30078A18808802EE060046402700A122275D8
:1051B300E9F5087007801DE064037010EEFCEFFD55
:1051C300AA0CAB0D121EF1E9F50880087508A18041
:1051D300037508A3A908024FB2126A317808227432
:1051E300F0120AFF74F51211BCEAFEEBFFEA240A7F
:1051F300FCE43F8C82F583127CA112546574031284
:1052030011868A828B83126101E970030252CB7487
:1052130001121186740312117E121ECD7401121431
:10522300221254D870030252CBE875F009A4F8AAED
:10523300F075F009E9A42AF974A428FC740339FD74
:10524300E508240E126552E4F00412142212420CF3
:10525300E50812545B3509126FA48C828D831213F7
:10526300E7E50824121265521213F39082047808BA
:105273001213AF8C828D8378081212E88C828D838F
:10528300780C1213AF90827478081213AF780C79EC
:1052930008120A90E5084509450A450B702A74016E
:1052A30012142212547B75F009A4F8AAF075F009C0
:1052B300E9A42AF974AC28F582740339F5837401DF
:1052C300F07A007B081254888E828F83A3A3A3A352
:1052D300A3A3A3A3A3A3E02406FCA3E03400FD8EB1
:1052E300828F83126101126823603EEE240A1254F6
:1052F3004D124D017468124D33E812544739F5834A
:105303007402F09016631213E78C828D831262FA93
:10531300125EEC3CF5831213F390820478081213A7
:10532300AF90166378081212E81254C3705D90169A
:1053330031125473A3A3A3A3A3A3A3A3A3A3125F91
:1053430022121B07E97010125EE0901631125EF212
:10535300700512682360348E828F83A3A3A3A3A353
:10536300A3A3A3A3A3125473124EC6121EF7E9609C
:10537300118E828F83A3A3A3A3A3A31254AFE4F03C
:10538300A3F08E828F83125495E4F01254C360030A
:105393000254428E828F83A3A3A3A3A3A3127C9D53
:1053A300901678E060030254379016AAE064016017
:1053B30003025437750A3A750B00780A12113074D8
:1053C30002121176880A890B780A12113012729C24
:1053D30012110DE9705BE508240E12655274011277
:1053E30054DDC0E0E5082411126552D0E0F0E50871
:1053F300240F126552743A124D3390165F1213E75D
:10540300E50824121265521213F3908204780812ED
:1054130013AF90165F78081212E89082047808128E
:1054230013AF90165F78081211D27008125484805B
:10543300031254651254C37006125DE374A1F07431
:105443000B026BD5240EF582E422F8E43FF9E8FC65
:10545300E9FD8882F58322EA12545F22240FF58244
:10546300E422E50812545F3509F583E4F0A3F02242
:105473001278088E828F832212547F22124214E8FC
:10548300227A007B02901507E0F91219B7228A826B
:105493008B83A3A3A3A3A3A3A3A3A3A31254A32272
:1054A300124CD6240EF582E438F58322A3A3A3A3DA
:1054B3001254B722124CD6240FF582E438F5832216
:1054C3008E828F83A3A3A3A3A3A3124CCE240FF591
:1054D30082E438F58312547F49221254E122F08585
:1054E3002182852283E02274F6120AFFEAFEEBFF93
:1054F3007A237B00121A0BEE240AF508E43FF50920
:1055030085088212630B7C237D0079001219638561
:1055130008828509831254D870030255ABEEFAEF63
:10552300FB1222811254C360748E828F831255DE64
:1055330064018E828F83A3A3A3A3A3A37007125531
:10554300D4740E80211254D87010126823700B8EFD
:10555300828F83A3A3E0A2E050071255CA740D8083
:10556300051255CA74051268355403640170071295
:1055730055B27405800B901679E0C0E01255B2D095
:10558300E01255EDF5838882125948850882850912
:1055930083124CBE12629F38F583E9800E85088220
:1055A30085098312638480031262C7F00242058E69
:1055B300828F83A3A3A3A3A3A3A3A3A3A31255C4CB
:1055C30022E01262E6A3228E828F83A3A3A3A3A366
:1055D300A3124CCE1262A538F58322A3A3A3A3A3DF
:1055E300A3A3A3A3A31254A3E0221255F122126D85
:1055F30074F8A3E022EA1256003BF58322240CF54B
:1056030082E42274F1120AFF74E41211BC8A0C8B37
:105613000D8C088D097A237B00121A0B8A0A8B0BD7
:10562300AE0AAF0BEA4F70030259031262ABE508EF
:105633002415125934687003A3E0698E828F837036
:1056430004740280027401F0E508240DF8E43509BE
:10565300F98882F583E0FAC3E49AFA95E0FB1259DC
:10566300302AFAA3E03BFB8E828F83A3A3A3A3126A
:105673005F098E828F83A3A3F0EE2420F582E43F9B
:10568300F583E4F0EE2421F582E43FF583E4F0EEC4
:10569300FAEFFB12233585088285098312594F706F
:1056A300098E828F83A37405800690167912593D63
:1056B300F0EE2417F50AE43FF50B8E828F8312591F
:1056C30048E9850A82850B83F0EE2416F8E43FF956
:1056D300E508240EFAE43509FB88828983124D1B01
:1056E300E5082410FAE43509FB850A82850B83E07B
:1056F300FC88828983E0F88A828B83E0C398C39C09
:10570300F8125989F0EEFCEFFDAA0CAB0D12227BC7
:10571300E9F50B8E828F83E064027006125EE0125D
:10572300590DE50B60030258FA750C00750D0090D6
:1057330018AEE064016005E06402703F12591F6017
:1057430008EE242112592270328E828F83A3A3A3E1
:105753001262CD125955EE241612591B12597EFAB4
:10576300E439FB12400DEA4B6011126B2F12112C1E
:10577300125963AA0C126FCD12110DEEFAEFFB1240
:105783002341E9F50B9018AEE064016008E0640280
:1057930060030258EDE970030258EDE50C450D7006
:1057A300030258FA8003850E0B12591F600BEE2477
:1057B3002112592260030258F3850B0E850C0885CC
:1057C3000D09750A00780812112C1259638E828F05
:1057D30083A3A3A3A3127CE612110DEE2420125976
:1057E3001B600D1259287468124D33EE2420801566
:1057F300EE242112591B60151259287403F0A37467
:1058030001F0EE2421F582E43FF583E4F0EEFAEFB4
:10581300FB122341E9F50B70907C137D0079007432
:105823000912117E121963741A1214227401125987
:105833009464687002A3E0704F8E828F831254AF1A
:10584300E0640560030257A97C0879FF8E828F8389
:10585300A3A3A3A3E0242A125F251219EDE9700381
:105863000257A97C087D0079FF740112117E121979
:105873006374011211867A007B0079AB12225D7486
:105883001912142274FC8015125928E06403700461
:10589300A3E064017008741912142274FFF0E4F594
:1058A30008F5097808121130740212118674131264
:1058B3001422AA82AB8312640A12110D85218285F8
:1058C3002283E0602B74091211768808890978080D
:1058D30012113075081375090078081211307C0015
:1058E3007D00126C7D12110D8006E50C450D6007DD
:1058F300AA0CAB0D121A11EEFAEFFB121A11800368
:10590300750B10A90B741C0278FDEE2406FAE43F14
:10591300FB121B0D22EE240C12599C22EE242012A2
:10592300599C640122EE12545F3FF58322E508245B
:105933000EF582E43509F583E022125942A322E0F1
:105943008E828F8322A3E0F912238322E05403641F
:10595300012212595922E0FAE82AF8E43400F92224
:105963008E828F83A3A3A31262D1125959EE2416F8
:1059730012599C12597EFCE439FD22FAE82AF8E414
:1059830039F9E824042212598D22126844A3A3A3EF
:1059930022F012599922EE240FF582E43FF583E0B9
:1059A3002279010210BD74F4120AFFEAFEEBFF8AAA
:1059B30082F583A3A3A3A3A3A3A3A3124CBE24246E
:1059C300F582E438F58312594F702E8A828B831245
:1059D30055DE7025125A77E06405701D125A77A3BD
:1059E300E0F87401686005740668700712549174D6
:1059F3000280051254917403F0EA240A12637812A8
:105A030062E1E4F0EA2408F8E43F1233672431F555
:105A130082E43AF583E0C0E0127018A3A3D0E01249
:105A23005A96CA242EF582E43AF583E0C0E0127058
:105A330018A3A3A3D0E0125FBCC8125A7138124254
:105A43000A127018125A8B8A0A8B0BAC0AAD0B859B
:105A53000882850983125F22121B0D85088285093E
:105A630083124EC6122341126373F002337D240B5B
:105A7300F582E4228A828B83A3A3A3A3A3A3A3A374
:105A830012680AF583888222A3A3A3A3124D5D1291
:105A930024AF22125EFEFAA3E0220259A4C082C000
:105AA300839016537487F0A37422F0901655749361
:105AB300F0A37422F09016577499F0A37422F09017
:105AC3001659748DF0A37422F0025DA774F4120AC0
:105AD300FFEA2408FEE43BFF8E82F58312547B1217
:105AE30062B7E0F50874035508F509125F1DF8A3C2
:105AF300E08882F583E508F0A3A882A983E509601D
:105B030009740265096003025BBC740C5508FC60F0
:105B13000A74086C600574046C702674026509705D
:105B230006E508A2E4401A8A828B83A3A3A3A3A356
:105B3300A3A3A3125CC2126A103D125C5DA308A961
